{
  "_format": "hh-sol-artifact-1",
  "contractName": "OrderBook",
  "sourceName": "contracts/Orderbook.sol",
  "abi": [
    {
      "inputs": [
        {
          "internalType": "address",
          "name": "_exchange",
          "type": "address"
        }
      ],
      "stateMutability": "nonpayable",
      "type": "constructor"
    },
    {
      "inputs": [],
      "name": "ex",
      "outputs": [
        {
          "internalType": "contract OBEX",
          "name": "",
          "type": "address"
        }
      ],
      "stateMutability": "view",
      "type": "function"
    },
    {
      "inputs": [
        {
          "internalType": "uint256",
          "name": "_page",
          "type": "uint256"
        },
        {
          "internalType": "uint256",
          "name": "_limit",
          "type": "uint256"
        }
      ],
      "name": "myOrder",
      "outputs": [
        {
          "internalType": "bytes32[]",
          "name": "orderIds",
          "type": "bytes32[]"
        },
        {
          "internalType": "address[]",
          "name": "tokenFromMaker",
          "type": "address[]"
        },
        {
          "internalType": "address[]",
          "name": "tokenFromTaker",
          "type": "address[]"
        },
        {
          "internalType": "uint256[]",
          "name": "amountFromMaker",
          "type": "uint256[]"
        },
        {
          "internalType": "uint256[]",
          "name": "amountTokens",
          "type": "uint256[]"
        },
        {
          "internalType": "uint256[]",
          "name": "amountSold",
          "type": "uint256[]"
        },
        {
          "internalType": "bool[]",
          "name": "isEnd",
          "type": "bool[]"
        }
      ],
      "stateMutability": "view",
      "type": "function"
    },
    {
      "inputs": [
        {
          "internalType": "address",
          "name": "_tokenA",
          "type": "address"
        },
        {
          "internalType": "address",
          "name": "_tokenB",
          "type": "address"
        },
        {
          "internalType": "uint256",
          "name": "_page",
          "type": "uint256"
        },
        {
          "internalType": "uint256",
          "name": "_limit",
          "type": "uint256"
        }
      ],
      "name": "orderBook",
      "outputs": [
        {
          "internalType": "bytes32[]",
          "name": "orderIds",
          "type": "bytes32[]"
        },
        {
          "internalType": "address[]",
          "name": "maker",
          "type": "address[]"
        },
        {
          "internalType": "uint256[]",
          "name": "amountFromMaker",
          "type": "uint256[]"
        },
        {
          "internalType": "uint256[]",
          "name": "amountTokens",
          "type": "uint256[]"
        },
        {
          "internalType": "uint256[]",
          "name": "amountSold",
          "type": "uint256[]"
        },
        {
          "internalType": "bool[]",
          "name": "isEnd",
          "type": "bool[]"
        }
      ],
      "stateMutability": "view",
      "type": "function"
    }
  ],
  "bytecode": "0x60806040523480156200001157600080fd5b5060405162002b5338038062002b53833981810160405281019062000037919062000095565b806000806101000a81548173ffffffffffffffffffffffffffffffffffffffff021916908373ffffffffffffffffffffffffffffffffffffffff160217905550506200010f565b6000815190506200008f81620000f5565b92915050565b600060208284031215620000a857600080fd5b6000620000b8848285016200007e565b91505092915050565b6000620000ce82620000d5565b9050919050565b600073ffffffffffffffffffffffffffffffffffffffff82169050919050565b6200010081620000c1565b81146200010c57600080fd5b50565b612a34806200011f6000396000f3fe608060405234801561001057600080fd5b50600436106100415760003560e01c806315e14ac914610046578063dab277fa1461007b578063e1c34549146100b1575b600080fd5b610060600480360381019061005b91906120de565b6100cf565b6040516100729695949392919061250c565b60405180910390f35b610095600480360381019061009091906121ab565b610f10565b6040516100a8979695949392919061246c565b60405180910390f35b6100b9611f08565b6040516100c691906125b2565b60405180910390f35b606080606080606080600187116100e557600080fd5b60008060009054906101000a900473ffffffffffffffffffffffffffffffffffffffff1673ffffffffffffffffffffffffffffffffffffffff1663fd437f048c8c6040518363ffffffff1660e01b8152600401610143929190612443565b60206040518083038186803b15801561015b57600080fd5b505afa15801561016f573d6000803e3d6000fd5b505050506040513d601f19601f820116820180604052508101906101939190612182565b9050600088826101a39190612758565b9050600089836101b391906128d3565b9050818b101561085e578967ffffffffffffffff8111156101fd577f4e487b7100000000000000000000000000000000000000000000000000000000600052604160045260246000fd5b60405190808252806020026020018201604052801561022b5781602001602082028036833780820191505090505b5098508967ffffffffffffffff81111561026e577f4e487b7100000000000000000000000000000000000000000000000000000000600052604160045260246000fd5b60405190808252806020026020018201604052801561029c5781602001602082028036833780820191505090505b5097508967ffffffffffffffff8111156102df577f4e487b7100000000000000000000000000000000000000000000000000000000600052604160045260246000fd5b60405190808252806020026020018201604052801561030d5781602001602082028036833780820191505090505b5096508967ffffffffffffffff811115610350577f4e487b7100000000000000000000000000000000000000000000000000000000600052604160045260246000fd5b60405190808252806020026020018201604052801561037e5781602001602082028036833780820191505090505b5095508967ffffffffffffffff8111156103c1577f4e487b7100000000000000000000000000000000000000000000000000000000600052604160045260246000fd5b6040519080825280602002602001820160405280156103ef5781602001602082028036833780820191505090505b5094508967ffffffffffffffff811115610432577f4e487b7100000000000000000000000000000000000000000000000000000000600052604160045260246000fd5b6040519080825280602002602001820160405280156104605781602001602082028036833780820191505090505b50935060008a8c6104719190612789565b90505b8a60018d6104829190612702565b61048c9190612789565b8110156108585760008054906101000a900473ffffffffffffffffffffffffffffffffffffffff1673ffffffffffffffffffffffffffffffffffffffff166325792a4d8f8f6040518363ffffffff1660e01b81526004016104ee929190612443565b60006040518083038186803b15801561050657600080fd5b505afa15801561051a573d6000803e3d6000fd5b505050506040513d6000823e3d601f19601f820116820180604052508101906105439190612141565b818151811061057b577f4e487b7100000000000000000000000000000000000000000000000000000000600052603260045260246000fd5b60200260200101518a82815181106105bc577f4e487b7100000000000000000000000000000000000000000000000000000000600052603260045260246000fd5b60200260200101818152505060008054906101000a900473ffffffffffffffffffffffffffffffffffffffff1673ffffffffffffffffffffffffffffffffffffffff16639c3f1e908b838151811061063d577f4e487b7100000000000000000000000000000000000000000000000000000000600052603260045260246000fd5b60200260200101516040518263ffffffff1660e01b81526004016106619190612597565b60e06040518083038186803b15801561067957600080fd5b505afa15801561068d573d6000803e3d6000fd5b505050506040513d601f19601f820116820180604052508101906106b19190612040565b90919293945090919293508d86815181106106f5577f4e487b7100000000000000000000000000000000000000000000000000000000600052603260045260246000fd5b602002602001018d8781518110610735577f4e487b7100000000000000000000000000000000000000000000000000000000600052603260045260246000fd5b602002602001018d8881518110610775577f4e487b7100000000000000000000000000000000000000000000000000000000600052603260045260246000fd5b602002602001018d89815181106107b5577f4e487b7100000000000000000000000000000000000000000000000000000000600052603260045260246000fd5b602002602001018d8a815181106107f5577f4e487b7100000000000000000000000000000000000000000000000000000000600052603260045260246000fd5b6020026020010185151515158152508581525085815250858152508573ffffffffffffffffffffffffffffffffffffffff1673ffffffffffffffffffffffffffffffffffffffff16815250505050505080806108509061288a565b915050610474565b50610f00565b8067ffffffffffffffff81111561089e577f4e487b7100000000000000000000000000000000000000000000000000000000600052604160045260246000fd5b6040519080825280602002602001820160405280156108cc5781602001602082028036833780820191505090505b5098508067ffffffffffffffff81111561090f577f4e487b7100000000000000000000000000000000000000000000000000000000600052604160045260246000fd5b60405190808252806020026020018201604052801561093d5781602001602082028036833780820191505090505b5097508067ffffffffffffffff811115610980577f4e487b7100000000000000000000000000000000000000000000000000000000600052604160045260246000fd5b6040519080825280602002602001820160405280156109ae5781602001602082028036833780820191505090505b5096508067ffffffffffffffff8111156109f1577f4e487b7100000000000000000000000000000000000000000000000000000000600052604160045260246000fd5b604051908082528060200260200182016040528015610a1f5781602001602082028036833780820191505090505b5095508067ffffffffffffffff811115610a62577f4e487b7100000000000000000000000000000000000000000000000000000000600052604160045260246000fd5b604051908082528060200260200182016040528015610a905781602001602082028036833780820191505090505b5094508067ffffffffffffffff811115610ad3577f4e487b7100000000000000000000000000000000000000000000000000000000600052604160045260246000fd5b604051908082528060200260200182016040528015610b015781602001602082028036833780820191505090505b509350898b610b109190612789565b831115610eff5760005b81811015610efd5760008054906101000a900473ffffffffffffffffffffffffffffffffffffffff1673ffffffffffffffffffffffffffffffffffffffff166325792a4d8f8f6040518363ffffffff1660e01b8152600401610b7d929190612443565b60006040518083038186803b158015610b9557600080fd5b505afa158015610ba9573d6000803e3d6000fd5b505050506040513d6000823e3d601f19601f82011682018060405250810190610bd29190612141565b818c8e610bdf9190612789565b610be99190612702565b81518110610c20577f4e487b7100000000000000000000000000000000000000000000000000000000600052603260045260246000fd5b60200260200101518a8281518110610c61577f4e487b7100000000000000000000000000000000000000000000000000000000600052603260045260246000fd5b60200260200101818152505060008054906101000a900473ffffffffffffffffffffffffffffffffffffffff1673ffffffffffffffffffffffffffffffffffffffff16639c3f1e908b8381518110610ce2577f4e487b7100000000000000000000000000000000000000000000000000000000600052603260045260246000fd5b60200260200101516040518263ffffffff1660e01b8152600401610d069190612597565b60e06040518083038186803b158015610d1e57600080fd5b505afa158015610d32573d6000803e3d6000fd5b505050506040513d601f19601f82011682018060405250810190610d569190612040565b90919293945090919293508d8681518110610d9a577f4e487b7100000000000000000000000000000000000000000000000000000000600052603260045260246000fd5b602002602001018d8781518110610dda577f4e487b7100000000000000000000000000000000000000000000000000000000600052603260045260246000fd5b602002602001018d8881518110610e1a577f4e487b7100000000000000000000000000000000000000000000000000000000600052603260045260246000fd5b602002602001018d8981518110610e5a577f4e487b7100000000000000000000000000000000000000000000000000000000600052603260045260246000fd5b602002602001018d8a81518110610e9a577f4e487b7100000000000000000000000000000000000000000000000000000000600052603260045260246000fd5b6020026020010185151515158152508581525085815250858152508573ffffffffffffffffffffffffffffffffffffffff1673ffffffffffffffffffffffffffffffffffffffff1681525050505050508080610ef59061288a565b915050610b1a565b505b5b5050509499939850945094509450565b606080606080606080606060018811610f2857600080fd5b60008060009054906101000a900473ffffffffffffffffffffffffffffffffffffffff1673ffffffffffffffffffffffffffffffffffffffff16630b7034a5336040518263ffffffff1660e01b8152600401610f849190612428565b60206040518083038186803b158015610f9c57600080fd5b505afa158015610fb0573d6000803e3d6000fd5b505050506040513d601f19601f82011682018060405250810190610fd49190612182565b905060008982610fe49190612758565b905060008a83610ff491906128d3565b9050818c101561177b578a67ffffffffffffffff81111561103e577f4e487b7100000000000000000000000000000000000000000000000000000000600052604160045260246000fd5b60405190808252806020026020018201604052801561106c5781602001602082028036833780820191505090505b5099508a67ffffffffffffffff8111156110af577f4e487b7100000000000000000000000000000000000000000000000000000000600052604160045260246000fd5b6040519080825280602002602001820160405280156110dd5781602001602082028036833780820191505090505b5098508a67ffffffffffffffff811115611120577f4e487b7100000000000000000000000000000000000000000000000000000000600052604160045260246000fd5b60405190808252806020026020018201604052801561114e5781602001602082028036833780820191505090505b5097508a67ffffffffffffffff811115611191577f4e487b7100000000000000000000000000000000000000000000000000000000600052604160045260246000fd5b6040519080825280602002602001820160405280156111bf5781602001602082028036833780820191505090505b5096508a67ffffffffffffffff811115611202577f4e487b7100000000000000000000000000000000000000000000000000000000600052604160045260246000fd5b6040519080825280602002602001820160405280156112305781602001602082028036833780820191505090505b5095508a67ffffffffffffffff811115611273577f4e487b7100000000000000000000000000000000000000000000000000000000600052604160045260246000fd5b6040519080825280602002602001820160405280156112a15781602001602082028036833780820191505090505b5094508a67ffffffffffffffff8111156112e4577f4e487b7100000000000000000000000000000000000000000000000000000000600052604160045260246000fd5b6040519080825280602002602001820160405280156113125781602001602082028036833780820191505090505b50935060008b8d6113239190612789565b90505b8b60018e6113349190612702565b61133e9190612789565b8110156117755760008054906101000a900473ffffffffffffffffffffffffffffffffffffffff1673ffffffffffffffffffffffffffffffffffffffff1663eaba01f0336040518263ffffffff1660e01b815260040161139e9190612428565b60006040518083038186803b1580156113b657600080fd5b505afa1580156113ca573d6000803e3d6000fd5b505050506040513d6000823e3d601f19601f820116820180604052508101906113f39190612141565b818151811061142b577f4e487b7100000000000000000000000000000000000000000000000000000000600052603260045260246000fd5b60200260200101518b828151811061146c577f4e487b7100000000000000000000000000000000000000000000000000000000600052603260045260246000fd5b60200260200101818152505060008054906101000a900473ffffffffffffffffffffffffffffffffffffffff1673ffffffffffffffffffffffffffffffffffffffff16639c3f1e908c83815181106114ed577f4e487b7100000000000000000000000000000000000000000000000000000000600052603260045260246000fd5b60200260200101516040518263ffffffff1660e01b81526004016115119190612597565b60e06040518083038186803b15801561152957600080fd5b505afa15801561153d573d6000803e3d6000fd5b505050506040513d601f19601f820116820180604052508101906115619190612040565b909192939495508f87815181106115a1577f4e487b7100000000000000000000000000000000000000000000000000000000600052603260045260246000fd5b602002602001018f88815181106115e1577f4e487b7100000000000000000000000000000000000000000000000000000000600052603260045260246000fd5b602002602001018f8981518110611621577f4e487b7100000000000000000000000000000000000000000000000000000000600052603260045260246000fd5b602002602001018f8a81518110611661577f4e487b7100000000000000000000000000000000000000000000000000000000600052603260045260246000fd5b602002602001018f8b815181106116a1577f4e487b7100000000000000000000000000000000000000000000000000000000600052603260045260246000fd5b602002602001018f8c815181106116e1577f4e487b7100000000000000000000000000000000000000000000000000000000600052603260045260246000fd5b6020026020010186151515158152508681525086815250868152508673ffffffffffffffffffffffffffffffffffffffff1673ffffffffffffffffffffffffffffffffffffffff168152508673ffffffffffffffffffffffffffffffffffffffff1673ffffffffffffffffffffffffffffffffffffffff16815250505050505050808061176d9061288a565b915050611326565b50611ef9565b8067ffffffffffffffff8111156117bb577f4e487b7100000000000000000000000000000000000000000000000000000000600052604160045260246000fd5b6040519080825280602002602001820160405280156117e95781602001602082028036833780820191505090505b5099508067ffffffffffffffff81111561182c577f4e487b7100000000000000000000000000000000000000000000000000000000600052604160045260246000fd5b60405190808252806020026020018201604052801561185a5781602001602082028036833780820191505090505b5098508067ffffffffffffffff81111561189d577f4e487b7100000000000000000000000000000000000000000000000000000000600052604160045260246000fd5b6040519080825280602002602001820160405280156118cb5781602001602082028036833780820191505090505b5097508067ffffffffffffffff81111561190e577f4e487b7100000000000000000000000000000000000000000000000000000000600052604160045260246000fd5b60405190808252806020026020018201604052801561193c5781602001602082028036833780820191505090505b5096508067ffffffffffffffff81111561197f577f4e487b7100000000000000000000000000000000000000000000000000000000600052604160045260246000fd5b6040519080825280602002602001820160405280156119ad5781602001602082028036833780820191505090505b5095508067ffffffffffffffff8111156119f0577f4e487b7100000000000000000000000000000000000000000000000000000000600052604160045260246000fd5b604051908082528060200260200182016040528015611a1e5781602001602082028036833780820191505090505b5094508067ffffffffffffffff811115611a61577f4e487b7100000000000000000000000000000000000000000000000000000000600052604160045260246000fd5b604051908082528060200260200182016040528015611a8f5781602001602082028036833780820191505090505b5093508a8c611a9e9190612789565b831115611ef85760005b81811015611ef65760008054906101000a900473ffffffffffffffffffffffffffffffffffffffff1673ffffffffffffffffffffffffffffffffffffffff1663eaba01f0336040518263ffffffff1660e01b8152600401611b099190612428565b60006040518083038186803b158015611b2157600080fd5b505afa158015611b35573d6000803e3d6000fd5b505050506040513d6000823e3d601f19601f82011682018060405250810190611b5e9190612141565b818d8f611b6b9190612789565b611b759190612702565b81518110611bac577f4e487b7100000000000000000000000000000000000000000000000000000000600052603260045260246000fd5b60200260200101518b8281518110611bed577f4e487b7100000000000000000000000000000000000000000000000000000000600052603260045260246000fd5b60200260200101818152505060008054906101000a900473ffffffffffffffffffffffffffffffffffffffff1673ffffffffffffffffffffffffffffffffffffffff16639c3f1e908c8381518110611c6e577f4e487b7100000000000000000000000000000000000000000000000000000000600052603260045260246000fd5b60200260200101516040518263ffffffff1660e01b8152600401611c929190612597565b60e06040518083038186803b158015611caa57600080fd5b505afa158015611cbe573d6000803e3d6000fd5b505050506040513d601f19601f82011682018060405250810190611ce29190612040565b909192939495508f8781518110611d22577f4e487b7100000000000000000000000000000000000000000000000000000000600052603260045260246000fd5b602002602001018f8881518110611d62577f4e487b7100000000000000000000000000000000000000000000000000000000600052603260045260246000fd5b602002602001018f8981518110611da2577f4e487b7100000000000000000000000000000000000000000000000000000000600052603260045260246000fd5b602002602001018f8a81518110611de2577f4e487b7100000000000000000000000000000000000000000000000000000000600052603260045260246000fd5b602002602001018f8b81518110611e22577f4e487b7100000000000000000000000000000000000000000000000000000000600052603260045260246000fd5b602002602001018f8c81518110611e62577f4e487b7100000000000000000000000000000000000000000000000000000000600052603260045260246000fd5b6020026020010186151515158152508681525086815250868152508673ffffffffffffffffffffffffffffffffffffffff1673ffffffffffffffffffffffffffffffffffffffff168152508673ffffffffffffffffffffffffffffffffffffffff1673ffffffffffffffffffffffffffffffffffffffff168152505050505050508080611eee9061288a565b915050611aa8565b505b5b50505092959891949750929550565b60008054906101000a900473ffffffffffffffffffffffffffffffffffffffff1681565b6000611f3f611f3a846125f2565b6125cd565b90508083825260208201905082856020860282011115611f5e57600080fd5b60005b85811015611f8e5781611f748882612001565b845260208401935060208301925050600181019050611f61565b5050509392505050565b600081359050611fa7816129a2565b92915050565b600081519050611fbc816129a2565b92915050565b600082601f830112611fd357600080fd5b8151611fe3848260208601611f2c565b91505092915050565b600081519050611ffb816129b9565b92915050565b600081519050612010816129d0565b92915050565b600081359050612025816129e7565b92915050565b60008151905061203a816129e7565b92915050565b600080600080600080600060e0888a03121561205b57600080fd5b60006120698a828b01611fad565b975050602061207a8a828b01611fad565b965050604061208b8a828b01611fad565b955050606061209c8a828b0161202b565b94505060806120ad8a828b0161202b565b93505060a06120be8a828b0161202b565b92505060c06120cf8a828b01611fec565b91505092959891949750929550565b600080600080608085870312156120f457600080fd5b600061210287828801611f98565b945050602061211387828801611f98565b935050604061212487828801612016565b925050606061213587828801612016565b91505092959194509250565b60006020828403121561215357600080fd5b600082015167ffffffffffffffff81111561216d57600080fd5b61217984828501611fc2565b91505092915050565b60006020828403121561219457600080fd5b60006121a28482850161202b565b91505092915050565b600080604083850312156121be57600080fd5b60006121cc85828601612016565b92505060206121dd85828601612016565b9150509250929050565b60006121f38383612247565b60208301905092915050565b600061220b83836123dd565b60208301905092915050565b600061222383836123ec565b60208301905092915050565b600061223b8383612419565b60208301905092915050565b612250816127e3565b82525050565b61225f816127e3565b82525050565b60006122708261265e565b61227a81856126be565b93506122858361261e565b8060005b838110156122b657815161229d88826121e7565b97506122a88361268a565b925050600181019050612289565b5085935050505092915050565b60006122ce82612669565b6122d881856126cf565b93506122e38361262e565b8060005b838110156123145781516122fb88826121ff565b975061230683612697565b9250506001810190506122e7565b5085935050505092915050565b600061232c82612674565b61233681856126e0565b93506123418361263e565b8060005b838110156123725781516123598882612217565b9750612364836126a4565b925050600181019050612345565b5085935050505092915050565b600061238a8261267f565b61239481856126f1565b935061239f8361264e565b8060005b838110156123d05781516123b7888261222f565b97506123c2836126b1565b9250506001810190506123a3565b5085935050505092915050565b6123e6816127f5565b82525050565b6123f581612801565b82525050565b61240481612801565b82525050565b61241381612835565b82525050565b6124228161282b565b82525050565b600060208201905061243d6000830184612256565b92915050565b60006040820190506124586000830185612256565b6124656020830184612256565b9392505050565b600060e0820190508181036000830152612486818a612321565b9050818103602083015261249a8189612265565b905081810360408301526124ae8188612265565b905081810360608301526124c2818761237f565b905081810360808301526124d6818661237f565b905081810360a08301526124ea818561237f565b905081810360c08301526124fe81846122c3565b905098975050505050505050565b600060c08201905081810360008301526125268189612321565b9050818103602083015261253a8188612265565b9050818103604083015261254e818761237f565b90508181036060830152612562818661237f565b90508181036080830152612576818561237f565b905081810360a083015261258a81846122c3565b9050979650505050505050565b60006020820190506125ac60008301846123fb565b92915050565b60006020820190506125c7600083018461240a565b92915050565b60006125d76125e8565b90506125e38282612859565b919050565b6000604051905090565b600067ffffffffffffffff82111561260d5761260c612962565b5b602082029050602081019050919050565b6000819050602082019050919050565b6000819050602082019050919050565b6000819050602082019050919050565b6000819050602082019050919050565b600081519050919050565b600081519050919050565b600081519050919050565b600081519050919050565b6000602082019050919050565b6000602082019050919050565b6000602082019050919050565b6000602082019050919050565b600082825260208201905092915050565b600082825260208201905092915050565b600082825260208201905092915050565b600082825260208201905092915050565b600061270d8261282b565b91506127188361282b565b9250827fffffffffffffffffffffffffffffffffffffffffffffffffffffffffffffffff0382111561274d5761274c612904565b5b828201905092915050565b60006127638261282b565b915061276e8361282b565b92508261277e5761277d612933565b5b828204905092915050565b60006127948261282b565b915061279f8361282b565b9250817fffffffffffffffffffffffffffffffffffffffffffffffffffffffffffffffff04831182151516156127d8576127d7612904565b5b828202905092915050565b60006127ee8261280b565b9050919050565b60008115159050919050565b6000819050919050565b600073ffffffffffffffffffffffffffffffffffffffff82169050919050565b6000819050919050565b600061284082612847565b9050919050565b60006128528261280b565b9050919050565b61286282612991565b810181811067ffffffffffffffff8211171561288157612880612962565b5b80604052505050565b60006128958261282b565b91507fffffffffffffffffffffffffffffffffffffffffffffffffffffffffffffffff8214156128c8576128c7612904565b5b600182019050919050565b60006128de8261282b565b91506128e98361282b565b9250826128f9576128f8612933565b5b828206905092915050565b7f4e487b7100000000000000000000000000000000000000000000000000000000600052601160045260246000fd5b7f4e487b7100000000000000000000000000000000000000000000000000000000600052601260045260246000fd5b7f4e487b7100000000000000000000000000000000000000000000000000000000600052604160045260246000fd5b6000601f19601f8301169050919050565b6129ab816127e3565b81146129b657600080fd5b50565b6129c2816127f5565b81146129cd57600080fd5b50565b6129d981612801565b81146129e457600080fd5b50565b6129f08161282b565b81146129fb57600080fd5b5056fea264697066735822122030b92f0e276cbcb677cfaf292668c8b975e41f16b1c4596ac6e5098c4e0ce0d764736f6c63430008030033",
  "linkReferences": {},
  "deployedLinkReferences": {}
}