{
  "_format": "hh-sol-artifact-1",
  "contractName": "FindOrderBook",
  "sourceName": "contracts/FindOrderbook.sol",
  "abi": [
    {
      "inputs": [
        {
          "internalType": "address",
          "name": "_exchange",
          "type": "address"
        }
      ],
      "stateMutability": "nonpayable",
      "type": "constructor"
    },
    {
      "inputs": [
        {
          "internalType": "bytes32",
          "name": "c__0x48ef18af",
          "type": "bytes32"
        }
      ],
      "name": "c_0x48ef18af",
      "outputs": [],
      "stateMutability": "pure",
      "type": "function"
    },
    {
      "inputs": [],
      "name": "ex",
      "outputs": [
        {
          "internalType": "contract OBEX",
          "name": "",
          "type": "address"
        }
      ],
      "stateMutability": "view",
      "type": "function"
    },
    {
      "inputs": [
        {
          "internalType": "uint256",
          "name": "_page",
          "type": "uint256"
        },
        {
          "internalType": "uint256",
          "name": "_limit",
          "type": "uint256"
        }
      ],
      "name": "myOrder",
      "outputs": [
        {
          "internalType": "bytes32[]",
          "name": "orderIds",
          "type": "bytes32[]"
        },
        {
          "internalType": "address[]",
          "name": "tokenFromMaker",
          "type": "address[]"
        },
        {
          "internalType": "address[]",
          "name": "tokenFromTaker",
          "type": "address[]"
        },
        {
          "internalType": "uint256[]",
          "name": "amountFromMaker",
          "type": "uint256[]"
        },
        {
          "internalType": "uint256[]",
          "name": "amountTokens",
          "type": "uint256[]"
        },
        {
          "internalType": "uint256[]",
          "name": "amountSold",
          "type": "uint256[]"
        },
        {
          "internalType": "bool[]",
          "name": "isEnd",
          "type": "bool[]"
        }
      ],
      "stateMutability": "view",
      "type": "function"
    },
    {
      "inputs": [
        {
          "internalType": "address",
          "name": "_tokenA",
          "type": "address"
        },
        {
          "internalType": "address",
          "name": "_tokenB",
          "type": "address"
        },
        {
          "internalType": "uint256",
          "name": "_page",
          "type": "uint256"
        },
        {
          "internalType": "uint256",
          "name": "_limit",
          "type": "uint256"
        }
      ],
      "name": "orderBook",
      "outputs": [
        {
          "internalType": "bytes32[]",
          "name": "orderIds",
          "type": "bytes32[]"
        },
        {
          "internalType": "address[]",
          "name": "maker",
          "type": "address[]"
        },
        {
          "internalType": "uint256[]",
          "name": "amountFromMaker",
          "type": "uint256[]"
        },
        {
          "internalType": "uint256[]",
          "name": "amountTokens",
          "type": "uint256[]"
        },
        {
          "internalType": "uint256[]",
          "name": "amountSold",
          "type": "uint256[]"
        },
        {
          "internalType": "bool[]",
          "name": "isEnd",
          "type": "bool[]"
        }
      ],
      "stateMutability": "view",
      "type": "function"
    }
  ],
  "bytecode": "0x60806040523480156200001157600080fd5b5060405162003ffc38038062003ffc833981810160405281019062000037919062000134565b6200006b7fb506b6e3ee6ff5812e4a98b2a93725009d498389a84f9f60a83ac1f4b68c73cf60001b6200011a60201b60201c565b6200009f7fea6cd97492fa24e31021326e675f3dbf3ddad5b8ca306edeb6be085ed07a041860001b6200011a60201b60201c565b620000d37f604fc3cddd6b3cfe8fc2e83dc7d2630fc000cfaa40717a325b0730d45aca3a0360001b6200011a60201b60201c565b806000806101000a81548173ffffffffffffffffffffffffffffffffffffffff021916908373ffffffffffffffffffffffffffffffffffffffff16021790555050620001ae565b50565b6000815190506200012e8162000194565b92915050565b6000602082840312156200014757600080fd5b600062000157848285016200011d565b91505092915050565b60006200016d8262000174565b9050919050565b600073ffffffffffffffffffffffffffffffffffffffff82169050919050565b6200019f8162000160565b8114620001ab57600080fd5b50565b613e3e80620001be6000396000f3fe608060405234801561001057600080fd5b506004361061004c5760003560e01c806315e14ac914610051578063dab277fa14610086578063e1c34549146100bc578063fb9c9259146100da575b600080fd5b61006b600480360381019061006691906134bf565b6100f6565b60405161007d96959493929190613916565b60405180910390f35b6100a0600480360381019061009b91906135b5565b6118b0565b6040516100b39796959493929190613876565b60405180910390f35b6100c46132d1565b6040516100d191906139bc565b60405180910390f35b6100f460048036038101906100ef9190613563565b6132f5565b005b60608060608060608061012b7f372a356e7723916caafb24c159ab383b2bc2ff04971839ae0fc1ac28b0eb4fb160001b6132f5565b6101577f9c85679add15eeb6784d7405e3e88f7f522dd162f76c57a6a823c6f0cad7879860001b6132f5565b6101837f1b72179cbc2af2c037216ba1ced3ffe6ab9eb1498d488818a0f616cb066f6a0760001b6132f5565b6101af7f403880867de2af858aa36bb011df92af338175eb63fb96ff3bb7dd3ad9c90fcc60001b6132f5565b600187116101bc57600080fd5b6101e87fa85d2d4eb34baa4f91c8ebf32e9e213d55458bba00f80b2d4c893f6e81239be860001b6132f5565b6102147fd1b663716f51dc852519a1efc6947532b60840daaa1b62ea8d26280fda50f51e60001b6132f5565b6102407f856beb39dc8055144f20dc162e84ecde935ccee64d5e662a816864ede5422dab60001b6132f5565b60008060009054906101000a900473ffffffffffffffffffffffffffffffffffffffff1673ffffffffffffffffffffffffffffffffffffffff1663fd437f048c8c6040518363ffffffff1660e01b815260040161029e92919061384d565b60206040518083038186803b1580156102b657600080fd5b505afa1580156102ca573d6000803e3d6000fd5b505050506040513d601f19601f820116820180604052508101906102ee919061358c565b905061031c7f2b840b33ae7d85167d6b9d920f9eef8add30916cca982deb28453778500699df60001b6132f5565b6103487f83decc6320995830ef69b5b587b5e8322f81f1add06e7cdb005e141e21208db760001b6132f5565b600088826103569190613b62565b90506103847f95866c9d474c8f38514075dab6b95ec0ea0294fc07b755feaa672e0a2a4555f160001b6132f5565b6103b07f02a3f6f5d7bfef0e9c61c6390155ee9dfd8f9fb740d46848d556cb8cf98c888860001b6132f5565b600089836103be9190613cdd565b90506103ec7fa55dcfa1ac78be92a52b40881c3509739afcab6af8f788a21819c9f4797a108060001b6132f5565b6104187ff5fe3e85996f04a2a690a7f5de2827c44b8198e4e142cb411b1e6327ef2689f760001b6132f5565b818b1015610e055761044c7f0e5e80aeea6b8d81e78331ad242930212dc4c3c4094ff368582ac0c37e6fd30d60001b6132f5565b6104787fb5905aa9b9a847273fd492e57dbc6c429bf419f0d1bfc9060b46eda82e3e38f160001b6132f5565b6104a47f9dce6cf6bd419557defe4ae77e2bc2f2430e93adf831f4078baf2ef0caf986dd60001b6132f5565b8967ffffffffffffffff8111156104e4577f4e487b7100000000000000000000000000000000000000000000000000000000600052604160045260246000fd5b6040519080825280602002602001820160405280156105125781602001602082028036833780820191505090505b5098506105417f75df01d09093bdaec50985d530c0486c20fb6eda61a38147af991834ff3105d860001b6132f5565b61056d7f57d7b8da2e2e1252148f10be04c40c060129b5e4920fbf6226eab69a128a68f960001b6132f5565b8967ffffffffffffffff8111156105ad577f4e487b7100000000000000000000000000000000000000000000000000000000600052604160045260246000fd5b6040519080825280602002602001820160405280156105db5781602001602082028036833780820191505090505b50975061060a7fa5c7ba1ec9e450fd12e67356752b88b5fc46ca85e8063adad1fc91af979f04af60001b6132f5565b6106367febd5f9777fa6514651da85941156e0f9338dede3613074d29a6a739c66a499ed60001b6132f5565b8967ffffffffffffffff811115610676577f4e487b7100000000000000000000000000000000000000000000000000000000600052604160045260246000fd5b6040519080825280602002602001820160405280156106a45781602001602082028036833780820191505090505b5096506106d37f88d2cd57b7e343625ae0a1ec85690119b125a6f449803cd68e72846e7cead28d60001b6132f5565b6106ff7f22fa02bf61f2906026523ded9da3a01bfe25eabf227817b48cfc73e1bfdde61860001b6132f5565b8967ffffffffffffffff81111561073f577f4e487b7100000000000000000000000000000000000000000000000000000000600052604160045260246000fd5b60405190808252806020026020018201604052801561076d5781602001602082028036833780820191505090505b50955061079c7f0bdc1808316d3e051263592477d403dc3cc305a0270033370fc5aae1b093e1ab60001b6132f5565b6107c87f9ba4accc431de07a183b577e16b1942f67ccf55b4e6f70f110701522df737c8c60001b6132f5565b8967ffffffffffffffff811115610808577f4e487b7100000000000000000000000000000000000000000000000000000000600052604160045260246000fd5b6040519080825280602002602001820160405280156108365781602001602082028036833780820191505090505b5094506108657f878b9c0996bec3b9bc7f96632afcb0aada85414d700b60aed8b8b5a816f7af1960001b6132f5565b6108917f3917e0c2555043382abb89e4f68a206f06dd7e9056b3ab9d9382f4f92d097a2060001b6132f5565b8967ffffffffffffffff8111156108d1577f4e487b7100000000000000000000000000000000000000000000000000000000600052604160045260246000fd5b6040519080825280602002602001820160405280156108ff5781602001602082028036833780820191505090505b50935061092e7fca887ea5c6fc8108f96a1b724042e2677c5fb1b9de5efecf5e07b6ed13ba74af60001b6132f5565b61095a7fa24702a7c8c1c5e0017aee2a951b339afa9f73869a72baf76f5f09f9bb2522da60001b6132f5565b60008a8c6109689190613b93565b90505b8a60018d6109799190613b0c565b6109839190613b93565b811015610dff576109b67f2637bedb51b8aa592f329fb03b998255c139360d35d7135e3eeb680f2a9062d560001b6132f5565b6109e27f16b8b1801e8ee6c734e715ec046249d13e3fb2e83a87d07aab1d45a3993e4d0660001b6132f5565b60008054906101000a900473ffffffffffffffffffffffffffffffffffffffff1673ffffffffffffffffffffffffffffffffffffffff166325792a4d8f8f6040518363ffffffff1660e01b8152600401610a3d92919061384d565b60006040518083038186803b158015610a5557600080fd5b505afa158015610a69573d6000803e3d6000fd5b505050506040513d6000823e3d601f19601f82011682018060405250810190610a929190613522565b8181518110610aca577f4e487b7100000000000000000000000000000000000000000000000000000000600052603260045260246000fd5b60200260200101518a8281518110610b0b577f4e487b7100000000000000000000000000000000000000000000000000000000600052603260045260246000fd5b602002602001018181525050610b437fc10c08db002771b6e3a6066a74cc6380da50e9b60e74debf5905b01a6544726a60001b6132f5565b610b6f7fd58dfd81e60318244861f3da6cf5a7bec4236013eceda5a5cec24947c40d813b60001b6132f5565b60008054906101000a900473ffffffffffffffffffffffffffffffffffffffff1673ffffffffffffffffffffffffffffffffffffffff16639c3f1e908b8381518110610be4577f4e487b7100000000000000000000000000000000000000000000000000000000600052603260045260246000fd5b60200260200101516040518263ffffffff1660e01b8152600401610c0891906139a1565b60e06040518083038186803b158015610c2057600080fd5b505afa158015610c34573d6000803e3d6000fd5b505050506040513d601f19601f82011682018060405250810190610c589190613421565b90919293945090919293508d8681518110610c9c577f4e487b7100000000000000000000000000000000000000000000000000000000600052603260045260246000fd5b602002602001018d8781518110610cdc577f4e487b7100000000000000000000000000000000000000000000000000000000600052603260045260246000fd5b602002602001018d8881518110610d1c577f4e487b7100000000000000000000000000000000000000000000000000000000600052603260045260246000fd5b602002602001018d8981518110610d5c577f4e487b7100000000000000000000000000000000000000000000000000000000600052603260045260246000fd5b602002602001018d8a81518110610d9c577f4e487b7100000000000000000000000000000000000000000000000000000000600052603260045260246000fd5b6020026020010185151515158152508581525085815250858152508573ffffffffffffffffffffffffffffffffffffffff1673ffffffffffffffffffffffffffffffffffffffff1681525050505050508080610df790613c94565b91505061096b565b506118a0565b610e317fa5cad65eaa52bc7cb8f9033b142ce504731b2ef31386c8b44d2462bd25d24c4660001b6132f5565b610e5d7fc20384795be700cc66ff9c20e6cf92f69e73ba969fa78d7f451313f2cb5a83c660001b6132f5565b610e897f13e83a60768fd8684d50de95bf814e4c261160aa26e36ede73550a12844e1d0f60001b6132f5565b8067ffffffffffffffff811115610ec9577f4e487b7100000000000000000000000000000000000000000000000000000000600052604160045260246000fd5b604051908082528060200260200182016040528015610ef75781602001602082028036833780820191505090505b509850610f267f0d03bb2619f5ef40435fab486cd9f9841328ec967b7ea26c53ab7bc63f9bb85360001b6132f5565b610f527f17585858edfc035bfec974e01e7de8f3006eb063ad178656141557ab09df860d60001b6132f5565b8067ffffffffffffffff811115610f92577f4e487b7100000000000000000000000000000000000000000000000000000000600052604160045260246000fd5b604051908082528060200260200182016040528015610fc05781602001602082028036833780820191505090505b509750610fef7f99e7b74039dab9aaaff073a0fb1c8d0824f66fc478eee6d9ca4c7a2ce99cff1a60001b6132f5565b61101b7fd2138ab45b75a5e69fd0b0bbcb9e9a72086bfdddfc15c2c182ab6e271b605bec60001b6132f5565b8067ffffffffffffffff81111561105b577f4e487b7100000000000000000000000000000000000000000000000000000000600052604160045260246000fd5b6040519080825280602002602001820160405280156110895781602001602082028036833780820191505090505b5096506110b87f394902b222cf109c0b3f16c52b0fc39d0bfce8e4a2cd700ea30f0cc42c88fae960001b6132f5565b6110e47f1f4f32a1ebc30c1e5fcb84e1e5efa224338643e2b06075d1ec120b65c4a9275d60001b6132f5565b8067ffffffffffffffff811115611124577f4e487b7100000000000000000000000000000000000000000000000000000000600052604160045260246000fd5b6040519080825280602002602001820160405280156111525781602001602082028036833780820191505090505b5095506111817f1658ab226f46452cb59df1fc601099b769bfc14b85d820c64e2fb6025434195a60001b6132f5565b6111ad7f7e6e22b98348a86d98b1ee80564d7940ada35327b68cecf982afac591a69246860001b6132f5565b8067ffffffffffffffff8111156111ed577f4e487b7100000000000000000000000000000000000000000000000000000000600052604160045260246000fd5b60405190808252806020026020018201604052801561121b5781602001602082028036833780820191505090505b50945061124a7f1302059132d34162e9b4fe70edde207f3280d71995818676b5e49b2afaa3378d60001b6132f5565b6112767fa5fec1a58c8265c5631dbc9fb191055bb042b57894f6d4d59dc6495eae6fbd4160001b6132f5565b8067ffffffffffffffff8111156112b6577f4e487b7100000000000000000000000000000000000000000000000000000000600052604160045260246000fd5b6040519080825280602002602001820160405280156112e45781602001602082028036833780820191505090505b5093506113137fb8ff0d8508c9b878d30f72a8216bdd9f711b106c08933bc2f882bb8992fbb31760001b6132f5565b61133f7fa17d8892559924f9f9da6ef04f1400edc09ea21c019d828e8849e0318be3e2b160001b6132f5565b898b61134b9190613b93565b8311156118725761137e7fcd4660064132871817369cbfc502a99290325f8e6330270a23fdde56567cc0b660001b6132f5565b6113aa7f78ab4ee69ea01e8f3c4f25548ed50f3e0e762decefca757a633e1a17e389396060001b6132f5565b6113d67f68821bb26c90b6713a44022ba11b5c76161cf03180cbb24e412a12577a1f53c160001b6132f5565b60005b8181101561186c5761140d7fb4d3037e6b59a2613b78d7bf03ef3b59922c097ced46c0d61c26d6af3037691660001b6132f5565b6114397fb368d65e3a05e121292e507d494dc31de7c002edcb3fc73320ff7b893b7be46460001b6132f5565b60008054906101000a900473ffffffffffffffffffffffffffffffffffffffff1673ffffffffffffffffffffffffffffffffffffffff166325792a4d8f8f6040518363ffffffff1660e01b815260040161149492919061384d565b60006040518083038186803b1580156114ac57600080fd5b505afa1580156114c0573d6000803e3d6000fd5b505050506040513d6000823e3d601f19601f820116820180604052508101906114e99190613522565b818c8e6114f69190613b93565b6115009190613b0c565b81518110611537577f4e487b7100000000000000000000000000000000000000000000000000000000600052603260045260246000fd5b60200260200101518a8281518110611578577f4e487b7100000000000000000000000000000000000000000000000000000000600052603260045260246000fd5b6020026020010181815250506115b07fae1e79681d2e1eaf23ac53f9960f46ed67236c688805ab0637e8820256cb2ed260001b6132f5565b6115dc7f9c86e0d2f9893e4e3a6673d0513303ae129613c17d1c037ba6327a70b81c71b160001b6132f5565b60008054906101000a900473ffffffffffffffffffffffffffffffffffffffff1673ffffffffffffffffffffffffffffffffffffffff16639c3f1e908b8381518110611651577f4e487b7100000000000000000000000000000000000000000000000000000000600052603260045260246000fd5b60200260200101516040518263ffffffff1660e01b815260040161167591906139a1565b60e06040518083038186803b15801561168d57600080fd5b505afa1580156116a1573d6000803e3d6000fd5b505050506040513d601f19601f820116820180604052508101906116c59190613421565b90919293945090919293508d8681518110611709577f4e487b7100000000000000000000000000000000000000000000000000000000600052603260045260246000fd5b602002602001018d8781518110611749577f4e487b7100000000000000000000000000000000000000000000000000000000600052603260045260246000fd5b602002602001018d8881518110611789577f4e487b7100000000000000000000000000000000000000000000000000000000600052603260045260246000fd5b602002602001018d89815181106117c9577f4e487b7100000000000000000000000000000000000000000000000000000000600052603260045260246000fd5b602002602001018d8a81518110611809577f4e487b7100000000000000000000000000000000000000000000000000000000600052603260045260246000fd5b6020026020010185151515158152508581525085815250858152508573ffffffffffffffffffffffffffffffffffffffff1673ffffffffffffffffffffffffffffffffffffffff168152505050505050808061186490613c94565b9150506113d9565b5061189f565b61189e7f37527a3dd85c5bf3df77f26cc836afd95a54994c1a1b4de972fc53568968b38f60001b6132f5565b5b5b5050509499939850945094509450565b60608060608060608060606118e77f300bc00617c45dd3f95775cec41f182867e7ccb3e1e1a91d4badc7c33a704bd560001b6132f5565b6119137f1a4cdac7478d6bc4005569c1e87b77a29b92e6b3ed467f823fe595c7f1bc2e6260001b6132f5565b61193f7f19afa3b51c3613608f07671c50e35cafb99dd7cb49303123b911b861c63a2b1760001b6132f5565b61196b7f50f1fec19e257dc77093feca99791602842115dd7c6c595e5a393fd611c0c4c060001b6132f5565b6001881161197857600080fd5b6119a47f96d3dcf9376d357593838b621254a9b8b2b401b5765de2a3c6fcc8b1556bc8a760001b6132f5565b6119d07fcc7bd57697efaee948170133311fa389437f77bf17d634f78c013f4f5e13898460001b6132f5565b6119fc7f1936205242250c90ab66ef2c3df408c080cbb0ea8b035c6187a44d752868303e60001b6132f5565b60008060009054906101000a900473ffffffffffffffffffffffffffffffffffffffff1673ffffffffffffffffffffffffffffffffffffffff16630b7034a5336040518263ffffffff1660e01b8152600401611a589190613832565b60206040518083038186803b158015611a7057600080fd5b505afa158015611a84573d6000803e3d6000fd5b505050506040513d601f19601f82011682018060405250810190611aa8919061358c565b9050611ad67fb7164908458d7e2fe13466b5e62f35d55a7826366f7c7829d4c2e845458632d360001b6132f5565b611b027f6f044b117fe0970041503c7df2e0be41347a2509b08f76e18cf1f911a9da787160001b6132f5565b60008982611b109190613b62565b9050611b3e7ff26f3686ad968d7e6a5e9a67733ab3b5a10b1a7d873d55a55cc9a04c6937a5ed60001b6132f5565b611b6a7f4c604d54d295b0b248430b9a8e5da823510327db85f0ba0a6bb3cb56de5adebd60001b6132f5565b60008a83611b789190613cdd565b9050611ba67f1a3ab1b70f458991da0ae76b4e69f341dc518c5ebaa64a191482b3787f88967f60001b6132f5565b611bd27f971e388098a0911014027b378fcea3cba4f4edca4f457872776326810604e14460001b6132f5565b818c10156126f357611c067f8077f1938fcebe00a4cb07eecd198665b3d1039f0b3159ba273006fb149979e560001b6132f5565b611c327f35bb16ebc2fa1ac19b6c1563f71ac696bcce194de25f3e939e1fb93feeccd72a60001b6132f5565b611c5e7fe30364a0a4e96bf89850e24ec1bc3af53c38d156fb9dccc4c785ee3b97397d1860001b6132f5565b8a67ffffffffffffffff811115611c9e577f4e487b7100000000000000000000000000000000000000000000000000000000600052604160045260246000fd5b604051908082528060200260200182016040528015611ccc5781602001602082028036833780820191505090505b509950611cfb7fedaa3f641156771921a4103085d8e0de074ac35e8214aeeaae1d1be8d2631f2060001b6132f5565b611d277f1065b79e3489b58abd1833f18521cfed07796641de55d540b14f225195b1dbb360001b6132f5565b8a67ffffffffffffffff811115611d67577f4e487b7100000000000000000000000000000000000000000000000000000000600052604160045260246000fd5b604051908082528060200260200182016040528015611d955781602001602082028036833780820191505090505b509850611dc47f47303f08f3b9a20984390f55f999e1d92aaef8340d654800c7683a492d4ab22b60001b6132f5565b611df07f231b3153f0ce85c0f460fc95937d5efbd2b02ae52f2b7c96205c9c812e08ff5760001b6132f5565b8a67ffffffffffffffff811115611e30577f4e487b7100000000000000000000000000000000000000000000000000000000600052604160045260246000fd5b604051908082528060200260200182016040528015611e5e5781602001602082028036833780820191505090505b509750611e8d7fd82c972ec5ebcc5c7be2ba8c816067e63e2c98b4ca1ae6cc7bdf62c3c743ef4f60001b6132f5565b611eb97f5b2ffe10db41d860e9cc7857a5a3728aa165fe6619647c34e60831fd579b538860001b6132f5565b8a67ffffffffffffffff811115611ef9577f4e487b7100000000000000000000000000000000000000000000000000000000600052604160045260246000fd5b604051908082528060200260200182016040528015611f275781602001602082028036833780820191505090505b509650611f567f292e53d7497db8274078ce26977c10e64a51d7c8e70a8a48e68f2b6dfad2b8bc60001b6132f5565b611f827f877639ce7991bdea3644d3d78f3de5986ebb2d0c596bb5de7ef98dcb98205adf60001b6132f5565b8a67ffffffffffffffff811115611fc2577f4e487b7100000000000000000000000000000000000000000000000000000000600052604160045260246000fd5b604051908082528060200260200182016040528015611ff05781602001602082028036833780820191505090505b50955061201f7f374c1926807ac9a56619b064d258d8269558a15963b7f9595a3282aa98019a2460001b6132f5565b61204b7fe34966a4d43f7458c549374ed77ed18f15138b14be22cd3563b9f3968dd1f5b760001b6132f5565b8a67ffffffffffffffff81111561208b577f4e487b7100000000000000000000000000000000000000000000000000000000600052604160045260246000fd5b6040519080825280602002602001820160405280156120b95781602001602082028036833780820191505090505b5094506120e87fbc7bd9defa31ec0b0afddd26fa9569bdff8847d4eb62e2f011e0b1fff3c3caaf60001b6132f5565b6121147f4130a73f11094a46ad1106b3ff9a98540b73cde42dcc224e9f3dc901d137daed60001b6132f5565b8a67ffffffffffffffff811115612154577f4e487b7100000000000000000000000000000000000000000000000000000000600052604160045260246000fd5b6040519080825280602002602001820160405280156121825781602001602082028036833780820191505090505b5093506121b17fc0690279b7c0854dd7b788bd352523dd7cde929841294dcf1ae501e0ebf5f3ea60001b6132f5565b6121dd7ff7c6dfb18e2e2d378a6242be744892bc8bd54eb5e7b3a131ac06b3414a0b414060001b6132f5565b60008b8d6121eb9190613b93565b90505b8b60018e6121fc9190613b0c565b6122069190613b93565b8110156126ed576122397f2c4942d9e90e2b2b528d11cff2703b597f783510731831ff184882c4db0ff0db60001b6132f5565b6122657f38efb16abc2ac665ce00af2326ce004332deb766525901a794a7f8ef70dc900f60001b6132f5565b60008054906101000a900473ffffffffffffffffffffffffffffffffffffffff1673ffffffffffffffffffffffffffffffffffffffff1663eaba01f0336040518263ffffffff1660e01b81526004016122be9190613832565b60006040518083038186803b1580156122d657600080fd5b505afa1580156122ea573d6000803e3d6000fd5b505050506040513d6000823e3d601f19601f820116820180604052508101906123139190613522565b818151811061234b577f4e487b7100000000000000000000000000000000000000000000000000000000600052603260045260246000fd5b60200260200101518b828151811061238c577f4e487b7100000000000000000000000000000000000000000000000000000000600052603260045260246000fd5b6020026020010181815250506123c47fa852ca557c1bf1cb2e7142c902c5a00c6d12b767190734e708ca6bc8ed37f86760001b6132f5565b6123f07f85b8b37df082e499ae56eaedffc24f988122dbf99c1a7d44aef62a1c08ca7da760001b6132f5565b60008054906101000a900473ffffffffffffffffffffffffffffffffffffffff1673ffffffffffffffffffffffffffffffffffffffff16639c3f1e908c8381518110612465577f4e487b7100000000000000000000000000000000000000000000000000000000600052603260045260246000fd5b60200260200101516040518263ffffffff1660e01b815260040161248991906139a1565b60e06040518083038186803b1580156124a157600080fd5b505afa1580156124b5573d6000803e3d6000fd5b505050506040513d601f19601f820116820180604052508101906124d99190613421565b909192939495508f8781518110612519577f4e487b7100000000000000000000000000000000000000000000000000000000600052603260045260246000fd5b602002602001018f8881518110612559577f4e487b7100000000000000000000000000000000000000000000000000000000600052603260045260246000fd5b602002602001018f8981518110612599577f4e487b7100000000000000000000000000000000000000000000000000000000600052603260045260246000fd5b602002602001018f8a815181106125d9577f4e487b7100000000000000000000000000000000000000000000000000000000600052603260045260246000fd5b602002602001018f8b81518110612619577f4e487b7100000000000000000000000000000000000000000000000000000000600052603260045260246000fd5b602002602001018f8c81518110612659577f4e487b7100000000000000000000000000000000000000000000000000000000600052603260045260246000fd5b6020026020010186151515158152508681525086815250868152508673ffffffffffffffffffffffffffffffffffffffff1673ffffffffffffffffffffffffffffffffffffffff168152508673ffffffffffffffffffffffffffffffffffffffff1673ffffffffffffffffffffffffffffffffffffffff1681525050505050505080806126e590613c94565b9150506121ee565b506132c2565b61271f7f5d243fd72fc9c5317079bb2c4c8ae4f44a0b1c4db7fbb75a77e41737d21bf53960001b6132f5565b61274b7f1c24734ec1875697a3dd4505df2af8c16e1be76676f7e340eb39683e30faa3e260001b6132f5565b6127777fae2f05d7936ccb36bc52cd74f08a0a1aa28e3dc6f11b6b4d6bf00a12078dab3a60001b6132f5565b8067ffffffffffffffff8111156127b7577f4e487b7100000000000000000000000000000000000000000000000000000000600052604160045260246000fd5b6040519080825280602002602001820160405280156127e55781602001602082028036833780820191505090505b5099506128147ff06e38fff4007f0b8ae513bf2f1eada210668ee51a5405b5ea79b4110fe3615860001b6132f5565b6128407fb7dd28941aff821d23c7203a935071252ad7a0ec605629786c113fd1057aa27a60001b6132f5565b8067ffffffffffffffff811115612880577f4e487b7100000000000000000000000000000000000000000000000000000000600052604160045260246000fd5b6040519080825280602002602001820160405280156128ae5781602001602082028036833780820191505090505b5098506128dd7f0191e54559c08bf6574ff8987e92382b44abb1be7a9acd2770e5e0686216c4df60001b6132f5565b6129097f493011a981f417f48b9dc9a783652ec70fcd1996b168607a27e0628cb8d4ac4e60001b6132f5565b8067ffffffffffffffff811115612949577f4e487b7100000000000000000000000000000000000000000000000000000000600052604160045260246000fd5b6040519080825280602002602001820160405280156129775781602001602082028036833780820191505090505b5097506129a67fbfff1e7a5a81c054e7ef2e36c76e67cd2350de80280e91634a0fdbb93cfce61c60001b6132f5565b6129d27fbca7a7423d11c76624a4aaf7180f2d088931f52ab078750f8734c50ebbc8f95660001b6132f5565b8067ffffffffffffffff811115612a12577f4e487b7100000000000000000000000000000000000000000000000000000000600052604160045260246000fd5b604051908082528060200260200182016040528015612a405781602001602082028036833780820191505090505b509650612a6f7f746043a12544e972c77636dc108d65097a64163e41ed9d7bb0424c24191a87ab60001b6132f5565b612a9b7f49826c6fbbf4fdb77f1dcdd11574e6197cd85e1efe54d8a6ee5e2e925d979e6260001b6132f5565b8067ffffffffffffffff811115612adb577f4e487b7100000000000000000000000000000000000000000000000000000000600052604160045260246000fd5b604051908082528060200260200182016040528015612b095781602001602082028036833780820191505090505b509550612b387f3a2554167fcd442576e292874d71a42e09d2d0c758ba35001f9c5354b792bd0e60001b6132f5565b612b647fccc60d98140abd893ed60760bdaed41fe1d3712219bec11550a68df2fbedaf0d60001b6132f5565b8067ffffffffffffffff811115612ba4577f4e487b7100000000000000000000000000000000000000000000000000000000600052604160045260246000fd5b604051908082528060200260200182016040528015612bd25781602001602082028036833780820191505090505b509450612c017fbbc9c252a2dd22473188027f9dfba23cb7d1ad601812b25693096a6c10df790160001b6132f5565b612c2d7feb36a60d9d328c5282adb5ba3cf1f1b523c94c59e19ee8485b0c0331ee4fde5e60001b6132f5565b8067ffffffffffffffff811115612c6d577f4e487b7100000000000000000000000000000000000000000000000000000000600052604160045260246000fd5b604051908082528060200260200182016040528015612c9b5781602001602082028036833780820191505090505b509350612cca7f77d3cf12845212a5aef9418068f5b8fbd43d70f9420d050dd066be29eb2c963d60001b6132f5565b612cf67f8d121868eef4e2d506448ab65d74e1326b9940aa51aee033c9d80212c583edf060001b6132f5565b8a8c612d029190613b93565b83111561329457612d357fb82a34f5ccff7662a98b343143bdd1bab5a761ac7976e43e66114a39a40a094260001b6132f5565b612d617fb568c0ca34898b2d1f6a848a7905b949e449b47557c34245d89fb3fe6709e5eb60001b6132f5565b612d8d7fa77e235d6e8ce49312c28d11780cd6cb602f2cc732c1ddcf1350bb01f4d6de8360001b6132f5565b60005b8181101561328e57612dc47f40a7e79b221a76402e190eaf0db0c531905419de44769b5d8d62d47853ae8c3160001b6132f5565b612df07f339f40328e20061f27ff3df1e72faaa21ceb595c3a2940426484e53b3cdfd8ca60001b6132f5565b60008054906101000a900473ffffffffffffffffffffffffffffffffffffffff1673ffffffffffffffffffffffffffffffffffffffff1663eaba01f0336040518263ffffffff1660e01b8152600401612e499190613832565b60006040518083038186803b158015612e6157600080fd5b505afa158015612e75573d6000803e3d6000fd5b505050506040513d6000823e3d601f19601f82011682018060405250810190612e9e9190613522565b818d8f612eab9190613b93565b612eb59190613b0c565b81518110612eec577f4e487b7100000000000000000000000000000000000000000000000000000000600052603260045260246000fd5b60200260200101518b8281518110612f2d577f4e487b7100000000000000000000000000000000000000000000000000000000600052603260045260246000fd5b602002602001018181525050612f657f37deabb1648896c85ad52d269430343e1a6451ed3fab828c9c114460c3cc46c160001b6132f5565b612f917ff0be4ec8d10efb437a2b2b07df851697549480fd31cbbe71608351ece07259af60001b6132f5565b60008054906101000a900473ffffffffffffffffffffffffffffffffffffffff1673ffffffffffffffffffffffffffffffffffffffff16639c3f1e908c8381518110613006577f4e487b7100000000000000000000000000000000000000000000000000000000600052603260045260246000fd5b60200260200101516040518263ffffffff1660e01b815260040161302a91906139a1565b60e06040518083038186803b15801561304257600080fd5b505afa158015613056573d6000803e3d6000fd5b505050506040513d601f19601f8201168201806040525081019061307a9190613421565b909192939495508f87815181106130ba577f4e487b7100000000000000000000000000000000000000000000000000000000600052603260045260246000fd5b602002602001018f88815181106130fa577f4e487b7100000000000000000000000000000000000000000000000000000000600052603260045260246000fd5b602002602001018f898151811061313a577f4e487b7100000000000000000000000000000000000000000000000000000000600052603260045260246000fd5b602002602001018f8a8151811061317a577f4e487b7100000000000000000000000000000000000000000000000000000000600052603260045260246000fd5b602002602001018f8b815181106131ba577f4e487b7100000000000000000000000000000000000000000000000000000000600052603260045260246000fd5b602002602001018f8c815181106131fa577f4e487b7100000000000000000000000000000000000000000000000000000000600052603260045260246000fd5b6020026020010186151515158152508681525086815250868152508673ffffffffffffffffffffffffffffffffffffffff1673ffffffffffffffffffffffffffffffffffffffff168152508673ffffffffffffffffffffffffffffffffffffffff1673ffffffffffffffffffffffffffffffffffffffff16815250505050505050808061328690613c94565b915050612d90565b506132c1565b6132c07f97c5d5f7a51c73855ee1c68ac8cdb36b96178fabd0fb539ac60ad24325674f5060001b6132f5565b5b5b50505092959891949750929550565b60008054906101000a900473ffffffffffffffffffffffffffffffffffffffff1681565b50565b600061330b613306846139fc565b6139d7565b9050808382526020820190508285602086028201111561332a57600080fd5b60005b8581101561335a578161334088826133e2565b84526020840193506020830192505060018101905061332d565b5050509392505050565b60008135905061337381613dac565b92915050565b60008151905061338881613dac565b92915050565b600082601f83011261339f57600080fd5b81516133af8482602086016132f8565b91505092915050565b6000815190506133c781613dc3565b92915050565b6000813590506133dc81613dda565b92915050565b6000815190506133f181613dda565b92915050565b60008135905061340681613df1565b92915050565b60008151905061341b81613df1565b92915050565b600080600080600080600060e0888a03121561343c57600080fd5b600061344a8a828b01613379565b975050602061345b8a828b01613379565b965050604061346c8a828b01613379565b955050606061347d8a828b0161340c565b945050608061348e8a828b0161340c565b93505060a061349f8a828b0161340c565b92505060c06134b08a828b016133b8565b91505092959891949750929550565b600080600080608085870312156134d557600080fd5b60006134e387828801613364565b94505060206134f487828801613364565b9350506040613505878288016133f7565b9250506060613516878288016133f7565b91505092959194509250565b60006020828403121561353457600080fd5b600082015167ffffffffffffffff81111561354e57600080fd5b61355a8482850161338e565b91505092915050565b60006020828403121561357557600080fd5b6000613583848285016133cd565b91505092915050565b60006020828403121561359e57600080fd5b60006135ac8482850161340c565b91505092915050565b600080604083850312156135c857600080fd5b60006135d6858286016133f7565b92505060206135e7858286016133f7565b9150509250929050565b60006135fd8383613651565b60208301905092915050565b600061361583836137e7565b60208301905092915050565b600061362d83836137f6565b60208301905092915050565b60006136458383613823565b60208301905092915050565b61365a81613bed565b82525050565b61366981613bed565b82525050565b600061367a82613a68565b6136848185613ac8565b935061368f83613a28565b8060005b838110156136c05781516136a788826135f1565b97506136b283613a94565b925050600181019050613693565b5085935050505092915050565b60006136d882613a73565b6136e28185613ad9565b93506136ed83613a38565b8060005b8381101561371e5781516137058882613609565b975061371083613aa1565b9250506001810190506136f1565b5085935050505092915050565b600061373682613a7e565b6137408185613aea565b935061374b83613a48565b8060005b8381101561377c5781516137638882613621565b975061376e83613aae565b92505060018101905061374f565b5085935050505092915050565b600061379482613a89565b61379e8185613afb565b93506137a983613a58565b8060005b838110156137da5781516137c18882613639565b97506137cc83613abb565b9250506001810190506137ad565b5085935050505092915050565b6137f081613bff565b82525050565b6137ff81613c0b565b82525050565b61380e81613c0b565b82525050565b61381d81613c3f565b82525050565b61382c81613c35565b82525050565b60006020820190506138476000830184613660565b92915050565b60006040820190506138626000830185613660565b61386f6020830184613660565b9392505050565b600060e0820190508181036000830152613890818a61372b565b905081810360208301526138a4818961366f565b905081810360408301526138b8818861366f565b905081810360608301526138cc8187613789565b905081810360808301526138e08186613789565b905081810360a08301526138f48185613789565b905081810360c083015261390881846136cd565b905098975050505050505050565b600060c0820190508181036000830152613930818961372b565b90508181036020830152613944818861366f565b905081810360408301526139588187613789565b9050818103606083015261396c8186613789565b905081810360808301526139808185613789565b905081810360a083015261399481846136cd565b9050979650505050505050565b60006020820190506139b66000830184613805565b92915050565b60006020820190506139d16000830184613814565b92915050565b60006139e16139f2565b90506139ed8282613c63565b919050565b6000604051905090565b600067ffffffffffffffff821115613a1757613a16613d6c565b5b602082029050602081019050919050565b6000819050602082019050919050565b6000819050602082019050919050565b6000819050602082019050919050565b6000819050602082019050919050565b600081519050919050565b600081519050919050565b600081519050919050565b600081519050919050565b6000602082019050919050565b6000602082019050919050565b6000602082019050919050565b6000602082019050919050565b600082825260208201905092915050565b600082825260208201905092915050565b600082825260208201905092915050565b600082825260208201905092915050565b6000613b1782613c35565b9150613b2283613c35565b9250827fffffffffffffffffffffffffffffffffffffffffffffffffffffffffffffffff03821115613b5757613b56613d0e565b5b828201905092915050565b6000613b6d82613c35565b9150613b7883613c35565b925082613b8857613b87613d3d565b5b828204905092915050565b6000613b9e82613c35565b9150613ba983613c35565b9250817fffffffffffffffffffffffffffffffffffffffffffffffffffffffffffffffff0483118215151615613be257613be1613d0e565b5b828202905092915050565b6000613bf882613c15565b9050919050565b60008115159050919050565b6000819050919050565b600073ffffffffffffffffffffffffffffffffffffffff82169050919050565b6000819050919050565b6000613c4a82613c51565b9050919050565b6000613c5c82613c15565b9050919050565b613c6c82613d9b565b810181811067ffffffffffffffff82111715613c8b57613c8a613d6c565b5b80604052505050565b6000613c9f82613c35565b91507fffffffffffffffffffffffffffffffffffffffffffffffffffffffffffffffff821415613cd257613cd1613d0e565b5b600182019050919050565b6000613ce882613c35565b9150613cf383613c35565b925082613d0357613d02613d3d565b5b828206905092915050565b7f4e487b7100000000000000000000000000000000000000000000000000000000600052601160045260246000fd5b7f4e487b7100000000000000000000000000000000000000000000000000000000600052601260045260246000fd5b7f4e487b7100000000000000000000000000000000000000000000000000000000600052604160045260246000fd5b6000601f19601f8301169050919050565b613db581613bed565b8114613dc057600080fd5b50565b613dcc81613bff565b8114613dd757600080fd5b50565b613de381613c0b565b8114613dee57600080fd5b50565b613dfa81613c35565b8114613e0557600080fd5b5056fea26469706673582212208c9c1247395a594160a191ff9cc93c19aa116d5f8f903ddd61c9ff9d667cf91664736f6c63430008030033",
  "linkReferences": {},
  "deployedLinkReferences": {}
}