{
  "_format": "hh-sol-artifact-1",
  "contractName": "FindOrderBook",
  "sourceName": "contracts/FindOrderbook.sol",
  "abi": [
    {
      "inputs": [
        {
          "internalType": "address",
          "name": "_exchange",
          "type": "address"
        }
      ],
      "stateMutability": "nonpayable",
      "type": "constructor"
    },
    {
      "inputs": [
        {
          "internalType": "bytes32",
          "name": "c__0x77d54211",
          "type": "bytes32"
        }
      ],
      "name": "c_0x77d54211",
      "outputs": [],
      "stateMutability": "pure",
      "type": "function"
    },
    {
      "inputs": [],
      "name": "ex",
      "outputs": [
        {
          "internalType": "contract OBEX",
          "name": "",
          "type": "address"
        }
      ],
      "stateMutability": "view",
      "type": "function"
    },
    {
      "inputs": [
        {
          "internalType": "uint256",
          "name": "_page",
          "type": "uint256"
        },
        {
          "internalType": "uint256",
          "name": "_limit",
          "type": "uint256"
        }
      ],
      "name": "myOrder",
      "outputs": [
        {
          "internalType": "bytes32[]",
          "name": "orderIds",
          "type": "bytes32[]"
        },
        {
          "internalType": "address[]",
          "name": "tokenFromMaker",
          "type": "address[]"
        },
        {
          "internalType": "address[]",
          "name": "tokenFromTaker",
          "type": "address[]"
        },
        {
          "internalType": "uint256[]",
          "name": "amountFromMaker",
          "type": "uint256[]"
        },
        {
          "internalType": "uint256[]",
          "name": "amountTokens",
          "type": "uint256[]"
        },
        {
          "internalType": "uint256[]",
          "name": "amountSold",
          "type": "uint256[]"
        },
        {
          "internalType": "bool[]",
          "name": "isEnd",
          "type": "bool[]"
        }
      ],
      "stateMutability": "view",
      "type": "function"
    },
    {
      "inputs": [
        {
          "internalType": "address",
          "name": "_tokenA",
          "type": "address"
        },
        {
          "internalType": "address",
          "name": "_tokenB",
          "type": "address"
        },
        {
          "internalType": "uint256",
          "name": "_page",
          "type": "uint256"
        },
        {
          "internalType": "uint256",
          "name": "_limit",
          "type": "uint256"
        }
      ],
      "name": "orderBook",
      "outputs": [
        {
          "internalType": "bytes32[]",
          "name": "orderIds",
          "type": "bytes32[]"
        },
        {
          "internalType": "address[]",
          "name": "maker",
          "type": "address[]"
        },
        {
          "internalType": "uint256[]",
          "name": "amountFromMaker",
          "type": "uint256[]"
        },
        {
          "internalType": "uint256[]",
          "name": "amountTokens",
          "type": "uint256[]"
        },
        {
          "internalType": "uint256[]",
          "name": "amountSold",
          "type": "uint256[]"
        },
        {
          "internalType": "bool[]",
          "name": "isEnd",
          "type": "bool[]"
        }
      ],
      "stateMutability": "view",
      "type": "function"
    }
  ],
  "bytecode": "0x60806040523480156200001157600080fd5b5060405162003ffb38038062003ffb833981810160405281019062000037919062000134565b6200006b7f151f134cd792c7d98aa75d4ed9573d0d28106367953bb599d76a9c627af795d460001b6200011a60201b60201c565b6200009f7fcf4422f539713eb01a4bd39cac15f5d5321c871492e43409b98a6fe6138d72f060001b6200011a60201b60201c565b620000d37f2ae56179212669becd41c438663f5188377340e3f1f29949e60ec52820f42cda60001b6200011a60201b60201c565b806000806101000a81548173ffffffffffffffffffffffffffffffffffffffff021916908373ffffffffffffffffffffffffffffffffffffffff16021790555050620001ae565b50565b6000815190506200012e8162000194565b92915050565b6000602082840312156200014757600080fd5b600062000157848285016200011d565b91505092915050565b60006200016d8262000174565b9050919050565b600073ffffffffffffffffffffffffffffffffffffffff82169050919050565b6200019f8162000160565b8114620001ab57600080fd5b50565b613e3d80620001be6000396000f3fe608060405234801561001057600080fd5b506004361061004c5760003560e01c80630a50d5a61461005157806315e14ac91461006d578063dab277fa146100a2578063e1c34549146100d8575b600080fd5b61006b60048036038101906100669190613562565b6100f6565b005b610087600480360381019061008291906134be565b6100f9565b60405161009996959493929190613915565b60405180910390f35b6100bc60048036038101906100b791906135b4565b6118b2565b6040516100cf9796959493929190613875565b60405180910390f35b6100e06132d3565b6040516100ed91906139bb565b60405180910390f35b50565b60608060608060608061012e7fb5035c773f410eb0ed2d9cfb9eb01e972521acf8fbbc2bfebfed9325972afb8c60001b6100f6565b61015a7f36e9679cf0fc4627d50b64ba0ced370837d529c4560d5ed82bc87da811cdc68e60001b6100f6565b6101867f148be04a6cec8eba1312e3173019157d044291859a1e0c5cd8d0cf34be67ac6160001b6100f6565b6101b27f35729789acd4a7e0281e479243653d9f6a655911f7b9222b4003367661c6ea8960001b6100f6565b600187116101bf57600080fd5b6101eb7f27dcda7c040be11c997c83d2fe9c38d0f7a8ffa15f090f98efcf03688eba001960001b6100f6565b6102177f83fa56272cc9883edb716484c730eb1da2b9234c3cdaa60f868afeda19acd17860001b6100f6565b6102437f340a486542caac57682f9808ffb9a4bcc08989d7492223e27d0f68a0901b223d60001b6100f6565b60008060009054906101000a900473ffffffffffffffffffffffffffffffffffffffff1673ffffffffffffffffffffffffffffffffffffffff1663fd437f048c8c6040518363ffffffff1660e01b81526004016102a192919061384c565b60206040518083038186803b1580156102b957600080fd5b505afa1580156102cd573d6000803e3d6000fd5b505050506040513d601f19601f820116820180604052508101906102f1919061358b565b905061031f7faa138295521c91d12bd60c50c914e9e6b85e1e264b59ef777dc86c70c0769acc60001b6100f6565b61034b7fb61529cb940a441b34d359c0a81c2265ccd374a9218d4091c95e2054f161b30260001b6100f6565b600088826103599190613b61565b90506103877f11c05abbc269b823a9e06d36a2a8418cd296cd6dd0fdd3e2a6eae3a217e8e68660001b6100f6565b6103b37f0a3fdcb2806545efbdea550791806136c08d635b6ebc145e3aac777c12cc518b60001b6100f6565b600089836103c19190613cdc565b90506103ef7f3e85723851de8107203071d153980be98e2ff34fb1910eac110eb7d7dd13d7f860001b6100f6565b61041b7ff5993d83e5e1b6887402af4bbb705b0989ffee4f7c7409de1331ae9b3378e47160001b6100f6565b818b1015610e085761044f7f8b3d874b4786a2f483bf4654e8b62eacbdd4867d7d1d869bf917001bd8b064f860001b6100f6565b61047b7f27e1e5359b51c2e993e250a31de84572abb5768a81d993f96848fbf316d2d4ba60001b6100f6565b6104a77fec416c720745eb32b6157a0c53e6f3c1514a50b88d0f59467bc11b2c4ff4289360001b6100f6565b8967ffffffffffffffff8111156104e7577f4e487b7100000000000000000000000000000000000000000000000000000000600052604160045260246000fd5b6040519080825280602002602001820160405280156105155781602001602082028036833780820191505090505b5098506105447f10fedbd8208fcbd091737d01eaf285b4171989f6baea180c41d1e0dcbe7ccfc960001b6100f6565b6105707f4413055eb1e544ce2a97a8954d54c1ab0fbc42b6dc8a41370050993bc5b752cf60001b6100f6565b8967ffffffffffffffff8111156105b0577f4e487b7100000000000000000000000000000000000000000000000000000000600052604160045260246000fd5b6040519080825280602002602001820160405280156105de5781602001602082028036833780820191505090505b50975061060d7f221b2ff3142cff1122bf60c3022283ed6efd49e802aa440037d41b46f4dcc4fa60001b6100f6565b6106397fa544057253a69b98d79f06e547b27694d21a1de77846bc9ab52b677f5d60917a60001b6100f6565b8967ffffffffffffffff811115610679577f4e487b7100000000000000000000000000000000000000000000000000000000600052604160045260246000fd5b6040519080825280602002602001820160405280156106a75781602001602082028036833780820191505090505b5096506106d67f964f884675575b6a04be46346ef26cd7acc72d9e278aa7a15639dde5c51e9a7560001b6100f6565b6107027f904106da2a3ccffed40ec113bcc53048c8a8bb6dcc68e453b4f3015802b35bed60001b6100f6565b8967ffffffffffffffff811115610742577f4e487b7100000000000000000000000000000000000000000000000000000000600052604160045260246000fd5b6040519080825280602002602001820160405280156107705781602001602082028036833780820191505090505b50955061079f7ff16906300d76dbe9d065ae293f31cd37e4820eed4781017adda171ffdadf493e60001b6100f6565b6107cb7f4f471542bc0392a59fd10fc322a7609b9862db00247eeaa1b7c0474a21c580fb60001b6100f6565b8967ffffffffffffffff81111561080b577f4e487b7100000000000000000000000000000000000000000000000000000000600052604160045260246000fd5b6040519080825280602002602001820160405280156108395781602001602082028036833780820191505090505b5094506108687fdeb9279b2ede80c7cc16a16abac5655362936009a37c6aa4c83c8254111d146c60001b6100f6565b6108947f7d6b2d09a26b7ef27d08fd3c28b9ca1217274c25d8f365630683c2603a4e5f0a60001b6100f6565b8967ffffffffffffffff8111156108d4577f4e487b7100000000000000000000000000000000000000000000000000000000600052604160045260246000fd5b6040519080825280602002602001820160405280156109025781602001602082028036833780820191505090505b5093506109317f6f33b18533b6659322b632dbdb75c5ee8ddd4e1844cb2b984883f67bdbf27f6a60001b6100f6565b61095d7fd85c1d507bf6a5f4e4df8de70b1237357548cb5f07ca025e93b7c9b85e0a11d260001b6100f6565b60008a8c61096b9190613b92565b90505b8a60018d61097c9190613b0b565b6109869190613b92565b811015610e02576109b97f056053e6d6535c23b07e0e1aaaa6fea092b602c55035fe2db1c8a2d6b13c6d5660001b6100f6565b6109e57fdbedc7993ee718c85dbf9d65a69004d82162034ebd8a5625a0dbce690402e2b460001b6100f6565b60008054906101000a900473ffffffffffffffffffffffffffffffffffffffff1673ffffffffffffffffffffffffffffffffffffffff166325792a4d8f8f6040518363ffffffff1660e01b8152600401610a4092919061384c565b60006040518083038186803b158015610a5857600080fd5b505afa158015610a6c573d6000803e3d6000fd5b505050506040513d6000823e3d601f19601f82011682018060405250810190610a959190613521565b8181518110610acd577f4e487b7100000000000000000000000000000000000000000000000000000000600052603260045260246000fd5b60200260200101518a8281518110610b0e577f4e487b7100000000000000000000000000000000000000000000000000000000600052603260045260246000fd5b602002602001018181525050610b467f9b65c522ce7982d85d4647c653c3498e6eefd010f6a236f502bcdbac9ad4ffc560001b6100f6565b610b727f041c5c07d91ffade625bc6f35b29329b7d73417c643f1fabdee0c1034ba565ee60001b6100f6565b60008054906101000a900473ffffffffffffffffffffffffffffffffffffffff1673ffffffffffffffffffffffffffffffffffffffff16639c3f1e908b8381518110610be7577f4e487b7100000000000000000000000000000000000000000000000000000000600052603260045260246000fd5b60200260200101516040518263ffffffff1660e01b8152600401610c0b91906139a0565b60e06040518083038186803b158015610c2357600080fd5b505afa158015610c37573d6000803e3d6000fd5b505050506040513d601f19601f82011682018060405250810190610c5b9190613420565b90919293945090919293508d8681518110610c9f577f4e487b7100000000000000000000000000000000000000000000000000000000600052603260045260246000fd5b602002602001018d8781518110610cdf577f4e487b7100000000000000000000000000000000000000000000000000000000600052603260045260246000fd5b602002602001018d8881518110610d1f577f4e487b7100000000000000000000000000000000000000000000000000000000600052603260045260246000fd5b602002602001018d8981518110610d5f577f4e487b7100000000000000000000000000000000000000000000000000000000600052603260045260246000fd5b602002602001018d8a81518110610d9f577f4e487b7100000000000000000000000000000000000000000000000000000000600052603260045260246000fd5b6020026020010185151515158152508581525085815250858152508573ffffffffffffffffffffffffffffffffffffffff1673ffffffffffffffffffffffffffffffffffffffff1681525050505050508080610dfa90613c93565b91505061096e565b506118a2565b610e347fdac52e3f0d0e52ea2ebc2b2da00d967c642afaf373dc78349486a82098decf0260001b6100f6565b610e607fe6b533bd8a30449e03e32fe946d472f0754084b964f476e69a27a8100d01140f60001b6100f6565b610e8c7f79adb0c87c261f9c842a333f5a59fc3dca33512737c1db2d9f74bb762dabe97960001b6100f6565b8067ffffffffffffffff811115610ecc577f4e487b7100000000000000000000000000000000000000000000000000000000600052604160045260246000fd5b604051908082528060200260200182016040528015610efa5781602001602082028036833780820191505090505b509850610f297f065396cee9a0af3338daf806a4f59bc4d1c5afbc237b60cb10b3aefc36987d7360001b6100f6565b610f557f319aefc7a30a62ec319c4419d14b9ae39747999d6f621e2fdc67f3aa417ac74060001b6100f6565b8067ffffffffffffffff811115610f95577f4e487b7100000000000000000000000000000000000000000000000000000000600052604160045260246000fd5b604051908082528060200260200182016040528015610fc35781602001602082028036833780820191505090505b509750610ff27ff9705cc59296512c9c6d00ca2eac307b37412673da495285962eadf39aad10d060001b6100f6565b61101e7f7c880dcf93b9f421594524bc46b14c88c93c1c45bd6d42833aa4f34dce1ca60360001b6100f6565b8067ffffffffffffffff81111561105e577f4e487b7100000000000000000000000000000000000000000000000000000000600052604160045260246000fd5b60405190808252806020026020018201604052801561108c5781602001602082028036833780820191505090505b5096506110bb7ff23ffe9817dba935117d42cd7f2fef37ba588e98eaa79395a24736047251a80560001b6100f6565b6110e77f378a45989dbcc97b80c48b551d3ba57c3539cf4f37af21ecd2fb39ee5b5243a660001b6100f6565b8067ffffffffffffffff811115611127577f4e487b7100000000000000000000000000000000000000000000000000000000600052604160045260246000fd5b6040519080825280602002602001820160405280156111555781602001602082028036833780820191505090505b5095506111847faafbff9572540da8dc6e28be1c79671779c34c21456339ba959ec1eebb76bfa660001b6100f6565b6111b07ffe7e6ae22748b677b3b9883abfd268e7ca0b3cda3fd2b9986b39f07ecd7d128b60001b6100f6565b8067ffffffffffffffff8111156111f0577f4e487b7100000000000000000000000000000000000000000000000000000000600052604160045260246000fd5b60405190808252806020026020018201604052801561121e5781602001602082028036833780820191505090505b50945061124c7eead9a9d5ee532f543bb0204cd2c8397389757bc6036f7413f40b22e942fbcc60001b6100f6565b6112787f05a27b049a25e60d63c327c41d305dd33d7d00d2828cc38cf8d5e6083754fc6360001b6100f6565b8067ffffffffffffffff8111156112b8577f4e487b7100000000000000000000000000000000000000000000000000000000600052604160045260246000fd5b6040519080825280602002602001820160405280156112e65781602001602082028036833780820191505090505b5093506113157f4d7119e122bced0d53c449691ed9c5ee9ddfb36708e2867e3babe4918bd817a160001b6100f6565b6113417f52de2cc6e48b184aaae5ee5d90fc5dfbd681a19522a957d1cdc4280e451b0f8260001b6100f6565b898b61134d9190613b92565b831115611874576113807f664e93f4368634d6935c8125dacf31b403faea32e6fec84f302df94276391c9a60001b6100f6565b6113ac7f4432f653fa8e0cb74afa3b84b6c5c770d89d2654ddb074d6198d14856f5c029060001b6100f6565b6113d87f8b7bc44cf00ae990a266e5e533191e51d3daabb5a304cc2f8e9b826315d41ecb60001b6100f6565b60005b8181101561186e5761140f7fad2b485795b876b4de0d7ee3af53d78b567f41962d8beb5185fb4960ed05785260001b6100f6565b61143b7f5b8f9622cb4c3de0dad454993904f3aa12d4e4e71ce1aa42602da563e8237f9f60001b6100f6565b60008054906101000a900473ffffffffffffffffffffffffffffffffffffffff1673ffffffffffffffffffffffffffffffffffffffff166325792a4d8f8f6040518363ffffffff1660e01b815260040161149692919061384c565b60006040518083038186803b1580156114ae57600080fd5b505afa1580156114c2573d6000803e3d6000fd5b505050506040513d6000823e3d601f19601f820116820180604052508101906114eb9190613521565b818c8e6114f89190613b92565b6115029190613b0b565b81518110611539577f4e487b7100000000000000000000000000000000000000000000000000000000600052603260045260246000fd5b60200260200101518a828151811061157a577f4e487b7100000000000000000000000000000000000000000000000000000000600052603260045260246000fd5b6020026020010181815250506115b27ff65e6d757910af5ff17ca7d38247c47421abad6c0546b1b431e95e7b56ec327160001b6100f6565b6115de7f59aa692687673538244f176743f5e239e062eb0888ce194b745dcf29d1bf376360001b6100f6565b60008054906101000a900473ffffffffffffffffffffffffffffffffffffffff1673ffffffffffffffffffffffffffffffffffffffff16639c3f1e908b8381518110611653577f4e487b7100000000000000000000000000000000000000000000000000000000600052603260045260246000fd5b60200260200101516040518263ffffffff1660e01b815260040161167791906139a0565b60e06040518083038186803b15801561168f57600080fd5b505afa1580156116a3573d6000803e3d6000fd5b505050506040513d601f19601f820116820180604052508101906116c79190613420565b90919293945090919293508d868151811061170b577f4e487b7100000000000000000000000000000000000000000000000000000000600052603260045260246000fd5b602002602001018d878151811061174b577f4e487b7100000000000000000000000000000000000000000000000000000000600052603260045260246000fd5b602002602001018d888151811061178b577f4e487b7100000000000000000000000000000000000000000000000000000000600052603260045260246000fd5b602002602001018d89815181106117cb577f4e487b7100000000000000000000000000000000000000000000000000000000600052603260045260246000fd5b602002602001018d8a8151811061180b577f4e487b7100000000000000000000000000000000000000000000000000000000600052603260045260246000fd5b6020026020010185151515158152508581525085815250858152508573ffffffffffffffffffffffffffffffffffffffff1673ffffffffffffffffffffffffffffffffffffffff168152505050505050808061186690613c93565b9150506113db565b506118a1565b6118a07f4d50fa2bbdd23a38f698b760bb38916b3142ab921631a0be42799a876e19d8cc60001b6100f6565b5b5b5050509499939850945094509450565b60608060608060608060606118e97f4482f645ce5815a331b3dc0e566ce506c1aa2e997654442ea3b153eebad4903860001b6100f6565b6119157f618b7d98119081c9010767b249754be59ff34f8027f51f844bd161fb2bdfaf0a60001b6100f6565b6119417ff884f79b15804f559d9f46f772c67fe8e321e1f18f06e62e416e37401aaa5ac360001b6100f6565b61196d7f96015f754d72e68daf50143b04bde19118bbca6edc170a2abf25eff79450843160001b6100f6565b6001881161197a57600080fd5b6119a67f9aa26ff3b4fca95fadb6bde0e5f45ebb28e9fa5a1d7cf24a87cbee6cbcf6c49760001b6100f6565b6119d27f39733fe749a1674c05c6f83ca2eddcd21481147f298bab53faad5ab2b1a167e160001b6100f6565b6119fe7fa17cad46851f7fd60993adc1e299bde6b75314adc035ea8f91cf280bfb8a65c160001b6100f6565b60008060009054906101000a900473ffffffffffffffffffffffffffffffffffffffff1673ffffffffffffffffffffffffffffffffffffffff16630b7034a5336040518263ffffffff1660e01b8152600401611a5a9190613831565b60206040518083038186803b158015611a7257600080fd5b505afa158015611a86573d6000803e3d6000fd5b505050506040513d601f19601f82011682018060405250810190611aaa919061358b565b9050611ad87f1efd8ba709e0355534e748123da70330949a89307b4eef25aa07bc3e7debd2e360001b6100f6565b611b047fec8afcff66382f40e621246f07eed411dcdc136e4961e6f40be65bfab72d5de560001b6100f6565b60008982611b129190613b61565b9050611b407f74013bcaa9cf0ac9d7e9d6d14053085f1034f458376fa30e9794e3aedc6dcb6860001b6100f6565b611b6c7f44bd9ac57b76ef50a03c44214e12af0d42a4dd8fc5f61ea139cae7d4da48e35460001b6100f6565b60008a83611b7a9190613cdc565b9050611ba87fb63dcc27e548ef4aaf46ee9661ae481606bbf6c098fca9a553d362cdda05670160001b6100f6565b611bd47f238701ba434f9d597cdc45357ea4be545c83894130d689d89529408d4c8e390c60001b6100f6565b818c10156126f557611c087f23b92cef3fd837fa58e7fb3db9b88f9fee0d70b1530b14961ef864181bea505a60001b6100f6565b611c347f93d4000aa37066831067ee77a0b950e83abc475d241e22f4278a8b469486d20860001b6100f6565b611c607fe4728f092404b366bde7f584fccd950580ec2ba62f537c94a0fb2ed9d7590b4f60001b6100f6565b8a67ffffffffffffffff811115611ca0577f4e487b7100000000000000000000000000000000000000000000000000000000600052604160045260246000fd5b604051908082528060200260200182016040528015611cce5781602001602082028036833780820191505090505b509950611cfd7fb90f4bb38394676a9606316759c378de0bbd338dde3310711b61e26035021f9160001b6100f6565b611d297fae1c32abbda65ae22ca640c8cb6e5ddf660cb10c71805199dc935c2c70ab064a60001b6100f6565b8a67ffffffffffffffff811115611d69577f4e487b7100000000000000000000000000000000000000000000000000000000600052604160045260246000fd5b604051908082528060200260200182016040528015611d975781602001602082028036833780820191505090505b509850611dc67f04b516fa5229a57c9cc592c0097da4372da7d1defaf09f204429de5c57376b6e60001b6100f6565b611df27f051ac19de82adb6c000a8ccfcdb1adb2616017ac61e52f63993e22b5b2a81e7660001b6100f6565b8a67ffffffffffffffff811115611e32577f4e487b7100000000000000000000000000000000000000000000000000000000600052604160045260246000fd5b604051908082528060200260200182016040528015611e605781602001602082028036833780820191505090505b509750611e8f7f970b95fe6434bb289353e8cfabe265fd090aa3950fb78bd4517a4b91b09e18b260001b6100f6565b611ebb7f3abc853debaeda898a1eb6a530b1f30baf14ed65d76be822e5c3d7da936a8f8260001b6100f6565b8a67ffffffffffffffff811115611efb577f4e487b7100000000000000000000000000000000000000000000000000000000600052604160045260246000fd5b604051908082528060200260200182016040528015611f295781602001602082028036833780820191505090505b509650611f587f7c21dfcb369eb91ade73efbc1d74e2fbaafff154c7fec950c8de2c21974de40960001b6100f6565b611f847feed66e0dba169b7bc1cde0f5a08fe3a0135874fab03405632eeaaa2c3dbad0cd60001b6100f6565b8a67ffffffffffffffff811115611fc4577f4e487b7100000000000000000000000000000000000000000000000000000000600052604160045260246000fd5b604051908082528060200260200182016040528015611ff25781602001602082028036833780820191505090505b5095506120217f7dcdfa80babd9ace29f7980816112429750f2c786347072e4ef4ad607d2a81b360001b6100f6565b61204d7fce2c97c6c71b82e6593843209a071d84ba1271f042a4ef1517666a529aaeef2560001b6100f6565b8a67ffffffffffffffff81111561208d577f4e487b7100000000000000000000000000000000000000000000000000000000600052604160045260246000fd5b6040519080825280602002602001820160405280156120bb5781602001602082028036833780820191505090505b5094506120ea7fbc0be5b49b8c0fb8d3cc9a58b3d591ee41276339efce934047e3d98a63cc2a6a60001b6100f6565b6121167f94ccf03d4fa14b6ac5bb460c1fbca671ec2f98d938d91e58c088a3cecfc38c9c60001b6100f6565b8a67ffffffffffffffff811115612156577f4e487b7100000000000000000000000000000000000000000000000000000000600052604160045260246000fd5b6040519080825280602002602001820160405280156121845781602001602082028036833780820191505090505b5093506121b37faa3770d62b4c34b301cae3297a7210234754692ea7c1a76bab9f5519f8a5858560001b6100f6565b6121df7fb152f631d10e59567efd1ca9e99234bd1bcea36728f8cf7a9cf173e6d21f6f0b60001b6100f6565b60008b8d6121ed9190613b92565b90505b8b60018e6121fe9190613b0b565b6122089190613b92565b8110156126ef5761223b7fd0c9cf457b8fed672bc50df1ee632b2d7b7a6d798202c84b0d2225811bceed0560001b6100f6565b6122677f93e3ea22de41daa8216fe3558529ee2f75345cf6d9b04d4940e45814c8500a4460001b6100f6565b60008054906101000a900473ffffffffffffffffffffffffffffffffffffffff1673ffffffffffffffffffffffffffffffffffffffff1663eaba01f0336040518263ffffffff1660e01b81526004016122c09190613831565b60006040518083038186803b1580156122d857600080fd5b505afa1580156122ec573d6000803e3d6000fd5b505050506040513d6000823e3d601f19601f820116820180604052508101906123159190613521565b818151811061234d577f4e487b7100000000000000000000000000000000000000000000000000000000600052603260045260246000fd5b60200260200101518b828151811061238e577f4e487b7100000000000000000000000000000000000000000000000000000000600052603260045260246000fd5b6020026020010181815250506123c67fc9a5ae9886b67f0fd2273b778f1ee3dbf60e0d7a072da51c91a140b0602d73df60001b6100f6565b6123f27f36c400f7ed043b35e5ebca77ce347896326559efea2e7af540d7c5130cd5167860001b6100f6565b60008054906101000a900473ffffffffffffffffffffffffffffffffffffffff1673ffffffffffffffffffffffffffffffffffffffff16639c3f1e908c8381518110612467577f4e487b7100000000000000000000000000000000000000000000000000000000600052603260045260246000fd5b60200260200101516040518263ffffffff1660e01b815260040161248b91906139a0565b60e06040518083038186803b1580156124a357600080fd5b505afa1580156124b7573d6000803e3d6000fd5b505050506040513d601f19601f820116820180604052508101906124db9190613420565b909192939495508f878151811061251b577f4e487b7100000000000000000000000000000000000000000000000000000000600052603260045260246000fd5b602002602001018f888151811061255b577f4e487b7100000000000000000000000000000000000000000000000000000000600052603260045260246000fd5b602002602001018f898151811061259b577f4e487b7100000000000000000000000000000000000000000000000000000000600052603260045260246000fd5b602002602001018f8a815181106125db577f4e487b7100000000000000000000000000000000000000000000000000000000600052603260045260246000fd5b602002602001018f8b8151811061261b577f4e487b7100000000000000000000000000000000000000000000000000000000600052603260045260246000fd5b602002602001018f8c8151811061265b577f4e487b7100000000000000000000000000000000000000000000000000000000600052603260045260246000fd5b6020026020010186151515158152508681525086815250868152508673ffffffffffffffffffffffffffffffffffffffff1673ffffffffffffffffffffffffffffffffffffffff168152508673ffffffffffffffffffffffffffffffffffffffff1673ffffffffffffffffffffffffffffffffffffffff1681525050505050505080806126e790613c93565b9150506121f0565b506132c4565b6127217f25cfc3b9f1a727d7e41de476e2e2e80a9526ff2cb6fa21d163a61f6eb80c818860001b6100f6565b61274d7f028f6661388b8ab65096219d250a610493aa7ccbdeb677ad4bfce0de840e6e4660001b6100f6565b6127797f20aed19259d90cd542ee560cfe103556bdc64f3aa5c70deb110a0e340b69006e60001b6100f6565b8067ffffffffffffffff8111156127b9577f4e487b7100000000000000000000000000000000000000000000000000000000600052604160045260246000fd5b6040519080825280602002602001820160405280156127e75781602001602082028036833780820191505090505b5099506128167fba79e466323f1405e91600c85036eeb003ad20b2abaf18230eaf8fea8a29835960001b6100f6565b6128427fdef326deb306c60e1af97b303c4d43c1c13d646882581c069a0b32cf6019dbc960001b6100f6565b8067ffffffffffffffff811115612882577f4e487b7100000000000000000000000000000000000000000000000000000000600052604160045260246000fd5b6040519080825280602002602001820160405280156128b05781602001602082028036833780820191505090505b5098506128df7f0315e28b9abcca5ce215c916d974cdbd3edfe98da432aeefdacc44f2c8f6e9cc60001b6100f6565b61290b7fa2f9345405165919b980c36d50fb85acc45aec11443c572fc74fc84e8e07f57060001b6100f6565b8067ffffffffffffffff81111561294b577f4e487b7100000000000000000000000000000000000000000000000000000000600052604160045260246000fd5b6040519080825280602002602001820160405280156129795781602001602082028036833780820191505090505b5097506129a87f6354db462c057f634c45243b15278a2ce64f2fb66c7aff092a5bb3137df8c53360001b6100f6565b6129d47ff4efd4db06cf9c763e5dd71dd9fb540e889dd8ed7e524017eb0bc50365f426c060001b6100f6565b8067ffffffffffffffff811115612a14577f4e487b7100000000000000000000000000000000000000000000000000000000600052604160045260246000fd5b604051908082528060200260200182016040528015612a425781602001602082028036833780820191505090505b509650612a717f69b7550f002085d717e2953e212d636f98285227eb9e2009d8251abdaa5db79360001b6100f6565b612a9d7f341d0ef788a6d6ce2463e20dbe45dcf8cd1b7fb0e64bd8e289f3970f71b972fe60001b6100f6565b8067ffffffffffffffff811115612add577f4e487b7100000000000000000000000000000000000000000000000000000000600052604160045260246000fd5b604051908082528060200260200182016040528015612b0b5781602001602082028036833780820191505090505b509550612b3a7f43ca05bfe3afec310e7150fba028cea7989f79a195af2a619d4d29430a15130860001b6100f6565b612b667f8be4d844e76b430a04c52e3fb12cf6d0d64a743f83d90a50aadeb3ff7a681cc860001b6100f6565b8067ffffffffffffffff811115612ba6577f4e487b7100000000000000000000000000000000000000000000000000000000600052604160045260246000fd5b604051908082528060200260200182016040528015612bd45781602001602082028036833780820191505090505b509450612c037fd1e771d8214ce63aec1585139d80e8502bd34497f283270044a5e86107446f9260001b6100f6565b612c2f7fcbb435a1ec256c1881d827f3093e438d7beefc627ebe221f858894fd70e5cfc260001b6100f6565b8067ffffffffffffffff811115612c6f577f4e487b7100000000000000000000000000000000000000000000000000000000600052604160045260246000fd5b604051908082528060200260200182016040528015612c9d5781602001602082028036833780820191505090505b509350612ccc7f168fda92fa6edcc085771e6e7fde536c4812d5db2ac5aa6eae67469cba8b412760001b6100f6565b612cf87fa7ce7be709971544b1674632c68fea2cf4fb4f9246e83469a958b674b278215f60001b6100f6565b8a8c612d049190613b92565b83111561329657612d377ff1858b349e0a3fadc52fafb5054dfbacb3c216a83e0b863fdedfdd9a53069b4c60001b6100f6565b612d637f497d33641c53d348d0750eb34466e1f4f95561638158776d25c4ad514f64f12560001b6100f6565b612d8f7f9d47e9978cb3fd2d9d6c0dc102f1e18d8b0e07dbb0bc340991000082cb12682260001b6100f6565b60005b8181101561329057612dc67f11abc47a8dc127d4de22d75f64c41ab96a3d857a1ddf7dfa3be952ebbb37049460001b6100f6565b612df27fce9015801e51fba451d53197c1f4b9039c7618c36a19594a56ecb00736f0455160001b6100f6565b60008054906101000a900473ffffffffffffffffffffffffffffffffffffffff1673ffffffffffffffffffffffffffffffffffffffff1663eaba01f0336040518263ffffffff1660e01b8152600401612e4b9190613831565b60006040518083038186803b158015612e6357600080fd5b505afa158015612e77573d6000803e3d6000fd5b505050506040513d6000823e3d601f19601f82011682018060405250810190612ea09190613521565b818d8f612ead9190613b92565b612eb79190613b0b565b81518110612eee577f4e487b7100000000000000000000000000000000000000000000000000000000600052603260045260246000fd5b60200260200101518b8281518110612f2f577f4e487b7100000000000000000000000000000000000000000000000000000000600052603260045260246000fd5b602002602001018181525050612f677f7fa9a225501e72037bf5bda7ab9287e1645a27c204d290d2e1d0060af43bfbe260001b6100f6565b612f937fd166ea24d0290d072666bdce802a906151e21ca8b4060f51fa9d5d8d4726d21a60001b6100f6565b60008054906101000a900473ffffffffffffffffffffffffffffffffffffffff1673ffffffffffffffffffffffffffffffffffffffff16639c3f1e908c8381518110613008577f4e487b7100000000000000000000000000000000000000000000000000000000600052603260045260246000fd5b60200260200101516040518263ffffffff1660e01b815260040161302c91906139a0565b60e06040518083038186803b15801561304457600080fd5b505afa158015613058573d6000803e3d6000fd5b505050506040513d601f19601f8201168201806040525081019061307c9190613420565b909192939495508f87815181106130bc577f4e487b7100000000000000000000000000000000000000000000000000000000600052603260045260246000fd5b602002602001018f88815181106130fc577f4e487b7100000000000000000000000000000000000000000000000000000000600052603260045260246000fd5b602002602001018f898151811061313c577f4e487b7100000000000000000000000000000000000000000000000000000000600052603260045260246000fd5b602002602001018f8a8151811061317c577f4e487b7100000000000000000000000000000000000000000000000000000000600052603260045260246000fd5b602002602001018f8b815181106131bc577f4e487b7100000000000000000000000000000000000000000000000000000000600052603260045260246000fd5b602002602001018f8c815181106131fc577f4e487b7100000000000000000000000000000000000000000000000000000000600052603260045260246000fd5b6020026020010186151515158152508681525086815250868152508673ffffffffffffffffffffffffffffffffffffffff1673ffffffffffffffffffffffffffffffffffffffff168152508673ffffffffffffffffffffffffffffffffffffffff1673ffffffffffffffffffffffffffffffffffffffff16815250505050505050808061328890613c93565b915050612d92565b506132c3565b6132c27f73404958c0c5514d582570419f937b398a9884399b69fadb49a2028cebdf345d60001b6100f6565b5b5b50505092959891949750929550565b60008054906101000a900473ffffffffffffffffffffffffffffffffffffffff1681565b600061330a613305846139fb565b6139d6565b9050808382526020820190508285602086028201111561332957600080fd5b60005b85811015613359578161333f88826133e1565b84526020840193506020830192505060018101905061332c565b5050509392505050565b60008135905061337281613dab565b92915050565b60008151905061338781613dab565b92915050565b600082601f83011261339e57600080fd5b81516133ae8482602086016132f7565b91505092915050565b6000815190506133c681613dc2565b92915050565b6000813590506133db81613dd9565b92915050565b6000815190506133f081613dd9565b92915050565b60008135905061340581613df0565b92915050565b60008151905061341a81613df0565b92915050565b600080600080600080600060e0888a03121561343b57600080fd5b60006134498a828b01613378565b975050602061345a8a828b01613378565b965050604061346b8a828b01613378565b955050606061347c8a828b0161340b565b945050608061348d8a828b0161340b565b93505060a061349e8a828b0161340b565b92505060c06134af8a828b016133b7565b91505092959891949750929550565b600080600080608085870312156134d457600080fd5b60006134e287828801613363565b94505060206134f387828801613363565b9350506040613504878288016133f6565b9250506060613515878288016133f6565b91505092959194509250565b60006020828403121561353357600080fd5b600082015167ffffffffffffffff81111561354d57600080fd5b6135598482850161338d565b91505092915050565b60006020828403121561357457600080fd5b6000613582848285016133cc565b91505092915050565b60006020828403121561359d57600080fd5b60006135ab8482850161340b565b91505092915050565b600080604083850312156135c757600080fd5b60006135d5858286016133f6565b92505060206135e6858286016133f6565b9150509250929050565b60006135fc8383613650565b60208301905092915050565b600061361483836137e6565b60208301905092915050565b600061362c83836137f5565b60208301905092915050565b60006136448383613822565b60208301905092915050565b61365981613bec565b82525050565b61366881613bec565b82525050565b600061367982613a67565b6136838185613ac7565b935061368e83613a27565b8060005b838110156136bf5781516136a688826135f0565b97506136b183613a93565b925050600181019050613692565b5085935050505092915050565b60006136d782613a72565b6136e18185613ad8565b93506136ec83613a37565b8060005b8381101561371d5781516137048882613608565b975061370f83613aa0565b9250506001810190506136f0565b5085935050505092915050565b600061373582613a7d565b61373f8185613ae9565b935061374a83613a47565b8060005b8381101561377b5781516137628882613620565b975061376d83613aad565b92505060018101905061374e565b5085935050505092915050565b600061379382613a88565b61379d8185613afa565b93506137a883613a57565b8060005b838110156137d95781516137c08882613638565b97506137cb83613aba565b9250506001810190506137ac565b5085935050505092915050565b6137ef81613bfe565b82525050565b6137fe81613c0a565b82525050565b61380d81613c0a565b82525050565b61381c81613c3e565b82525050565b61382b81613c34565b82525050565b6000602082019050613846600083018461365f565b92915050565b6000604082019050613861600083018561365f565b61386e602083018461365f565b9392505050565b600060e082019050818103600083015261388f818a61372a565b905081810360208301526138a3818961366e565b905081810360408301526138b7818861366e565b905081810360608301526138cb8187613788565b905081810360808301526138df8186613788565b905081810360a08301526138f38185613788565b905081810360c083015261390781846136cc565b905098975050505050505050565b600060c082019050818103600083015261392f818961372a565b90508181036020830152613943818861366e565b905081810360408301526139578187613788565b9050818103606083015261396b8186613788565b9050818103608083015261397f8185613788565b905081810360a083015261399381846136cc565b9050979650505050505050565b60006020820190506139b56000830184613804565b92915050565b60006020820190506139d06000830184613813565b92915050565b60006139e06139f1565b90506139ec8282613c62565b919050565b6000604051905090565b600067ffffffffffffffff821115613a1657613a15613d6b565b5b602082029050602081019050919050565b6000819050602082019050919050565b6000819050602082019050919050565b6000819050602082019050919050565b6000819050602082019050919050565b600081519050919050565b600081519050919050565b600081519050919050565b600081519050919050565b6000602082019050919050565b6000602082019050919050565b6000602082019050919050565b6000602082019050919050565b600082825260208201905092915050565b600082825260208201905092915050565b600082825260208201905092915050565b600082825260208201905092915050565b6000613b1682613c34565b9150613b2183613c34565b9250827fffffffffffffffffffffffffffffffffffffffffffffffffffffffffffffffff03821115613b5657613b55613d0d565b5b828201905092915050565b6000613b6c82613c34565b9150613b7783613c34565b925082613b8757613b86613d3c565b5b828204905092915050565b6000613b9d82613c34565b9150613ba883613c34565b9250817fffffffffffffffffffffffffffffffffffffffffffffffffffffffffffffffff0483118215151615613be157613be0613d0d565b5b828202905092915050565b6000613bf782613c14565b9050919050565b60008115159050919050565b6000819050919050565b600073ffffffffffffffffffffffffffffffffffffffff82169050919050565b6000819050919050565b6000613c4982613c50565b9050919050565b6000613c5b82613c14565b9050919050565b613c6b82613d9a565b810181811067ffffffffffffffff82111715613c8a57613c89613d6b565b5b80604052505050565b6000613c9e82613c34565b91507fffffffffffffffffffffffffffffffffffffffffffffffffffffffffffffffff821415613cd157613cd0613d0d565b5b600182019050919050565b6000613ce782613c34565b9150613cf283613c34565b925082613d0257613d01613d3c565b5b828206905092915050565b7f4e487b7100000000000000000000000000000000000000000000000000000000600052601160045260246000fd5b7f4e487b7100000000000000000000000000000000000000000000000000000000600052601260045260246000fd5b7f4e487b7100000000000000000000000000000000000000000000000000000000600052604160045260246000fd5b6000601f19601f8301169050919050565b613db481613bec565b8114613dbf57600080fd5b50565b613dcb81613bfe565b8114613dd657600080fd5b50565b613de281613c0a565b8114613ded57600080fd5b50565b613df981613c34565b8114613e0457600080fd5b5056fea264697066735822122016d825b548e4dfa0eeef004b5cd98d313c29b94007d2587bfc21b4181290ffab64736f6c63430008030033",
  "linkReferences": {},
  "deployedLinkReferences": {}
}