{
  "_format": "hh-sol-artifact-1",
  "contractName": "OBEX",
  "sourceName": "contracts/OBEX_ver_1.sol",
  "abi": [
    {
      "inputs": [],
      "stateMutability": "nonpayable",
      "type": "constructor"
    },
    {
      "anonymous": false,
      "inputs": [
        {
          "indexed": false,
          "internalType": "uint256",
          "name": "orderId",
          "type": "uint256"
        }
      ],
      "name": "Cancel",
      "type": "event"
    },
    {
      "anonymous": false,
      "inputs": [
        {
          "indexed": false,
          "internalType": "uint256",
          "name": "orderId",
          "type": "uint256"
        },
        {
          "indexed": false,
          "internalType": "address",
          "name": "maker",
          "type": "address"
        },
        {
          "indexed": false,
          "internalType": "address",
          "name": "tokenSellByMaker",
          "type": "address"
        },
        {
          "indexed": false,
          "internalType": "address",
          "name": "tokenBuyByMaker",
          "type": "address"
        },
        {
          "indexed": false,
          "internalType": "uint256",
          "name": "amountSell",
          "type": "uint256"
        },
        {
          "indexed": false,
          "internalType": "uint256",
          "name": "amountBuy",
          "type": "uint256"
        }
      ],
      "name": "Make",
      "type": "event"
    },
    {
      "anonymous": false,
      "inputs": [
        {
          "indexed": false,
          "internalType": "uint256",
          "name": "orderId",
          "type": "uint256"
        },
        {
          "indexed": false,
          "internalType": "address",
          "name": "taker",
          "type": "address"
        },
        {
          "indexed": false,
          "internalType": "address",
          "name": "tokenSellByTaker",
          "type": "address"
        },
        {
          "indexed": false,
          "internalType": "address",
          "name": "tokenBuyByTaker",
          "type": "address"
        },
        {
          "indexed": false,
          "internalType": "uint256",
          "name": "amountSell",
          "type": "uint256"
        },
        {
          "indexed": false,
          "internalType": "uint256",
          "name": "amountBuy",
          "type": "uint256"
        },
        {
          "indexed": false,
          "internalType": "uint256",
          "name": "amountFilled",
          "type": "uint256"
        }
      ],
      "name": "Take",
      "type": "event"
    },
    {
      "inputs": [
        {
          "internalType": "uint256",
          "name": "_orderId",
          "type": "uint256"
        }
      ],
      "name": "cancel",
      "outputs": [],
      "stateMutability": "nonpayable",
      "type": "function"
    },
    {
      "inputs": [
        {
          "internalType": "address",
          "name": "_token",
          "type": "address"
        },
        {
          "internalType": "uint256",
          "name": "_amountSell",
          "type": "uint256"
        },
        {
          "internalType": "uint256",
          "name": "_amountBuy",
          "type": "uint256"
        }
      ],
      "name": "makeOrderETHToTokens",
      "outputs": [],
      "stateMutability": "payable",
      "type": "function"
    },
    {
      "inputs": [
        {
          "internalType": "address",
          "name": "_token",
          "type": "address"
        },
        {
          "internalType": "uint256",
          "name": "_amountSell",
          "type": "uint256"
        },
        {
          "internalType": "uint256",
          "name": "_amountBuy",
          "type": "uint256"
        }
      ],
      "name": "makeOrderTokensToETH",
      "outputs": [],
      "stateMutability": "nonpayable",
      "type": "function"
    },
    {
      "inputs": [
        {
          "internalType": "uint256",
          "name": "_page",
          "type": "uint256"
        },
        {
          "internalType": "uint256",
          "name": "_limit",
          "type": "uint256"
        }
      ],
      "name": "myOrder",
      "outputs": [
        {
          "internalType": "uint256[]",
          "name": "orderId",
          "type": "uint256[]"
        },
        {
          "internalType": "address[]",
          "name": "tokenSell",
          "type": "address[]"
        },
        {
          "internalType": "address[]",
          "name": "tokenBuy",
          "type": "address[]"
        },
        {
          "internalType": "uint256[]",
          "name": "amountSell",
          "type": "uint256[]"
        },
        {
          "internalType": "uint256[]",
          "name": "amountBuy",
          "type": "uint256[]"
        },
        {
          "internalType": "uint256[]",
          "name": "amountFilled",
          "type": "uint256[]"
        }
      ],
      "stateMutability": "view",
      "type": "function"
    },
    {
      "inputs": [
        {
          "internalType": "address",
          "name": "_tokenA",
          "type": "address"
        },
        {
          "internalType": "address",
          "name": "_tokenB",
          "type": "address"
        },
        {
          "internalType": "uint256",
          "name": "_page",
          "type": "uint256"
        },
        {
          "internalType": "uint256",
          "name": "_limit",
          "type": "uint256"
        }
      ],
      "name": "orderBook",
      "outputs": [
        {
          "internalType": "uint256[]",
          "name": "orderId",
          "type": "uint256[]"
        },
        {
          "internalType": "address[]",
          "name": "maker",
          "type": "address[]"
        },
        {
          "internalType": "uint256[]",
          "name": "amountSell",
          "type": "uint256[]"
        },
        {
          "internalType": "uint256[]",
          "name": "amountBuy",
          "type": "uint256[]"
        },
        {
          "internalType": "uint256[]",
          "name": "amountFilled",
          "type": "uint256[]"
        }
      ],
      "stateMutability": "view",
      "type": "function"
    },
    {
      "inputs": [
        {
          "internalType": "uint256",
          "name": "_orderId",
          "type": "uint256"
        },
        {
          "internalType": "uint256",
          "name": "_amountRcv",
          "type": "uint256"
        }
      ],
      "name": "takeOrderETHToTokens",
      "outputs": [],
      "stateMutability": "payable",
      "type": "function"
    },
    {
      "inputs": [
        {
          "internalType": "uint256",
          "name": "_orderId",
          "type": "uint256"
        },
        {
          "internalType": "uint256",
          "name": "_amountPay",
          "type": "uint256"
        },
        {
          "internalType": "uint256",
          "name": "_amountRcv",
          "type": "uint256"
        }
      ],
      "name": "takeOrderTokensToETH",
      "outputs": [],
      "stateMutability": "nonpayable",
      "type": "function"
    },
    {
      "inputs": [
        {
          "internalType": "address",
          "name": "_token",
          "type": "address"
        },
        {
          "internalType": "uint256",
          "name": "amount",
          "type": "uint256"
        }
      ],
      "name": "transferTokens",
      "outputs": [],
      "stateMutability": "nonpayable",
      "type": "function"
    }
  ],
  "bytecode": "0x608060405234801561001057600080fd5b503373ffffffffffffffffffffffffffffffffffffffff16600160009054906101000a905050506128f2806100466000396000f3fe60806040526004361061007b5760003560e01c8063aaee808e1161004e578063aaee808e14610369578063bec3fa17146103c1578063dab277fa1461041c578063e2163f051461061e5761007b565b806315e14ac9146100805780633bc3ed1e1461027a57806340e58ee5146102df5780639f8775cf1461031a575b600080fd5b34801561008c57600080fd5b50610103600480360360808110156100a357600080fd5b81019080803573ffffffffffffffffffffffffffffffffffffffff169060200190929190803573ffffffffffffffffffffffffffffffffffffffff1690602001909291908035906020019092919080359060200190929190505050610656565b60405180806020018060200180602001806020018060200186810386528b818151815260200191508051906020019060200280838360005b8381101561015657808201518184015260208101905061013b565b5050505090500186810385528a818151815260200191508051906020019060200280838360005b8381101561019857808201518184015260208101905061017d565b50505050905001868103845289818151815260200191508051906020019060200280838360005b838110156101da5780820151818401526020810190506101bf565b50505050905001868103835288818151815260200191508051906020019060200280838360005b8381101561021c578082015181840152602081019050610201565b50505050905001868103825287818151815260200191508051906020019060200280838360005b8381101561025e578082015181840152602081019050610243565b505050509050019a505050505050505050505060405180910390f35b34801561028657600080fd5b506102dd6004803603606081101561029d57600080fd5b81019080803573ffffffffffffffffffffffffffffffffffffffff1690602001909291908035906020019092919080359060200190929190505050610af1565b005b3480156102eb57600080fd5b506103186004803603602081101561030257600080fd5b8101908080359060200190929190505050610eb1565b005b34801561032657600080fd5b506103676004803603606081101561033d57600080fd5b810190808035906020019092919080359060200190929190803590602001909291905050506111f4565b005b6103bf6004803603606081101561037f57600080fd5b81019080803573ffffffffffffffffffffffffffffffffffffffff16906020019092919080359060200190929190803590602001909291905050506117ad565b005b3480156103cd57600080fd5b5061041a600480360360408110156103e457600080fd5b81019080803573ffffffffffffffffffffffffffffffffffffffff16906020019092919080359060200190929190505050611aa2565b005b34801561042857600080fd5b5061045f6004803603604081101561043f57600080fd5b810190808035906020019092919080359060200190929190505050611c7b565b6040518080602001806020018060200180602001806020018060200187810387528d818151815260200191508051906020019060200280838360005b838110156104b657808201518184015260208101905061049b565b5050505090500187810386528c818151815260200191508051906020019060200280838360005b838110156104f85780820151818401526020810190506104dd565b5050505090500187810385528b818151815260200191508051906020019060200280838360005b8381101561053a57808201518184015260208101905061051f565b5050505090500187810384528a818151815260200191508051906020019060200280838360005b8381101561057c578082015181840152602081019050610561565b50505050905001878103835289818151815260200191508051906020019060200280838360005b838110156105be5780820151818401526020810190506105a3565b50505050905001878103825288818151815260200191508051906020019060200280838360005b838110156106005780820151818401526020810190506105e5565b505050509050019c5050505050505050505050505060405180910390f35b6106546004803603604081101561063457600080fd5b810190808035906020019092919080359060200190929190505050612114565b005b6060806060806060600080610674888a61269090919063ffffffff16565b90505b61068d8860018b0161269090919063ffffffff16565b81101561077a5760008082815481106106a257fe5b906000526020600020906007020190508b73ffffffffffffffffffffffffffffffffffffffff168160020160009054906101000a900473ffffffffffffffffffffffffffffffffffffffff1673ffffffffffffffffffffffffffffffffffffffff1614801561076057508a73ffffffffffffffffffffffffffffffffffffffff168160030160009054906101000a900473ffffffffffffffffffffffffffffffffffffffff1673ffffffffffffffffffffffffffffffffffffffff16145b1561076c576001830192505b508080600101915050610677565b508067ffffffffffffffff8111801561079257600080fd5b506040519080825280602002602001820160405280156107c15781602001602082028036833780820191505090505b5095508067ffffffffffffffff811180156107db57600080fd5b5060405190808252806020026020018201604052801561080a5781602001602082028036833780820191505090505b5094508067ffffffffffffffff8111801561082457600080fd5b506040519080825280602002602001820160405280156108535781602001602082028036833780820191505090505b5093508067ffffffffffffffff8111801561086d57600080fd5b5060405190808252806020026020018201604052801561089c5781602001602082028036833780820191505090505b5092508067ffffffffffffffff811180156108b657600080fd5b506040519080825280602002602001820160405280156108e55781602001602082028036833780820191505090505b5091506000806108fe898b61269090919063ffffffff16565b90505b6109178960018c0161269090919063ffffffff16565b811015610ae357600080828154811061092c57fe5b906000526020600020906007020190508c73ffffffffffffffffffffffffffffffffffffffff168160020160009054906101000a900473ffffffffffffffffffffffffffffffffffffffff1673ffffffffffffffffffffffffffffffffffffffff161480156109ea57508b73ffffffffffffffffffffffffffffffffffffffff168160030160009054906101000a900473ffffffffffffffffffffffffffffffffffffffff1673ffffffffffffffffffffffffffffffffffffffff16145b15610ad5578060000154898481518110610a0057fe5b6020026020010181815250508060010160009054906101000a900473ffffffffffffffffffffffffffffffffffffffff16888481518110610a3d57fe5b602002602001019073ffffffffffffffffffffffffffffffffffffffff16908173ffffffffffffffffffffffffffffffffffffffff16815250508060040154878481518110610a8857fe5b6020026020010181815250508060050154868481518110610aa557fe5b6020026020010181815250508060060154858480600101955081518110610ac857fe5b6020026020010181815250505b508080600101915050610901565b505050945094509450945094565b600073ffffffffffffffffffffffffffffffffffffffff168373ffffffffffffffffffffffffffffffffffffffff161415610b94576040517f08c379a00000000000000000000000000000000000000000000000000000000081526004018080602001828103825260138152602001807f77726f6e6720746f6b656e20616464726573730000000000000000000000000081525060200191505060405180910390fd5b60008080549050905060006040518060e001604052808381526020013373ffffffffffffffffffffffffffffffffffffffff1681526020018673ffffffffffffffffffffffffffffffffffffffff168152602001600073ffffffffffffffffffffffffffffffffffffffff168152602001858152602001848152602001600081525090806001815401808255809150506001900390600052602060002090600702016000909190919091506000820151816000015560208201518160010160006101000a81548173ffffffffffffffffffffffffffffffffffffffff021916908373ffffffffffffffffffffffffffffffffffffffff16021790555060408201518160020160006101000a81548173ffffffffffffffffffffffffffffffffffffffff021916908373ffffffffffffffffffffffffffffffffffffffff16021790555060608201518160030160006101000a81548173ffffffffffffffffffffffffffffffffffffffff021916908373ffffffffffffffffffffffffffffffffffffffff1602179055506080820151816004015560a0820151816005015560c0820151816006015550508373ffffffffffffffffffffffffffffffffffffffff166323b872dd3330866040518463ffffffff1660e01b8152600401808473ffffffffffffffffffffffffffffffffffffffff1681526020018373ffffffffffffffffffffffffffffffffffffffff1681526020018281526020019350505050602060405180830381600087803b158015610dcd57600080fd5b505af1158015610de1573d6000803e3d6000fd5b505050506040513d6020811015610df757600080fd5b8101908080519060200190929190505050507f580e0b4a65b65f098f80f4e0913cf3290e18e8d855b973773c3aea6bf30e7c8181338660008787604051808781526020018673ffffffffffffffffffffffffffffffffffffffff1681526020018573ffffffffffffffffffffffffffffffffffffffff1681526020018473ffffffffffffffffffffffffffffffffffffffff168152602001838152602001828152602001965050505050505060405180910390a150505050565b6000805490508110610f2b576040517f08c379a00000000000000000000000000000000000000000000000000000000081526004018080602001828103825260118152602001807f6e6f6e6578697374656e74206f7264657200000000000000000000000000000081525060200191505060405180910390fd5b6000808281548110610f3957fe5b906000526020600020906007020190503373ffffffffffffffffffffffffffffffffffffffff168160010160009054906101000a900473ffffffffffffffffffffffffffffffffffffffff1673ffffffffffffffffffffffffffffffffffffffff161461100e576040517f08c379a000000000000000000000000000000000000000000000000000000000815260040180806020018281038252601f8152602001807f596f752063616e206f6e6c792063616e63656c20796f7572206f726465722e0081525060200191505060405180910390fd5b600073ffffffffffffffffffffffffffffffffffffffff168160020160009054906101000a900473ffffffffffffffffffffffffffffffffffffffff1673ffffffffffffffffffffffffffffffffffffffff1614156110cd573373ffffffffffffffffffffffffffffffffffffffff166108fc61109c8360060154846004015461272590919063ffffffff16565b9081150290604051600060405180830381858888f193505050501580156110c7573d6000803e3d6000fd5b506111b9565b8060020160009054906101000a900473ffffffffffffffffffffffffffffffffffffffff1673ffffffffffffffffffffffffffffffffffffffff1663a9059cbb336111298460060154856004015461272590919063ffffffff16565b6040518363ffffffff1660e01b8152600401808373ffffffffffffffffffffffffffffffffffffffff16815260200182815260200192505050602060405180830381600087803b15801561117c57600080fd5b505af1158015611190573d6000803e3d6000fd5b505050506040513d60208110156111a657600080fd5b8101908080519060200190929190505050505b7f8bf30e7ff26833413be5f69e1d373744864d600b664204b4a2f9844a8eedb9ed826040518082815260200191505060405180910390a15050565b600080549050831061126e576040517f08c379a000000000000000000000000000000000000000000000000000000000815260040180806020018281038252600e8152602001807f77726f6e67206f7264657220696400000000000000000000000000000000000081525060200191505060405180910390fd5b600080848154811061127c57fe5b9060005260206000209060070201905060008160030160009054906101000a900473ffffffffffffffffffffffffffffffffffffffff169050826112d18360060154846004015461272590919063ffffffff16565b1015611328576040517f08c379a000000000000000000000000000000000000000000000000000000000815260040180806020018281038252603a81526020018061282c603a913960400191505060405180910390fd5b61133f82600501548461269090919063ffffffff16565b61135685846004015461269090919063ffffffff16565b10156113ad576040517f08c379a00000000000000000000000000000000000000000000000000000000081526004018080602001828103825260338152602001806128666033913960400191505060405180910390fd5b3373ffffffffffffffffffffffffffffffffffffffff166108fc6103e86113df6103e38761269090919063ffffffff16565b816113e657fe5b049081150290604051600060405180830381858888f19350505050158015611412573d6000803e3d6000fd5b50600160009054906101000a900473ffffffffffffffffffffffffffffffffffffffff1673ffffffffffffffffffffffffffffffffffffffff166108fc6114816103e861146a6103e38861269090919063ffffffff16565b8161147157fe5b048661272590919063ffffffff16565b9081150290604051600060405180830381858888f193505050501580156114ac573d6000803e3d6000fd5b508073ffffffffffffffffffffffffffffffffffffffff166323b872dd338460010160009054906101000a900473ffffffffffffffffffffffffffffffffffffffff166103e86115076103e38a61269090919063ffffffff16565b8161150e57fe5b046040518463ffffffff1660e01b8152600401808473ffffffffffffffffffffffffffffffffffffffff1681526020018373ffffffffffffffffffffffffffffffffffffffff1681526020018281526020019350505050602060405180830381600087803b15801561157f57600080fd5b505af1158015611593573d6000803e3d6000fd5b505050506040513d60208110156115a957600080fd5b8101908080519060200190929190505050508073ffffffffffffffffffffffffffffffffffffffff166323b872dd33600160009054906101000a900473ffffffffffffffffffffffffffffffffffffffff1661162d6103e86116166103e38b61269090919063ffffffff16565b8161161d57fe5b048961272590919063ffffffff16565b6040518463ffffffff1660e01b8152600401808473ffffffffffffffffffffffffffffffffffffffff1681526020018373ffffffffffffffffffffffffffffffffffffffff1681526020018281526020019350505050602060405180830381600087803b15801561169d57600080fd5b505af11580156116b1573d6000803e3d6000fd5b505050506040513d60208110156116c757600080fd5b8101908080519060200190929190505050506116f08383600601546127a890919063ffffffff16565b82600601819055507fb3a3087f9b9137e91e9c4760488a2de708d40c394b5adad9c7020ae944129363853383600088888860060154604051808881526020018773ffffffffffffffffffffffffffffffffffffffff1681526020018673ffffffffffffffffffffffffffffffffffffffff1681526020018573ffffffffffffffffffffffffffffffffffffffff16815260200184815260200183815260200182815260200197505050505050505060405180910390a15050505050565b600073ffffffffffffffffffffffffffffffffffffffff168373ffffffffffffffffffffffffffffffffffffffff161415611850576040517f08c379a00000000000000000000000000000000000000000000000000000000081526004018080602001828103825260138152602001807f77726f6e6720746f6b656e20616464726573730000000000000000000000000081525060200191505060405180910390fd5b60008080549050905060006040518060e001604052808381526020013373ffffffffffffffffffffffffffffffffffffffff168152602001600073ffffffffffffffffffffffffffffffffffffffff1681526020018673ffffffffffffffffffffffffffffffffffffffff168152602001858152602001848152602001600081525090806001815401808255809150506001900390600052602060002090600702016000909190919091506000820151816000015560208201518160010160006101000a81548173ffffffffffffffffffffffffffffffffffffffff021916908373ffffffffffffffffffffffffffffffffffffffff16021790555060408201518160020160006101000a81548173ffffffffffffffffffffffffffffffffffffffff021916908373ffffffffffffffffffffffffffffffffffffffff16021790555060608201518160030160006101000a81548173ffffffffffffffffffffffffffffffffffffffff021916908373ffffffffffffffffffffffffffffffffffffffff1602179055506080820151816004015560a0820151816005015560c0820151816006015550507f580e0b4a65b65f098f80f4e0913cf3290e18e8d855b973773c3aea6bf30e7c8181336000878787604051808781526020018673ffffffffffffffffffffffffffffffffffffffff1681526020018573ffffffffffffffffffffffffffffffffffffffff1681526020018473ffffffffffffffffffffffffffffffffffffffff168152602001838152602001828152602001965050505050505060405180910390a150505050565b3373ffffffffffffffffffffffffffffffffffffffff16600160009054906101000a900473ffffffffffffffffffffffffffffffffffffffff1673ffffffffffffffffffffffffffffffffffffffff1614611b48576040517f08c379a00000000000000000000000000000000000000000000000000000000081526004018080602001828103825260248152602001806128996024913960400191505060405180910390fd5b600073ffffffffffffffffffffffffffffffffffffffff168273ffffffffffffffffffffffffffffffffffffffff161415611bc9573373ffffffffffffffffffffffffffffffffffffffff166108fc829081150290604051600060405180830381858888f19350505050158015611bc3573d6000803e3d6000fd5b50611c77565b8173ffffffffffffffffffffffffffffffffffffffff1663a9059cbb33836040518363ffffffff1660e01b8152600401808373ffffffffffffffffffffffffffffffffffffffff16815260200182815260200192505050602060405180830381600087803b158015611c3a57600080fd5b505af1158015611c4e573d6000803e3d6000fd5b505050506040513d6020811015611c6457600080fd5b8101908080519060200190929190505050505b5050565b606080606080606080600080611c9a898b61269090919063ffffffff16565b90505b611cb38960018c0161269090919063ffffffff16565b811015611d45576000808281548110611cc857fe5b906000526020600020906007020190503373ffffffffffffffffffffffffffffffffffffffff168160010160009054906101000a900473ffffffffffffffffffffffffffffffffffffffff1673ffffffffffffffffffffffffffffffffffffffff161415611d37576001830192505b508080600101915050611c9d565b508067ffffffffffffffff81118015611d5d57600080fd5b50604051908082528060200260200182016040528015611d8c5781602001602082028036833780820191505090505b5096508067ffffffffffffffff81118015611da657600080fd5b50604051908082528060200260200182016040528015611dd55781602001602082028036833780820191505090505b5095508067ffffffffffffffff81118015611def57600080fd5b50604051908082528060200260200182016040528015611e1e5781602001602082028036833780820191505090505b5094508067ffffffffffffffff81118015611e3857600080fd5b50604051908082528060200260200182016040528015611e675781602001602082028036833780820191505090505b5093508067ffffffffffffffff81118015611e8157600080fd5b50604051908082528060200260200182016040528015611eb05781602001602082028036833780820191505090505b5092508067ffffffffffffffff81118015611eca57600080fd5b50604051908082528060200260200182016040528015611ef95781602001602082028036833780820191505090505b509150600080611f128a8c61269090919063ffffffff16565b90505b611f2b8a60018d0161269090919063ffffffff16565b811015612107576000808281548110611f4057fe5b906000526020600020906007020190503373ffffffffffffffffffffffffffffffffffffffff168160010160009054906101000a900473ffffffffffffffffffffffffffffffffffffffff1673ffffffffffffffffffffffffffffffffffffffff1614156120f95780600001548a8481518110611fb957fe5b6020026020010181815250508060020160009054906101000a900473ffffffffffffffffffffffffffffffffffffffff16898481518110611ff657fe5b602002602001019073ffffffffffffffffffffffffffffffffffffffff16908173ffffffffffffffffffffffffffffffffffffffff16815250508060030160009054906101000a900473ffffffffffffffffffffffffffffffffffffffff1688848151811061206157fe5b602002602001019073ffffffffffffffffffffffffffffffffffffffff16908173ffffffffffffffffffffffffffffffffffffffff168152505080600401548784815181106120ac57fe5b60200260200101818152505080600501548684815181106120c957fe5b60200260200101818152505080600601548584806001019550815181106120ec57fe5b6020026020010181815250505b508080600101915050611f15565b5050509295509295509295565b600080549050821061218e576040517f08c379a000000000000000000000000000000000000000000000000000000000815260040180806020018281038252600e8152602001807f77726f6e67206f7264657220696400000000000000000000000000000000000081525060200191505060405180910390fd5b600080838154811061219c57fe5b9060005260206000209060070201905060008160020160009054906101000a900473ffffffffffffffffffffffffffffffffffffffff169050826121f18360060154846004015461272590919063ffffffff16565b1015612248576040517f08c379a000000000000000000000000000000000000000000000000000000000815260040180806020018281038252603a81526020018061282c603a913960400191505060405180910390fd5b61225f82600501548461269090919063ffffffff16565b61227634846004015461269090919063ffffffff16565b10156122cd576040517f08c379a00000000000000000000000000000000000000000000000000000000081526004018080602001828103825260338152602001806128666033913960400191505060405180910390fd5b8160010160009054906101000a900473ffffffffffffffffffffffffffffffffffffffff1673ffffffffffffffffffffffffffffffffffffffff166108fc6103e86123236103e33461269090919063ffffffff16565b8161232a57fe5b049081150290604051600060405180830381858888f19350505050158015612356573d6000803e3d6000fd5b50600160009054906101000a900473ffffffffffffffffffffffffffffffffffffffff1673ffffffffffffffffffffffffffffffffffffffff166108fc6123c56103e86123ae6103e33461269090919063ffffffff16565b816123b557fe5b043461272590919063ffffffff16565b9081150290604051600060405180830381858888f193505050501580156123f0573d6000803e3d6000fd5b508073ffffffffffffffffffffffffffffffffffffffff1663a9059cbb336103e86124266103e38861269090919063ffffffff16565b8161242d57fe5b046040518363ffffffff1660e01b8152600401808373ffffffffffffffffffffffffffffffffffffffff16815260200182815260200192505050602060405180830381600087803b15801561248157600080fd5b505af1158015612495573d6000803e3d6000fd5b505050506040513d60208110156124ab57600080fd5b8101908080519060200190929190505050508073ffffffffffffffffffffffffffffffffffffffff1663a9059cbb600160009054906101000a900473ffffffffffffffffffffffffffffffffffffffff1661252e6103e86125176103e38961269090919063ffffffff16565b8161251e57fe5b048761272590919063ffffffff16565b6040518363ffffffff1660e01b8152600401808373ffffffffffffffffffffffffffffffffffffffff16815260200182815260200192505050602060405180830381600087803b15801561258157600080fd5b505af1158015612595573d6000803e3d6000fd5b505050506040513d60208110156125ab57600080fd5b8101908080519060200190929190505050506125d48383600601546127a890919063ffffffff16565b82600601819055507fb3a3087f9b9137e91e9c4760488a2de708d40c394b5adad9c7020ae944129363843360008434888860060154604051808881526020018773ffffffffffffffffffffffffffffffffffffffff1681526020018673ffffffffffffffffffffffffffffffffffffffff1681526020018573ffffffffffffffffffffffffffffffffffffffff16815260200184815260200183815260200182815260200197505050505050505060405180910390a150505050565b6000808214806126ad57508282838502925082816126aa57fe5b04145b61271f576040517f08c379a00000000000000000000000000000000000000000000000000000000081526004018080602001828103825260168152602001807f536166654d6174683a204d756c204f766572666c6f770000000000000000000081525060200191505060405180910390fd5b92915050565b60008282840391508111156127a2576040517f08c379a00000000000000000000000000000000000000000000000000000000081526004018080602001828103825260138152602001807f536166654d6174683a20556e646572666c6f770000000000000000000000000081525060200191505060405180910390fd5b92915050565b6000818284019150811015612825576040517f08c379a00000000000000000000000000000000000000000000000000000000081526004018080602001828103825260168152602001807f536166654d6174683a20416464204f766572666c6f770000000000000000000081525060200191505060405180910390fd5b9291505056fe796f752063616e277420627579206d6f7265207468616e2074686520616d6f756e74206f662074686520746f6b656e2072656d61696e696e672e796f75206861766520746f20706179206174206c6561737420746865207072696365207468652073656c6c65722077616e742e746869732066756e6374696f6e206973206f6e6c7920666f7220746865206f776e65722ea2646970667358221220b82263dab7b387c397c22c547eb16d393a43b34e18fb85d21834a7673896cf8764736f6c634300060c0033",
  "linkReferences": {},
  "deployedLinkReferences": {}
}