{
  "_format": "hh-sol-artifact-1",
  "contractName": "OBEX",
  "sourceName": "contracts/OBEX.sol",
  "abi": [
    {
      "inputs": [
        {
          "internalType": "uint16",
          "name": "_feePercent",
          "type": "uint16"
        }
      ],
      "stateMutability": "nonpayable",
      "type": "constructor"
    },
    {
      "anonymous": false,
      "inputs": [
        {
          "indexed": true,
          "internalType": "bytes32",
          "name": "orderId",
          "type": "bytes32"
        }
      ],
      "name": "Cancel",
      "type": "event"
    },
    {
      "anonymous": false,
      "inputs": [
        {
          "indexed": true,
          "internalType": "bytes32",
          "name": "orderId",
          "type": "bytes32"
        },
        {
          "indexed": true,
          "internalType": "address",
          "name": "maker",
          "type": "address"
        },
        {
          "indexed": false,
          "internalType": "address",
          "name": "tokenFromMaker",
          "type": "address"
        },
        {
          "indexed": false,
          "internalType": "address",
          "name": "tokenFromTaker",
          "type": "address"
        },
        {
          "indexed": false,
          "internalType": "uint256",
          "name": "amountFromMaker",
          "type": "uint256"
        },
        {
          "indexed": false,
          "internalType": "uint256",
          "name": "amountTokens",
          "type": "uint256"
        }
      ],
      "name": "Make",
      "type": "event"
    },
    {
      "anonymous": false,
      "inputs": [
        {
          "indexed": true,
          "internalType": "address",
          "name": "previousOwner",
          "type": "address"
        },
        {
          "indexed": true,
          "internalType": "address",
          "name": "newOwner",
          "type": "address"
        }
      ],
      "name": "OwnershipTransferred",
      "type": "event"
    },
    {
      "anonymous": false,
      "inputs": [
        {
          "indexed": true,
          "internalType": "bytes32",
          "name": "orderId",
          "type": "bytes32"
        },
        {
          "indexed": true,
          "internalType": "address",
          "name": "taker",
          "type": "address"
        },
        {
          "indexed": false,
          "internalType": "address",
          "name": "tokenFromMaker",
          "type": "address"
        },
        {
          "indexed": false,
          "internalType": "address",
          "name": "tokenFromTaker",
          "type": "address"
        },
        {
          "indexed": false,
          "internalType": "uint256",
          "name": "amountFromMaker",
          "type": "uint256"
        },
        {
          "indexed": false,
          "internalType": "uint256",
          "name": "amountThisTakerGet",
          "type": "uint256"
        },
        {
          "indexed": false,
          "internalType": "uint256",
          "name": "amountSold",
          "type": "uint256"
        },
        {
          "indexed": false,
          "internalType": "bool",
          "name": "isEnd",
          "type": "bool"
        }
      ],
      "name": "Take",
      "type": "event"
    },
    {
      "inputs": [],
      "name": "ETH_ADDRESS",
      "outputs": [
        {
          "internalType": "address",
          "name": "",
          "type": "address"
        }
      ],
      "stateMutability": "view",
      "type": "function"
    },
    {
      "inputs": [
        {
          "internalType": "address",
          "name": "_maker",
          "type": "address"
        }
      ],
      "name": "_ordersByMaker",
      "outputs": [
        {
          "internalType": "bytes32[]",
          "name": "",
          "type": "bytes32[]"
        }
      ],
      "stateMutability": "view",
      "type": "function"
    },
    {
      "inputs": [
        {
          "internalType": "address",
          "name": "_tokenA",
          "type": "address"
        },
        {
          "internalType": "address",
          "name": "_tokenB",
          "type": "address"
        }
      ],
      "name": "_ordersByTokens",
      "outputs": [
        {
          "internalType": "bytes32[]",
          "name": "",
          "type": "bytes32[]"
        }
      ],
      "stateMutability": "view",
      "type": "function"
    },
    {
      "inputs": [
        {
          "internalType": "bytes32",
          "name": "_orderId",
          "type": "bytes32"
        }
      ],
      "name": "cancel",
      "outputs": [],
      "stateMutability": "nonpayable",
      "type": "function"
    },
    {
      "inputs": [],
      "name": "feeAddress",
      "outputs": [
        {
          "internalType": "address",
          "name": "",
          "type": "address"
        }
      ],
      "stateMutability": "view",
      "type": "function"
    },
    {
      "inputs": [],
      "name": "feeETHAmounts",
      "outputs": [
        {
          "internalType": "uint256",
          "name": "",
          "type": "uint256"
        }
      ],
      "stateMutability": "view",
      "type": "function"
    },
    {
      "inputs": [],
      "name": "feePercent",
      "outputs": [
        {
          "internalType": "uint16",
          "name": "",
          "type": "uint16"
        }
      ],
      "stateMutability": "view",
      "type": "function"
    },
    {
      "inputs": [
        {
          "internalType": "address",
          "name": "",
          "type": "address"
        }
      ],
      "name": "feeTokenAmounts",
      "outputs": [
        {
          "internalType": "uint256",
          "name": "",
          "type": "uint256"
        }
      ],
      "stateMutability": "view",
      "type": "function"
    },
    {
      "inputs": [
        {
          "internalType": "address",
          "name": "_tokenFromTaker",
          "type": "address"
        },
        {
          "internalType": "uint256",
          "name": "_amountTokens",
          "type": "uint256"
        }
      ],
      "name": "makeOrderFromETHToTokens",
      "outputs": [],
      "stateMutability": "payable",
      "type": "function"
    },
    {
      "inputs": [
        {
          "internalType": "address",
          "name": "_tokenFromMaker",
          "type": "address"
        },
        {
          "internalType": "uint256",
          "name": "_amountFromMaker",
          "type": "uint256"
        },
        {
          "internalType": "uint256",
          "name": "_amountETH",
          "type": "uint256"
        }
      ],
      "name": "makeOrderFromTokensToETH",
      "outputs": [],
      "stateMutability": "nonpayable",
      "type": "function"
    },
    {
      "inputs": [
        {
          "internalType": "address",
          "name": "_maker",
          "type": "address"
        }
      ],
      "name": "makerOrderLength",
      "outputs": [
        {
          "internalType": "uint256",
          "name": "",
          "type": "uint256"
        }
      ],
      "stateMutability": "view",
      "type": "function"
    },
    {
      "inputs": [
        {
          "internalType": "address",
          "name": "",
          "type": "address"
        }
      ],
      "name": "nonces",
      "outputs": [
        {
          "internalType": "uint256",
          "name": "",
          "type": "uint256"
        }
      ],
      "stateMutability": "view",
      "type": "function"
    },
    {
      "inputs": [
        {
          "internalType": "bytes32",
          "name": "",
          "type": "bytes32"
        }
      ],
      "name": "orders",
      "outputs": [
        {
          "internalType": "address",
          "name": "maker",
          "type": "address"
        },
        {
          "internalType": "address",
          "name": "tokenFromMaker",
          "type": "address"
        },
        {
          "internalType": "address",
          "name": "tokenFromTaker",
          "type": "address"
        },
        {
          "internalType": "uint256",
          "name": "amountFromMaker",
          "type": "uint256"
        },
        {
          "internalType": "uint256",
          "name": "amountTokens",
          "type": "uint256"
        },
        {
          "internalType": "uint256",
          "name": "amountSold",
          "type": "uint256"
        },
        {
          "internalType": "bool",
          "name": "isEnd",
          "type": "bool"
        }
      ],
      "stateMutability": "view",
      "type": "function"
    },
    {
      "inputs": [
        {
          "internalType": "address",
          "name": "",
          "type": "address"
        },
        {
          "internalType": "uint256",
          "name": "",
          "type": "uint256"
        }
      ],
      "name": "ordersByMaker",
      "outputs": [
        {
          "internalType": "bytes32",
          "name": "",
          "type": "bytes32"
        }
      ],
      "stateMutability": "view",
      "type": "function"
    },
    {
      "inputs": [
        {
          "internalType": "address",
          "name": "",
          "type": "address"
        },
        {
          "internalType": "address",
          "name": "",
          "type": "address"
        },
        {
          "internalType": "uint256",
          "name": "",
          "type": "uint256"
        }
      ],
      "name": "ordersByTokens",
      "outputs": [
        {
          "internalType": "bytes32",
          "name": "",
          "type": "bytes32"
        }
      ],
      "stateMutability": "view",
      "type": "function"
    },
    {
      "inputs": [],
      "name": "owner",
      "outputs": [
        {
          "internalType": "address",
          "name": "",
          "type": "address"
        }
      ],
      "stateMutability": "view",
      "type": "function"
    },
    {
      "inputs": [],
      "name": "renounceOwnership",
      "outputs": [],
      "stateMutability": "nonpayable",
      "type": "function"
    },
    {
      "inputs": [
        {
          "internalType": "address",
          "name": "_feeAddress",
          "type": "address"
        }
      ],
      "name": "setFeeAddress",
      "outputs": [],
      "stateMutability": "nonpayable",
      "type": "function"
    },
    {
      "inputs": [
        {
          "internalType": "bytes32",
          "name": "_orderId",
          "type": "bytes32"
        },
        {
          "internalType": "uint256",
          "name": "_amountTakerPayTokens",
          "type": "uint256"
        },
        {
          "internalType": "uint256",
          "name": "_amountTakerRcvWOFee",
          "type": "uint256"
        }
      ],
      "name": "takeOrder",
      "outputs": [],
      "stateMutability": "payable",
      "type": "function"
    },
    {
      "inputs": [
        {
          "internalType": "address",
          "name": "_tokenFromMaker",
          "type": "address"
        },
        {
          "internalType": "address",
          "name": "_tokenFromTaker",
          "type": "address"
        }
      ],
      "name": "tokensOrderLength",
      "outputs": [
        {
          "internalType": "uint256",
          "name": "",
          "type": "uint256"
        }
      ],
      "stateMutability": "view",
      "type": "function"
    },
    {
      "inputs": [
        {
          "internalType": "address",
          "name": "newOwner",
          "type": "address"
        }
      ],
      "name": "transferOwnership",
      "outputs": [],
      "stateMutability": "nonpayable",
      "type": "function"
    },
    {
      "inputs": [
        {
          "internalType": "uint16",
          "name": "_percent",
          "type": "uint16"
        }
      ],
      "name": "updateFeePercent",
      "outputs": [],
      "stateMutability": "nonpayable",
      "type": "function"
    },
    {
      "inputs": [
        {
          "internalType": "address",
          "name": "_token",
          "type": "address"
        },
        {
          "internalType": "uint256",
          "name": "amount",
          "type": "uint256"
        }
      ],
      "name": "withdrawFee",
      "outputs": [],
      "stateMutability": "nonpayable",
      "type": "function"
    }
  ],
  "bytecode": "0x60806040523480156200001157600080fd5b5060405162003729380380620037298339818101604052810190620000379190620001be565b6000620000496200019f60201b60201c565b9050806000806101000a81548173ffffffffffffffffffffffffffffffffffffffff021916908373ffffffffffffffffffffffffffffffffffffffff1602179055508073ffffffffffffffffffffffffffffffffffffffff16600073ffffffffffffffffffffffffffffffffffffffff167f8be0079c531659141344cd1fd0a4f28419497f9722a3daafe3b4186f6b6457e060405160405180910390a350600180819055506127108161ffff1611156200013a576040517f08c379a0000000000000000000000000000000000000000000000000000000008152600401620001319062000211565b60405180910390fd5b33600660006101000a81548173ffffffffffffffffffffffffffffffffffffffff021916908373ffffffffffffffffffffffffffffffffffffffff16021790555080600660146101000a81548161ffff021916908361ffff1602179055505062000295565b600033905090565b600081519050620001b8816200027b565b92915050565b600060208284031215620001d157600080fd5b6000620001e184828501620001a7565b91505092915050565b6000620001f9601d8362000233565b9150620002068262000252565b602082019050919050565b600060208201905081810360008301526200022c81620001ea565b9050919050565b600082825260208201905092915050565b600061ffff82169050919050565b7f696e7075742076616c7565206973206d6f7265207468616e2031303025000000600082015250565b620002868162000244565b81146200029257600080fd5b50565b61348480620002a56000396000f3fe6080604052600436106101405760003560e01c80638da5cb5b116100b6578063e24d49311161006f578063e24d493114610488578063eaba01f0146104a4578063f0716201146104e1578063f2fde38b146104fd578063fd437f0414610526578063fd9be5221461056357610140565b80638da5cb5b146103725780639c3f1e901461039d578063a04a86bd146103e0578063a734f06e14610409578063bf59e0f814610434578063c4d252f51461045f57610140565b80634b54b43e116101085780634b54b43e14610264578063715018a6146102a15780637ecebe00146102b85780637fd6f15c146102f55780638705fcd41461032057806388dca5731461034957610140565b80630b7034a5146101455780632281f97b1461018257806325792a4d146101bf57806333580a52146101fc5780634127535814610239575b600080fd5b34801561015157600080fd5b5061016c60048036038101906101679190612490565b61058c565b6040516101799190612e40565b60405180910390f35b34801561018e57600080fd5b506101a960048036038101906101a491906124f5565b6105d8565b6040516101b69190612bea565b60405180910390f35b3480156101cb57600080fd5b506101e660048036038101906101e191906124b9565b610616565b6040516101f39190612bc8565b60405180910390f35b34801561020857600080fd5b50610223600480360381019061021e9190612544565b6106eb565b6040516102309190612bea565b60405180910390f35b34801561024557600080fd5b5061024e61071c565b60405161025b9190612a38565b60405180910390f35b34801561027057600080fd5b5061028b60048036038101906102869190612490565b610742565b6040516102989190612e40565b60405180910390f35b3480156102ad57600080fd5b506102b661075a565b005b3480156102c457600080fd5b506102df60048036038101906102da9190612490565b610894565b6040516102ec9190612e40565b60405180910390f35b34801561030157600080fd5b5061030a6108ac565b6040516103179190612e25565b60405180910390f35b34801561032c57600080fd5b5061034760048036038101906103429190612490565b6108c0565b005b34801561035557600080fd5b50610370600480360381019061036b9190612580565b610980565b005b34801561037e57600080fd5b50610387610ad6565b6040516103949190612a38565b60405180910390f35b3480156103a957600080fd5b506103c460048036038101906103bf91906125f8565b610aff565b6040516103d79796959493929190612a53565b60405180910390f35b3480156103ec57600080fd5b5061040760048036038101906104029190612670565b610bae565b005b34801561041557600080fd5b5061041e610c93565b60405161042b9190612a38565b60405180910390f35b34801561044057600080fd5b50610449610c98565b6040516104569190612e40565b60405180910390f35b34801561046b57600080fd5b50610486600480360381019061048191906125f8565b610c9e565b005b6104a2600480360381019061049d9190612621565b610fac565b005b3480156104b057600080fd5b506104cb60048036038101906104c69190612490565b611879565b6040516104d89190612bc8565b60405180910390f35b6104fb60048036038101906104f69190612544565b611910565b005b34801561050957600080fd5b50610524600480360381019061051f9190612490565b6119d5565b005b34801561053257600080fd5b5061054d600480360381019061054891906124b9565b611b7e565b60405161055a9190612e40565b60405180910390f35b34801561056f57600080fd5b5061058a60048036038101906105859190612544565b611c08565b005b6000600260008373ffffffffffffffffffffffffffffffffffffffff1673ffffffffffffffffffffffffffffffffffffffff168152602001908152602001600020805490509050919050565b6003602052826000526040600020602052816000526040600020818154811061060057600080fd5b9060005260206000200160009250925050505481565b6060600360008473ffffffffffffffffffffffffffffffffffffffff1673ffffffffffffffffffffffffffffffffffffffff16815260200190815260200160002060008373ffffffffffffffffffffffffffffffffffffffff1673ffffffffffffffffffffffffffffffffffffffff1681526020019081526020016000208054806020026020016040519081016040528092919081815260200182805480156106de57602002820191906000526020600020905b8154815260200190600101908083116106ca575b5050505050905092915050565b6002602052816000526040600020818154811061070757600080fd5b90600052602060002001600091509150505481565b600660009054906101000a900473ffffffffffffffffffffffffffffffffffffffff1681565b60086020528060005260406000206000915090505481565b61076261207e565b73ffffffffffffffffffffffffffffffffffffffff16610780610ad6565b73ffffffffffffffffffffffffffffffffffffffff16146107d6576040517f08c379a00000000000000000000000000000000000000000000000000000000081526004016107cd90612d05565b60405180910390fd5b600073ffffffffffffffffffffffffffffffffffffffff1660008054906101000a900473ffffffffffffffffffffffffffffffffffffffff1673ffffffffffffffffffffffffffffffffffffffff167f8be0079c531659141344cd1fd0a4f28419497f9722a3daafe3b4186f6b6457e060405160405180910390a360008060006101000a81548173ffffffffffffffffffffffffffffffffffffffff021916908373ffffffffffffffffffffffffffffffffffffffff160217905550565b60056020528060005260406000206000915090505481565b600660149054906101000a900461ffff1681565b6108c861207e565b73ffffffffffffffffffffffffffffffffffffffff166108e6610ad6565b73ffffffffffffffffffffffffffffffffffffffff161461093c576040517f08c379a000000000000000000000000000000000000000000000000000000000815260040161093390612d05565b60405180910390fd5b80600660006101000a81548173ffffffffffffffffffffffffffffffffffffffff021916908373ffffffffffffffffffffffffffffffffffffffff16021790555050565b600073ffffffffffffffffffffffffffffffffffffffff168373ffffffffffffffffffffffffffffffffffffffff1614156109f0576040517f08c379a00000000000000000000000000000000000000000000000000000000081526004016109e790612d85565b60405180910390fd5b6000821415610a34576040517f08c379a0000000000000000000000000000000000000000000000000000000008152600401610a2b90612d25565b60405180910390fd5b610a418360008484612086565b8273ffffffffffffffffffffffffffffffffffffffff166323b872dd3330856040518463ffffffff1660e01b8152600401610a7e93929190612ac2565b602060405180830381600087803b158015610a9857600080fd5b505af1158015610aac573d6000803e3d6000fd5b505050506040513d601f19601f82011682018060405250810190610ad091906125cf565b50505050565b60008060009054906101000a900473ffffffffffffffffffffffffffffffffffffffff16905090565b60046020528060005260406000206000915090508060000160009054906101000a900473ffffffffffffffffffffffffffffffffffffffff16908060010160009054906101000a900473ffffffffffffffffffffffffffffffffffffffff16908060020160009054906101000a900473ffffffffffffffffffffffffffffffffffffffff16908060030154908060040154908060050154908060060160009054906101000a900460ff16905087565b610bb661207e565b73ffffffffffffffffffffffffffffffffffffffff16610bd4610ad6565b73ffffffffffffffffffffffffffffffffffffffff1614610c2a576040517f08c379a0000000000000000000000000000000000000000000000000000000008152600401610c2190612d05565b60405180910390fd5b6127108161ffff161115610c73576040517f08c379a0000000000000000000000000000000000000000000000000000000008152600401610c6a90612d65565b60405180910390fd5b80600660146101000a81548161ffff021916908361ffff16021790555050565b600081565b60075481565b60026001541415610ce4576040517f08c379a0000000000000000000000000000000000000000000000000000000008152600401610cdb90612de5565b60405180910390fd5b6002600181905550600060046000838152602001908152602001600020905060008160000160009054906101000a900473ffffffffffffffffffffffffffffffffffffffff16905060008260010160009054906101000a900473ffffffffffffffffffffffffffffffffffffffff16905060008360030154905060008460050154905060008560060160009054906101000a900460ff1690503373ffffffffffffffffffffffffffffffffffffffff168573ffffffffffffffffffffffffffffffffffffffff1614610deb576040517f08c379a0000000000000000000000000000000000000000000000000000000008152600401610de290612dc5565b60405180910390fd5b8015610e2c576040517f08c379a0000000000000000000000000000000000000000000000000000000008152600401610e2390612c05565b60405180910390fd5b60018660060160006101000a81548160ff021916908315150217905550600073ffffffffffffffffffffffffffffffffffffffff168473ffffffffffffffffffffffffffffffffffffffff161415610ed5573373ffffffffffffffffffffffffffffffffffffffff166108fc8385610ea49190612f86565b9081150290604051600060405180830381858888f19350505050158015610ecf573d6000803e3d6000fd5b50610f6f565b8373ffffffffffffffffffffffffffffffffffffffff1663a9059cbb338486610efe9190612f86565b6040518363ffffffff1660e01b8152600401610f1b929190612b9f565b602060405180830381600087803b158015610f3557600080fd5b505af1158015610f49573d6000803e3d6000fd5b505050506040513d601f19601f82011682018060405250810190610f6d91906125cf565b505b867fe8d9861dbc9c663ed3accd261bbe2fe01e0d3d9e5f51fa38523b265c7757a93a60405160405180910390a25050505050506001808190555050565b60026001541415610ff2576040517f08c379a0000000000000000000000000000000000000000000000000000000008152600401610fe990612de5565b60405180910390fd5b6002600181905550600060046000858152602001908152602001600020905060008160000160009054906101000a900473ffffffffffffffffffffffffffffffffffffffff16905060008260010160009054906101000a900473ffffffffffffffffffffffffffffffffffffffff16905060008360020160009054906101000a900473ffffffffffffffffffffffffffffffffffffffff16905060008460030154905060008560040154905060008660050154905060008760060160009054906101000a900460ff1690503373ffffffffffffffffffffffffffffffffffffffff168773ffffffffffffffffffffffffffffffffffffffff16141561112c576040517f08c379a000000000000000000000000000000000000000000000000000000000815260040161112390612c65565b60405180910390fd5b6000151581151514611173576040517f08c379a000000000000000000000000000000000000000000000000000000000815260040161116a90612e05565b60405180910390fd5b818461117f9190612f86565b8911156111c1576040517f08c379a00000000000000000000000000000000000000000000000000000000081526004016111b890612ce5565b60405180910390fd5b600089836111cf9190612ea5565b905080896005018190555084811415611204576001915060018960060160006101000a81548160ff0219169083151502179055505b600073ffffffffffffffffffffffffffffffffffffffff168773ffffffffffffffffffffffffffffffffffffffff16141561156c576000341461127c576040517f08c379a000000000000000000000000000000000000000000000000000000000815260040161127390612d45565b60405180910390fd5b60008b14156112c0576040517f08c379a00000000000000000000000000000000000000000000000000000000081526004016112b790612cc5565b60405180910390fd5b89846112cc9190612f2c565b858c6112d89190612f2c565b1015611319576040517f08c379a000000000000000000000000000000000000000000000000000000000815260040161131090612c85565b60405180910390fd5b6000612710600660149054906101000a900461ffff1661ffff168d61133e9190612f2c565b6113489190612efb565b905080600860008973ffffffffffffffffffffffffffffffffffffffff1673ffffffffffffffffffffffffffffffffffffffff16815260200190815260200160002060008282546113999190612ea5565b925050819055508673ffffffffffffffffffffffffffffffffffffffff166323b872dd33308f6040518463ffffffff1660e01b81526004016113dd93929190612ac2565b602060405180830381600087803b1580156113f757600080fd5b505af115801561140b573d6000803e3d6000fd5b505050506040513d601f19601f8201168201806040525081019061142f91906125cf565b508673ffffffffffffffffffffffffffffffffffffffff1663a9059cbb8a838f6114599190612f86565b6040518363ffffffff1660e01b8152600401611476929190612b9f565b602060405180830381600087803b15801561149057600080fd5b505af11580156114a4573d6000803e3d6000fd5b505050506040513d601f19601f820116820180604052508101906114c891906125cf565b506000612710600660149054906101000a900461ffff1661ffff168d6114ee9190612f2c565b6114f89190612efb565b9050806007600082825461150c9190612ea5565b925050819055503373ffffffffffffffffffffffffffffffffffffffff166108fc828e6115399190612f86565b9081150290604051600060405180830381858888f19350505050158015611564573d6000803e3d6000fd5b50505061180b565b60008b146115af576040517f08c379a00000000000000000000000000000000000000000000000000000000081526004016115a690612da5565b60405180910390fd5b60003414156115f3576040517f08c379a00000000000000000000000000000000000000000000000000000000081526004016115ea90612ca5565b60405180910390fd5b89846115ff9190612f2c565b853461160b9190612f2c565b101561164c576040517f08c379a000000000000000000000000000000000000000000000000000000000815260040161164390612c85565b60405180910390fd5b6000612710600660149054906101000a900461ffff1661ffff16346116719190612f2c565b61167b9190612efb565b9050806007600082825461168f9190612ea5565b925050819055508873ffffffffffffffffffffffffffffffffffffffff166108fc82346116bc9190612f86565b9081150290604051600060405180830381858888f193505050501580156116e7573d6000803e3d6000fd5b506000612710600660149054906101000a900461ffff1661ffff168d61170d9190612f2c565b6117179190612efb565b905080600860008b73ffffffffffffffffffffffffffffffffffffffff1673ffffffffffffffffffffffffffffffffffffffff16815260200190815260200160002060008282546117689190612ea5565b925050819055508873ffffffffffffffffffffffffffffffffffffffff1663a9059cbb33838f6117989190612f86565b6040518363ffffffff1660e01b81526004016117b5929190612b9f565b602060405180830381600087803b1580156117cf57600080fd5b505af11580156117e3573d6000803e3d6000fd5b505050506040513d601f19601f8201168201806040525081019061180791906125cf565b5050505b3373ffffffffffffffffffffffffffffffffffffffff168c7fb7bff262e9e541441fc8fdbf72da6450a0d238715f6cecce1634def8838dc9f68989898f878960405161185c96959493929190612b3e565b60405180910390a350505050505050505060018081905550505050565b6060600260008373ffffffffffffffffffffffffffffffffffffffff1673ffffffffffffffffffffffffffffffffffffffff16815260200190815260200160002080548060200260200160405190810160405280929190818152602001828054801561190457602002820191906000526020600020905b8154815260200190600101908083116118f0575b50505050509050919050565b600073ffffffffffffffffffffffffffffffffffffffff168273ffffffffffffffffffffffffffffffffffffffff161415611980576040517f08c379a000000000000000000000000000000000000000000000000000000000815260040161197790612d85565b60405180910390fd5b60003414156119c4576040517f08c379a00000000000000000000000000000000000000000000000000000000081526004016119bb90612c45565b60405180910390fd5b6119d16000833484612086565b5050565b6119dd61207e565b73ffffffffffffffffffffffffffffffffffffffff166119fb610ad6565b73ffffffffffffffffffffffffffffffffffffffff1614611a51576040517f08c379a0000000000000000000000000000000000000000000000000000000008152600401611a4890612d05565b60405180910390fd5b600073ffffffffffffffffffffffffffffffffffffffff168173ffffffffffffffffffffffffffffffffffffffff161415611ac1576040517f08c379a0000000000000000000000000000000000000000000000000000000008152600401611ab890612c25565b60405180910390fd5b8073ffffffffffffffffffffffffffffffffffffffff1660008054906101000a900473ffffffffffffffffffffffffffffffffffffffff1673ffffffffffffffffffffffffffffffffffffffff167f8be0079c531659141344cd1fd0a4f28419497f9722a3daafe3b4186f6b6457e060405160405180910390a3806000806101000a81548173ffffffffffffffffffffffffffffffffffffffff021916908373ffffffffffffffffffffffffffffffffffffffff16021790555050565b6000600360008473ffffffffffffffffffffffffffffffffffffffff1673ffffffffffffffffffffffffffffffffffffffff16815260200190815260200160002060008373ffffffffffffffffffffffffffffffffffffffff1673ffffffffffffffffffffffffffffffffffffffff16815260200190815260200160002080549050905092915050565b60026001541415611c4e576040517f08c379a0000000000000000000000000000000000000000000000000000000008152600401611c4590612de5565b60405180910390fd5b6002600181905550600660009054906101000a900473ffffffffffffffffffffffffffffffffffffffff1673ffffffffffffffffffffffffffffffffffffffff163373ffffffffffffffffffffffffffffffffffffffff1614611ce6576040517f08c379a0000000000000000000000000000000000000000000000000000000008152600401611cdd90612dc5565b60405180910390fd5b600073ffffffffffffffffffffffffffffffffffffffff168273ffffffffffffffffffffffffffffffffffffffff161415611de6576007548111611d89578060076000828254611d369190612f86565b925050819055503373ffffffffffffffffffffffffffffffffffffffff166108fc829081150290604051600060405180830381858888f19350505050158015611d83573d6000803e3d6000fd5b50611de1565b6000600754905060006007819055503373ffffffffffffffffffffffffffffffffffffffff166108fc829081150290604051600060405180830381858888f19350505050158015611dde573d6000803e3d6000fd5b50505b612073565b600860008373ffffffffffffffffffffffffffffffffffffffff1673ffffffffffffffffffffffffffffffffffffffff168152602001908152602001600020548111611f375780600860008473ffffffffffffffffffffffffffffffffffffffff1673ffffffffffffffffffffffffffffffffffffffff1681526020019081526020016000206000828254611e7b9190612f86565b925050819055508173ffffffffffffffffffffffffffffffffffffffff1663a9059cbb600660009054906101000a900473ffffffffffffffffffffffffffffffffffffffff16836040518363ffffffff1660e01b8152600401611edf929190612b9f565b602060405180830381600087803b158015611ef957600080fd5b505af1158015611f0d573d6000803e3d6000fd5b505050506040513d601f19601f82011682018060405250810190611f3191906125cf565b50612072565b6000600860008473ffffffffffffffffffffffffffffffffffffffff1673ffffffffffffffffffffffffffffffffffffffff1681526020019081526020016000205490506000600860008573ffffffffffffffffffffffffffffffffffffffff1673ffffffffffffffffffffffffffffffffffffffff168152602001908152602001600020819055508273ffffffffffffffffffffffffffffffffffffffff1663a9059cbb600660009054906101000a900473ffffffffffffffffffffffffffffffffffffffff16836040518363ffffffff1660e01b815260040161201d929190612b9f565b602060405180830381600087803b15801561203757600080fd5b505af115801561204b573d6000803e3d6000fd5b505050506040513d601f19601f8201168201806040525081019061206f91906125cf565b50505b5b600180819055505050565b600033905090565b600061209333868661239c565b90506040518060e001604052803373ffffffffffffffffffffffffffffffffffffffff1681526020018673ffffffffffffffffffffffffffffffffffffffff1681526020018573ffffffffffffffffffffffffffffffffffffffff16815260200184815260200183815260200160008152602001600015158152506004600083815260200190815260200160002060008201518160000160006101000a81548173ffffffffffffffffffffffffffffffffffffffff021916908373ffffffffffffffffffffffffffffffffffffffff16021790555060208201518160010160006101000a81548173ffffffffffffffffffffffffffffffffffffffff021916908373ffffffffffffffffffffffffffffffffffffffff16021790555060408201518160020160006101000a81548173ffffffffffffffffffffffffffffffffffffffff021916908373ffffffffffffffffffffffffffffffffffffffff160217905550606082015181600301556080820151816004015560a0820151816005015560c08201518160060160006101000a81548160ff021916908315150217905550905050600260003373ffffffffffffffffffffffffffffffffffffffff1673ffffffffffffffffffffffffffffffffffffffff168152602001908152602001600020819080600181540180825580915050600190039060005260206000200160009091909190915055600360008673ffffffffffffffffffffffffffffffffffffffff1673ffffffffffffffffffffffffffffffffffffffff16815260200190815260200160002060008573ffffffffffffffffffffffffffffffffffffffff1673ffffffffffffffffffffffffffffffffffffffff1681526020019081526020016000208190806001815401808255809150506001900390600052602060002001600090919091909150553373ffffffffffffffffffffffffffffffffffffffff16817f0a1e03f0018d2d034e06e8c9c3d4578d28bab4a029443fe4f57367555d6e81e78787878760405161238d9493929190612af9565b60405180910390a35050505050565b6000838383600560008873ffffffffffffffffffffffffffffffffffffffff1673ffffffffffffffffffffffffffffffffffffffff16815260200190815260200160002060008154809291906123f19061301a565b9190505560405160200161240894939291906129ea565b6040516020818303038152906040528051906020012090509392505050565b600081359050612436816133db565b92915050565b60008151905061244b816133f2565b92915050565b60008135905061246081613409565b92915050565b60008135905061247581613420565b92915050565b60008135905061248a81613437565b92915050565b6000602082840312156124a257600080fd5b60006124b084828501612427565b91505092915050565b600080604083850312156124cc57600080fd5b60006124da85828601612427565b92505060206124eb85828601612427565b9150509250929050565b60008060006060848603121561250a57600080fd5b600061251886828701612427565b935050602061252986828701612427565b925050604061253a8682870161247b565b9150509250925092565b6000806040838503121561255757600080fd5b600061256585828601612427565b92505060206125768582860161247b565b9150509250929050565b60008060006060848603121561259557600080fd5b60006125a386828701612427565b93505060206125b48682870161247b565b92505060406125c58682870161247b565b9150509250925092565b6000602082840312156125e157600080fd5b60006125ef8482850161243c565b91505092915050565b60006020828403121561260a57600080fd5b600061261884828501612451565b91505092915050565b60008060006060848603121561263657600080fd5b600061264486828701612451565b93505060206126558682870161247b565b92505060406126668682870161247b565b9150509250925092565b60006020828403121561268257600080fd5b600061269084828501612466565b91505092915050565b60006126a58383612744565b60208301905092915050565b6126ba81612fba565b82525050565b6126d16126cc82612fba565b613063565b82525050565b60006126e282612e6b565b6126ec8185612e83565b93506126f783612e5b565b8060005b8381101561272857815161270f8882612699565b975061271a83612e76565b9250506001810190506126fb565b5085935050505092915050565b61273e81612fcc565b82525050565b61274d81612fd8565b82525050565b61275c81612fd8565b82525050565b600061276f600883612e94565b915061277a826130fc565b602082019050919050565b6000612792602683612e94565b915061279d82613125565b604082019050919050565b60006127b5600883612e94565b91506127c082613174565b602082019050919050565b60006127d8600a83612e94565b91506127e38261319d565b602082019050919050565b60006127fb600a83612e94565b9150612806826131c6565b602082019050919050565b600061281e600f83612e94565b9150612829826131ef565b602082019050919050565b6000612841601283612e94565b915061284c82613218565b602082019050919050565b6000612864600f83612e94565b915061286f82613241565b602082019050919050565b6000612887602083612e94565b91506128928261326a565b602082019050919050565b60006128aa600b83612e94565b91506128b582613293565b602082019050919050565b60006128cd601583612e94565b91506128d8826132bc565b602082019050919050565b60006128f0601d83612e94565b91506128fb826132e5565b602082019050919050565b6000612913600b83612e94565b915061291e8261330e565b602082019050919050565b6000612936601883612e94565b915061294182613337565b602082019050919050565b6000612959600d83612e94565b915061296482613360565b602082019050919050565b600061297c601f83612e94565b915061298782613389565b602082019050919050565b600061299f600983612e94565b91506129aa826133b2565b602082019050919050565b6129be81612fe2565b82525050565b6129cd81613010565b82525050565b6129e46129df82613010565b613087565b82525050565b60006129f682876126c0565b601482019150612a0682866126c0565b601482019150612a1682856126c0565b601482019150612a2682846129d3565b60208201915081905095945050505050565b6000602082019050612a4d60008301846126b1565b92915050565b600060e082019050612a68600083018a6126b1565b612a7560208301896126b1565b612a8260408301886126b1565b612a8f60608301876129c4565b612a9c60808301866129c4565b612aa960a08301856129c4565b612ab660c0830184612735565b98975050505050505050565b6000606082019050612ad760008301866126b1565b612ae460208301856126b1565b612af160408301846129c4565b949350505050565b6000608082019050612b0e60008301876126b1565b612b1b60208301866126b1565b612b2860408301856129c4565b612b3560608301846129c4565b95945050505050565b600060c082019050612b5360008301896126b1565b612b6060208301886126b1565b612b6d60408301876129c4565b612b7a60608301866129c4565b612b8760808301856129c4565b612b9460a0830184612735565b979650505050505050565b6000604082019050612bb460008301856126b1565b612bc160208301846129c4565b9392505050565b60006020820190508181036000830152612be281846126d7565b905092915050565b6000602082019050612bff6000830184612753565b92915050565b60006020820190508181036000830152612c1e81612762565b9050919050565b60006020820190508181036000830152612c3e81612785565b9050919050565b60006020820190508181036000830152612c5e816127a8565b9050919050565b60006020820190508181036000830152612c7e816127cb565b9050919050565b60006020820190508181036000830152612c9e816127ee565b9050919050565b60006020820190508181036000830152612cbe81612811565b9050919050565b60006020820190508181036000830152612cde81612834565b9050919050565b60006020820190508181036000830152612cfe81612857565b9050919050565b60006020820190508181036000830152612d1e8161287a565b9050919050565b60006020820190508181036000830152612d3e8161289d565b9050919050565b60006020820190508181036000830152612d5e816128c0565b9050919050565b60006020820190508181036000830152612d7e816128e3565b9050919050565b60006020820190508181036000830152612d9e81612906565b9050919050565b60006020820190508181036000830152612dbe81612929565b9050919050565b60006020820190508181036000830152612dde8161294c565b9050919050565b60006020820190508181036000830152612dfe8161296f565b9050919050565b60006020820190508181036000830152612e1e81612992565b9050919050565b6000602082019050612e3a60008301846129b5565b92915050565b6000602082019050612e5560008301846129c4565b92915050565b6000819050602082019050919050565b600081519050919050565b6000602082019050919050565b600082825260208201905092915050565b600082825260208201905092915050565b6000612eb082613010565b9150612ebb83613010565b9250827fffffffffffffffffffffffffffffffffffffffffffffffffffffffffffffffff03821115612ef057612eef613091565b5b828201905092915050565b6000612f0682613010565b9150612f1183613010565b925082612f2157612f206130c0565b5b828204905092915050565b6000612f3782613010565b9150612f4283613010565b9250817fffffffffffffffffffffffffffffffffffffffffffffffffffffffffffffffff0483118215151615612f7b57612f7a613091565b5b828202905092915050565b6000612f9182613010565b9150612f9c83613010565b925082821015612faf57612fae613091565b5b828203905092915050565b6000612fc582612ff0565b9050919050565b60008115159050919050565b6000819050919050565b600061ffff82169050919050565b600073ffffffffffffffffffffffffffffffffffffffff82169050919050565b6000819050919050565b600061302582613010565b91507fffffffffffffffffffffffffffffffffffffffffffffffffffffffffffffffff82141561305857613057613091565b5b600182019050919050565b600061306e82613075565b9050919050565b6000613080826130ef565b9050919050565b6000819050919050565b7f4e487b7100000000000000000000000000000000000000000000000000000000600052601160045260246000fd5b7f4e487b7100000000000000000000000000000000000000000000000000000000600052601260045260246000fd5b60008160601b9050919050565b7f4974277320656e64000000000000000000000000000000000000000000000000600082015250565b7f4f776e61626c653a206e6577206f776e657220697320746865207a65726f206160008201527f6464726573730000000000000000000000000000000000000000000000000000602082015250565b7f7a65726f20455448000000000000000000000000000000000000000000000000600082015250565b7f596f7572206f7264657200000000000000000000000000000000000000000000600082015250565b7f6c65737320707269636500000000000000000000000000000000000000000000600082015250565b7f4861766520746f20706179204554480000000000000000000000000000000000600082015250565b7f4861766520746f2070617920546f6b656e730000000000000000000000000000600082015250565b7f427579206c65737320616d6f756e740000000000000000000000000000000000600082015250565b7f4f776e61626c653a2063616c6c6572206973206e6f7420746865206f776e6572600082015250565b7f7a65726f20546f6b656e73000000000000000000000000000000000000000000600082015250565b7f446f6e2774206e65656420746f20706179204554480000000000000000000000600082015250565b7f696e7075742076616c7565206973206d6f7265207468616e2031303025000000600082015250565b7f57726f6e6720546f6b656e000000000000000000000000000000000000000000600082015250565b7f446f6e2774206e65656420746f2070617920546f6b656e730000000000000000600082015250565b7f4163636573732064656e69656400000000000000000000000000000000000000600082015250565b7f5265656e7472616e637947756172643a207265656e7472616e742063616c6c00600082015250565b7f49742773206f7665720000000000000000000000000000000000000000000000600082015250565b6133e481612fba565b81146133ef57600080fd5b50565b6133fb81612fcc565b811461340657600080fd5b50565b61341281612fd8565b811461341d57600080fd5b50565b61342981612fe2565b811461343457600080fd5b50565b61344081613010565b811461344b57600080fd5b5056fea2646970667358221220826a0307dcef971d6981c53d294fbd0593f1a6e698fa2417264738703fa0ae0b64736f6c63430008030033",
  "linkReferences": {},
  "deployedLinkReferences": {}
}