{
  "_format": "hh-sol-artifact-1",
  "contractName": "OBEX",
  "sourceName": "contracts/OBEX.sol",
  "abi": [
    {
      "inputs": [
        {
          "internalType": "uint16",
          "name": "_feePercent",
          "type": "uint16"
        }
      ],
      "stateMutability": "nonpayable",
      "type": "constructor"
    },
    {
      "anonymous": false,
      "inputs": [
        {
          "indexed": true,
          "internalType": "bytes32",
          "name": "orderId",
          "type": "bytes32"
        }
      ],
      "name": "Cancel",
      "type": "event"
    },
    {
      "anonymous": false,
      "inputs": [
        {
          "indexed": true,
          "internalType": "bytes32",
          "name": "orderId",
          "type": "bytes32"
        },
        {
          "indexed": true,
          "internalType": "address",
          "name": "maker",
          "type": "address"
        },
        {
          "indexed": false,
          "internalType": "address",
          "name": "tokenFromMaker",
          "type": "address"
        },
        {
          "indexed": false,
          "internalType": "address",
          "name": "tokenFromTaker",
          "type": "address"
        },
        {
          "indexed": false,
          "internalType": "uint256",
          "name": "amountFromMaker",
          "type": "uint256"
        },
        {
          "indexed": false,
          "internalType": "uint256",
          "name": "amountTokens",
          "type": "uint256"
        }
      ],
      "name": "Make",
      "type": "event"
    },
    {
      "anonymous": false,
      "inputs": [
        {
          "indexed": true,
          "internalType": "address",
          "name": "previousOwner",
          "type": "address"
        },
        {
          "indexed": true,
          "internalType": "address",
          "name": "newOwner",
          "type": "address"
        }
      ],
      "name": "OwnershipTransferred",
      "type": "event"
    },
    {
      "anonymous": false,
      "inputs": [
        {
          "indexed": true,
          "internalType": "bytes32",
          "name": "orderId",
          "type": "bytes32"
        },
        {
          "indexed": true,
          "internalType": "address",
          "name": "taker",
          "type": "address"
        },
        {
          "indexed": false,
          "internalType": "address",
          "name": "tokenFromMaker",
          "type": "address"
        },
        {
          "indexed": false,
          "internalType": "address",
          "name": "tokenFromTaker",
          "type": "address"
        },
        {
          "indexed": false,
          "internalType": "uint256",
          "name": "amountFromMaker",
          "type": "uint256"
        },
        {
          "indexed": false,
          "internalType": "uint256",
          "name": "amountThisTakerGet",
          "type": "uint256"
        },
        {
          "indexed": false,
          "internalType": "uint256",
          "name": "amountSold",
          "type": "uint256"
        },
        {
          "indexed": false,
          "internalType": "bool",
          "name": "isEnd",
          "type": "bool"
        }
      ],
      "name": "Take",
      "type": "event"
    },
    {
      "inputs": [],
      "name": "ETH_ADDRESS",
      "outputs": [
        {
          "internalType": "address",
          "name": "",
          "type": "address"
        }
      ],
      "stateMutability": "view",
      "type": "function"
    },
    {
      "inputs": [],
      "name": "beforeLastHash",
      "outputs": [
        {
          "internalType": "bytes32",
          "name": "",
          "type": "bytes32"
        }
      ],
      "stateMutability": "view",
      "type": "function"
    },
    {
      "inputs": [
        {
          "internalType": "bytes32",
          "name": "_orderId",
          "type": "bytes32"
        }
      ],
      "name": "cancel",
      "outputs": [],
      "stateMutability": "nonpayable",
      "type": "function"
    },
    {
      "inputs": [],
      "name": "feeAddress",
      "outputs": [
        {
          "internalType": "address",
          "name": "",
          "type": "address"
        }
      ],
      "stateMutability": "view",
      "type": "function"
    },
    {
      "inputs": [],
      "name": "feeETHAmounts",
      "outputs": [
        {
          "internalType": "uint256",
          "name": "",
          "type": "uint256"
        }
      ],
      "stateMutability": "view",
      "type": "function"
    },
    {
      "inputs": [],
      "name": "feePercent",
      "outputs": [
        {
          "internalType": "uint16",
          "name": "",
          "type": "uint16"
        }
      ],
      "stateMutability": "view",
      "type": "function"
    },
    {
      "inputs": [
        {
          "internalType": "address",
          "name": "",
          "type": "address"
        }
      ],
      "name": "feeTokenAmounts",
      "outputs": [
        {
          "internalType": "uint256",
          "name": "",
          "type": "uint256"
        }
      ],
      "stateMutability": "view",
      "type": "function"
    },
    {
      "inputs": [],
      "name": "lastHash",
      "outputs": [
        {
          "internalType": "bytes32",
          "name": "",
          "type": "bytes32"
        }
      ],
      "stateMutability": "view",
      "type": "function"
    },
    {
      "inputs": [
        {
          "internalType": "address",
          "name": "_tokenFromTaker",
          "type": "address"
        },
        {
          "internalType": "uint256",
          "name": "_amountTokens",
          "type": "uint256"
        }
      ],
      "name": "makeOrderFromETHToTokens",
      "outputs": [],
      "stateMutability": "payable",
      "type": "function"
    },
    {
      "inputs": [
        {
          "internalType": "address",
          "name": "_tokenFromMaker",
          "type": "address"
        },
        {
          "internalType": "uint256",
          "name": "_amountFromMaker",
          "type": "uint256"
        },
        {
          "internalType": "uint256",
          "name": "_amountETH",
          "type": "uint256"
        }
      ],
      "name": "makeOrderFromTokensToETH",
      "outputs": [],
      "stateMutability": "nonpayable",
      "type": "function"
    },
    {
      "inputs": [
        {
          "internalType": "address",
          "name": "_maker",
          "type": "address"
        }
      ],
      "name": "makerOrderLength",
      "outputs": [
        {
          "internalType": "uint256",
          "name": "",
          "type": "uint256"
        }
      ],
      "stateMutability": "view",
      "type": "function"
    },
    {
      "inputs": [
        {
          "internalType": "uint256",
          "name": "_page",
          "type": "uint256"
        },
        {
          "internalType": "uint256",
          "name": "_limit",
          "type": "uint256"
        }
      ],
      "name": "myOrder",
      "outputs": [
        {
          "internalType": "bytes32[]",
          "name": "orderIds",
          "type": "bytes32[]"
        },
        {
          "internalType": "address[]",
          "name": "tokenFromMaker",
          "type": "address[]"
        },
        {
          "internalType": "address[]",
          "name": "tokenFromTaker",
          "type": "address[]"
        },
        {
          "internalType": "uint256[]",
          "name": "amountFromMaker",
          "type": "uint256[]"
        },
        {
          "internalType": "uint256[]",
          "name": "amountTokens",
          "type": "uint256[]"
        },
        {
          "internalType": "uint256[]",
          "name": "amountSold",
          "type": "uint256[]"
        },
        {
          "internalType": "bool[]",
          "name": "isEnd",
          "type": "bool[]"
        }
      ],
      "stateMutability": "view",
      "type": "function"
    },
    {
      "inputs": [
        {
          "internalType": "address",
          "name": "_tokenA",
          "type": "address"
        },
        {
          "internalType": "address",
          "name": "_tokenB",
          "type": "address"
        },
        {
          "internalType": "uint256",
          "name": "_page",
          "type": "uint256"
        },
        {
          "internalType": "uint256",
          "name": "_limit",
          "type": "uint256"
        }
      ],
      "name": "orderBook",
      "outputs": [
        {
          "internalType": "bytes32[]",
          "name": "orderIds",
          "type": "bytes32[]"
        },
        {
          "internalType": "address[]",
          "name": "maker",
          "type": "address[]"
        },
        {
          "internalType": "uint256[]",
          "name": "amountFromMaker",
          "type": "uint256[]"
        },
        {
          "internalType": "uint256[]",
          "name": "amountTokens",
          "type": "uint256[]"
        },
        {
          "internalType": "uint256[]",
          "name": "amountSold",
          "type": "uint256[]"
        },
        {
          "internalType": "bool[]",
          "name": "isEnd",
          "type": "bool[]"
        }
      ],
      "stateMutability": "view",
      "type": "function"
    },
    {
      "inputs": [
        {
          "internalType": "bytes32",
          "name": "",
          "type": "bytes32"
        }
      ],
      "name": "orders",
      "outputs": [
        {
          "internalType": "address",
          "name": "maker",
          "type": "address"
        },
        {
          "internalType": "address",
          "name": "tokenFromMaker",
          "type": "address"
        },
        {
          "internalType": "address",
          "name": "tokenFromTaker",
          "type": "address"
        },
        {
          "internalType": "uint256",
          "name": "amountFromMaker",
          "type": "uint256"
        },
        {
          "internalType": "uint256",
          "name": "amountTokens",
          "type": "uint256"
        },
        {
          "internalType": "uint256",
          "name": "amountSold",
          "type": "uint256"
        },
        {
          "internalType": "bool",
          "name": "isEnd",
          "type": "bool"
        }
      ],
      "stateMutability": "view",
      "type": "function"
    },
    {
      "inputs": [
        {
          "internalType": "address",
          "name": "",
          "type": "address"
        },
        {
          "internalType": "uint256",
          "name": "",
          "type": "uint256"
        }
      ],
      "name": "ordersByMaker",
      "outputs": [
        {
          "internalType": "bytes32",
          "name": "",
          "type": "bytes32"
        }
      ],
      "stateMutability": "view",
      "type": "function"
    },
    {
      "inputs": [
        {
          "internalType": "address",
          "name": "",
          "type": "address"
        },
        {
          "internalType": "address",
          "name": "",
          "type": "address"
        },
        {
          "internalType": "uint256",
          "name": "",
          "type": "uint256"
        }
      ],
      "name": "ordersByTokens",
      "outputs": [
        {
          "internalType": "bytes32",
          "name": "",
          "type": "bytes32"
        }
      ],
      "stateMutability": "view",
      "type": "function"
    },
    {
      "inputs": [],
      "name": "owner",
      "outputs": [
        {
          "internalType": "address",
          "name": "",
          "type": "address"
        }
      ],
      "stateMutability": "view",
      "type": "function"
    },
    {
      "inputs": [],
      "name": "renounceOwnership",
      "outputs": [],
      "stateMutability": "nonpayable",
      "type": "function"
    },
    {
      "inputs": [
        {
          "internalType": "address",
          "name": "_feeAddress",
          "type": "address"
        }
      ],
      "name": "setFeeAddress",
      "outputs": [],
      "stateMutability": "nonpayable",
      "type": "function"
    },
    {
      "inputs": [
        {
          "internalType": "bytes32",
          "name": "_orderId",
          "type": "bytes32"
        },
        {
          "internalType": "uint256",
          "name": "_amountTakerPayTokens",
          "type": "uint256"
        },
        {
          "internalType": "uint256",
          "name": "_amountTakerRcvWOFee",
          "type": "uint256"
        }
      ],
      "name": "takeOrder",
      "outputs": [],
      "stateMutability": "payable",
      "type": "function"
    },
    {
      "inputs": [
        {
          "internalType": "address",
          "name": "_tokenFromMaker",
          "type": "address"
        },
        {
          "internalType": "address",
          "name": "_tokenFromTaker",
          "type": "address"
        }
      ],
      "name": "tokensOrderLength",
      "outputs": [
        {
          "internalType": "uint256",
          "name": "",
          "type": "uint256"
        }
      ],
      "stateMutability": "view",
      "type": "function"
    },
    {
      "inputs": [
        {
          "internalType": "address",
          "name": "newOwner",
          "type": "address"
        }
      ],
      "name": "transferOwnership",
      "outputs": [],
      "stateMutability": "nonpayable",
      "type": "function"
    },
    {
      "inputs": [
        {
          "internalType": "uint16",
          "name": "_percent",
          "type": "uint16"
        }
      ],
      "name": "updateFeePercent",
      "outputs": [],
      "stateMutability": "nonpayable",
      "type": "function"
    },
    {
      "inputs": [
        {
          "internalType": "address",
          "name": "_token",
          "type": "address"
        },
        {
          "internalType": "uint256",
          "name": "amount",
          "type": "uint256"
        }
      ],
      "name": "withdrawFee",
      "outputs": [],
      "stateMutability": "nonpayable",
      "type": "function"
    }
  ],
  "bytecode": "0x60806040523480156200001157600080fd5b50604051620054b2380380620054b2833981810160405281019062000037919062000172565b6000620000496200015360201b60201c565b9050806000806101000a81548173ffffffffffffffffffffffffffffffffffffffff021916908373ffffffffffffffffffffffffffffffffffffffff1602179055508073ffffffffffffffffffffffffffffffffffffffff16600073ffffffffffffffffffffffffffffffffffffffff167f8be0079c531659141344cd1fd0a4f28419497f9722a3daafe3b4186f6b6457e060405160405180910390a3506001808190555033600660006101000a81548173ffffffffffffffffffffffffffffffffffffffff021916908373ffffffffffffffffffffffffffffffffffffffff16021790555080600660146101000a81548161ffff021916908361ffff16021790555050620001c6565b600033905090565b6000815190506200016c81620001ac565b92915050565b6000602082840312156200018557600080fd5b600062000195848285016200015b565b91505092915050565b600061ffff82169050919050565b620001b7816200019e565b8114620001c357600080fd5b50565b6152dc80620001d66000396000f3fe60806040526004361061014b5760003560e01c80638da5cb5b116100b6578063dab277fa1161006f578063dab277fa146104b1578063e24d4931146104f4578063f071620114610510578063f2fde38b1461052c578063fd437f0414610555578063fd9be522146105925761014b565b80638da5cb5b1461039b5780639c3f1e90146103c6578063a04a86bd14610409578063a734f06e14610432578063bf59e0f81461045d578063c4d252f5146104885761014b565b80634b54b43e116101085780634b54b43e1461029f578063523a0dda146102dc578063715018a6146103075780637fd6f15c1461031e5780638705fcd41461034957806388dca573146103725761014b565b80630b7034a51461015057806315e14ac91461018d5780632281f97b146101cf57806333580a521461020c5780633fa21806146102495780634127535814610274575b600080fd5b34801561015c57600080fd5b5061017760048036038101906101729190613ef6565b6105bb565b6040516101849190614e90565b60405180910390f35b34801561019957600080fd5b506101b460048036038101906101af9190613faa565b610607565b6040516101c696959493929190614b8f565b60405180910390f35b3480156101db57600080fd5b506101f660048036038101906101f19190613f5b565b611302565b6040516102039190614c1a565b60405180910390f35b34801561021857600080fd5b50610233600480360381019061022e919061400d565b611340565b6040516102409190614c1a565b60405180910390f35b34801561025557600080fd5b5061025e611371565b60405161026b9190614c1a565b60405180910390f35b34801561028057600080fd5b50610289611377565b604051610296919061495f565b60405180910390f35b3480156102ab57600080fd5b506102c660048036038101906102c19190613ef6565b61139d565b6040516102d39190614e90565b60405180910390f35b3480156102e857600080fd5b506102f16113b5565b6040516102fe9190614c1a565b60405180910390f35b34801561031357600080fd5b5061031c6113bb565b005b34801561032a57600080fd5b506103336114f5565b6040516103409190614e75565b60405180910390f35b34801561035557600080fd5b50610370600480360381019061036b9190613ef6565b611509565b005b34801561037e57600080fd5b5061039960048036038101906103949190614049565b6115c9565b005b3480156103a757600080fd5b506103b061171f565b6040516103bd919061495f565b60405180910390f35b3480156103d257600080fd5b506103ed60048036038101906103e891906140c1565b611748565b604051610400979695949392919061497a565b60405180910390f35b34801561041557600080fd5b50610430600480360381019061042b9190614139565b6117f7565b005b34801561043e57600080fd5b506104476118dc565b604051610454919061495f565b60405180910390f35b34801561046957600080fd5b506104726118e1565b60405161047f9190614e90565b60405180910390f35b34801561049457600080fd5b506104af60048036038101906104aa91906140c1565b6118e7565b005b3480156104bd57600080fd5b506104d860048036038101906104d39190614162565b611bb8565b6040516104eb9796959493929190614aef565b60405180910390f35b61050e600480360381019061050991906140ea565b612a0f565b005b61052a6004803603810190610525919061400d565b6132cc565b005b34801561053857600080fd5b50610553600480360381019061054e9190613ef6565b613391565b005b34801561056157600080fd5b5061057c60048036038101906105779190613f1f565b61353a565b6040516105899190614e90565b60405180910390f35b34801561059e57600080fd5b506105b960048036038101906105b4919061400d565b6135c4565b005b6000600260008373ffffffffffffffffffffffffffffffffffffffff1673ffffffffffffffffffffffffffffffffffffffff168152602001908152602001600020805490509050919050565b6060806060806060806000600360008c73ffffffffffffffffffffffffffffffffffffffff1673ffffffffffffffffffffffffffffffffffffffff16815260200190815260200160002060008b73ffffffffffffffffffffffffffffffffffffffff1673ffffffffffffffffffffffffffffffffffffffff168152602001908152602001600020805490509050600088826106a29190615001565b9050600089836106b29190615197565b9050818b1015610cda578967ffffffffffffffff8111156106fc577f4e487b7100000000000000000000000000000000000000000000000000000000600052604160045260246000fd5b60405190808252806020026020018201604052801561072a5781602001602082028036833780820191505090505b5098508967ffffffffffffffff81111561076d577f4e487b7100000000000000000000000000000000000000000000000000000000600052604160045260246000fd5b60405190808252806020026020018201604052801561079b5781602001602082028036833780820191505090505b5097508967ffffffffffffffff8111156107de577f4e487b7100000000000000000000000000000000000000000000000000000000600052604160045260246000fd5b60405190808252806020026020018201604052801561080c5781602001602082028036833780820191505090505b5096508967ffffffffffffffff81111561084f577f4e487b7100000000000000000000000000000000000000000000000000000000600052604160045260246000fd5b60405190808252806020026020018201604052801561087d5781602001602082028036833780820191505090505b5095508967ffffffffffffffff8111156108c0577f4e487b7100000000000000000000000000000000000000000000000000000000600052604160045260246000fd5b6040519080825280602002602001820160405280156108ee5781602001602082028036833780820191505090505b5094508967ffffffffffffffff811115610931577f4e487b7100000000000000000000000000000000000000000000000000000000600052604160045260246000fd5b60405190808252806020026020018201604052801561095f5781602001602082028036833780820191505090505b50935060008a8c6109709190615032565b90505b8a60018d6109819190614fab565b61098b9190615032565b811015610cd457600360008f73ffffffffffffffffffffffffffffffffffffffff1673ffffffffffffffffffffffffffffffffffffffff16815260200190815260200160002060008e73ffffffffffffffffffffffffffffffffffffffff1673ffffffffffffffffffffffffffffffffffffffff1681526020019081526020016000208181548110610a46577f4e487b7100000000000000000000000000000000000000000000000000000000600052603260045260246000fd5b90600052602060002001548a8281518110610a8a577f4e487b7100000000000000000000000000000000000000000000000000000000600052603260045260246000fd5b6020026020010181815250506000600460008c8481518110610ad5577f4e487b7100000000000000000000000000000000000000000000000000000000600052603260045260246000fd5b6020026020010151815260200190815260200160002090508060000160009054906101000a900473ffffffffffffffffffffffffffffffffffffffff168a8381518110610b4b577f4e487b7100000000000000000000000000000000000000000000000000000000600052603260045260246000fd5b602002602001019073ffffffffffffffffffffffffffffffffffffffff16908173ffffffffffffffffffffffffffffffffffffffff16815250508060030154898381518110610bc3577f4e487b7100000000000000000000000000000000000000000000000000000000600052603260045260246000fd5b6020026020010181815250508060040154888381518110610c0d577f4e487b7100000000000000000000000000000000000000000000000000000000600052603260045260246000fd5b6020026020010181815250508060050154878381518110610c57577f4e487b7100000000000000000000000000000000000000000000000000000000600052603260045260246000fd5b6020026020010181815250508060060160009054906101000a900460ff16868381518110610cae577f4e487b7100000000000000000000000000000000000000000000000000000000600052603260045260246000fd5b602002602001019015159081151581525050508080610ccc90615120565b915050610973565b506112f2565b8067ffffffffffffffff811115610d1a577f4e487b7100000000000000000000000000000000000000000000000000000000600052604160045260246000fd5b604051908082528060200260200182016040528015610d485781602001602082028036833780820191505090505b5098508067ffffffffffffffff811115610d8b577f4e487b7100000000000000000000000000000000000000000000000000000000600052604160045260246000fd5b604051908082528060200260200182016040528015610db95781602001602082028036833780820191505090505b5097508067ffffffffffffffff811115610dfc577f4e487b7100000000000000000000000000000000000000000000000000000000600052604160045260246000fd5b604051908082528060200260200182016040528015610e2a5781602001602082028036833780820191505090505b5096508067ffffffffffffffff811115610e6d577f4e487b7100000000000000000000000000000000000000000000000000000000600052604160045260246000fd5b604051908082528060200260200182016040528015610e9b5781602001602082028036833780820191505090505b5095508067ffffffffffffffff811115610ede577f4e487b7100000000000000000000000000000000000000000000000000000000600052604160045260246000fd5b604051908082528060200260200182016040528015610f0c5781602001602082028036833780820191505090505b5094508067ffffffffffffffff811115610f4f577f4e487b7100000000000000000000000000000000000000000000000000000000600052604160045260246000fd5b604051908082528060200260200182016040528015610f7d5781602001602082028036833780820191505090505b50935060008a8c610f8e9190615032565b90505b818b8d610f9e9190615032565b610fa89190614fab565b81116112f057600360008f73ffffffffffffffffffffffffffffffffffffffff1673ffffffffffffffffffffffffffffffffffffffff16815260200190815260200160002060008e73ffffffffffffffffffffffffffffffffffffffff1673ffffffffffffffffffffffffffffffffffffffff1681526020019081526020016000208181548110611062577f4e487b7100000000000000000000000000000000000000000000000000000000600052603260045260246000fd5b90600052602060002001548a82815181106110a6577f4e487b7100000000000000000000000000000000000000000000000000000000600052603260045260246000fd5b6020026020010181815250506000600460008c84815181106110f1577f4e487b7100000000000000000000000000000000000000000000000000000000600052603260045260246000fd5b6020026020010151815260200190815260200160002090508060000160009054906101000a900473ffffffffffffffffffffffffffffffffffffffff168a8381518110611167577f4e487b7100000000000000000000000000000000000000000000000000000000600052603260045260246000fd5b602002602001019073ffffffffffffffffffffffffffffffffffffffff16908173ffffffffffffffffffffffffffffffffffffffff168152505080600301548983815181106111df577f4e487b7100000000000000000000000000000000000000000000000000000000600052603260045260246000fd5b6020026020010181815250508060040154888381518110611229577f4e487b7100000000000000000000000000000000000000000000000000000000600052603260045260246000fd5b6020026020010181815250508060050154878381518110611273577f4e487b7100000000000000000000000000000000000000000000000000000000600052603260045260246000fd5b6020026020010181815250508060060160009054906101000a900460ff168683815181106112ca577f4e487b7100000000000000000000000000000000000000000000000000000000600052603260045260246000fd5b6020026020010190151590811515815250505080806112e890615120565b915050610f91565b505b5050509499939850945094509450565b6003602052826000526040600020602052816000526040600020818154811061132a57600080fd5b9060005260206000200160009250925050505481565b6002602052816000526040600020818154811061135c57600080fd5b90600052602060002001600091509150505481565b60095481565b600660009054906101000a900473ffffffffffffffffffffffffffffffffffffffff1681565b60086020528060005260406000206000915090505481565b600a5481565b6113c36139a0565b73ffffffffffffffffffffffffffffffffffffffff166113e161171f565b73ffffffffffffffffffffffffffffffffffffffff1614611437576040517f08c379a000000000000000000000000000000000000000000000000000000000815260040161142e90614d55565b60405180910390fd5b600073ffffffffffffffffffffffffffffffffffffffff1660008054906101000a900473ffffffffffffffffffffffffffffffffffffffff1673ffffffffffffffffffffffffffffffffffffffff167f8be0079c531659141344cd1fd0a4f28419497f9722a3daafe3b4186f6b6457e060405160405180910390a360008060006101000a81548173ffffffffffffffffffffffffffffffffffffffff021916908373ffffffffffffffffffffffffffffffffffffffff160217905550565b600660149054906101000a900461ffff1681565b6115116139a0565b73ffffffffffffffffffffffffffffffffffffffff1661152f61171f565b73ffffffffffffffffffffffffffffffffffffffff1614611585576040517f08c379a000000000000000000000000000000000000000000000000000000000815260040161157c90614d55565b60405180910390fd5b80600660006101000a81548173ffffffffffffffffffffffffffffffffffffffff021916908373ffffffffffffffffffffffffffffffffffffffff16021790555050565b600073ffffffffffffffffffffffffffffffffffffffff168373ffffffffffffffffffffffffffffffffffffffff161415611639576040517f08c379a000000000000000000000000000000000000000000000000000000000815260040161163090614dd5565b60405180910390fd5b600082141561167d576040517f08c379a000000000000000000000000000000000000000000000000000000000815260040161167490614d75565b60405180910390fd5b61168a83600084846139a8565b8273ffffffffffffffffffffffffffffffffffffffff166323b872dd3330856040518463ffffffff1660e01b81526004016116c7939291906149e9565b602060405180830381600087803b1580156116e157600080fd5b505af11580156116f5573d6000803e3d6000fd5b505050506040513d601f19601f820116820180604052508101906117199190614098565b50505050565b60008060009054906101000a900473ffffffffffffffffffffffffffffffffffffffff16905090565b60046020528060005260406000206000915090508060000160009054906101000a900473ffffffffffffffffffffffffffffffffffffffff16908060010160009054906101000a900473ffffffffffffffffffffffffffffffffffffffff16908060020160009054906101000a900473ffffffffffffffffffffffffffffffffffffffff16908060030154908060040154908060050154908060060160009054906101000a900460ff16905087565b6117ff6139a0565b73ffffffffffffffffffffffffffffffffffffffff1661181d61171f565b73ffffffffffffffffffffffffffffffffffffffff1614611873576040517f08c379a000000000000000000000000000000000000000000000000000000000815260040161186a90614d55565b60405180910390fd5b6127108161ffff1611156118bc576040517f08c379a00000000000000000000000000000000000000000000000000000000081526004016118b390614db5565b60405180910390fd5b80600660146101000a81548161ffff021916908361ffff16021790555050565b600081565b60075481565b6002600154141561192d576040517f08c379a000000000000000000000000000000000000000000000000000000000815260040161192490614e35565b60405180910390fd5b6002600181905550600060046000838152602001908152602001600020905060008160000160009054906101000a900473ffffffffffffffffffffffffffffffffffffffff16905060008260010160009054906101000a900473ffffffffffffffffffffffffffffffffffffffff16905060008360030154905060008460050154905060008560060160009054906101000a900460ff1690503373ffffffffffffffffffffffffffffffffffffffff168573ffffffffffffffffffffffffffffffffffffffff1614611a34576040517f08c379a0000000000000000000000000000000000000000000000000000000008152600401611a2b90614e15565b60405180910390fd5b8015611a75576040517f08c379a0000000000000000000000000000000000000000000000000000000008152600401611a6c90614c35565b60405180910390fd5b60018660060160006101000a81548160ff021916908315150217905550600073ffffffffffffffffffffffffffffffffffffffff168473ffffffffffffffffffffffffffffffffffffffff161415611ae157611adc338385611ad7919061508c565b613cbe565b611b7b565b8373ffffffffffffffffffffffffffffffffffffffff1663a9059cbb338486611b0a919061508c565b6040518363ffffffff1660e01b8152600401611b27929190614ac6565b602060405180830381600087803b158015611b4157600080fd5b505af1158015611b55573d6000803e3d6000fd5b505050506040513d601f19601f82011682018060405250810190611b799190614098565b505b867fe8d9861dbc9c663ed3accd261bbe2fe01e0d3d9e5f51fa38523b265c7757a93a60405160405180910390a25050505050506001808190555050565b60608060608060608060606000600260003373ffffffffffffffffffffffffffffffffffffffff1673ffffffffffffffffffffffffffffffffffffffff16815260200190815260200160002080549050905060008982611c189190615001565b905060008a83611c289190615197565b9050818c101561231c578a67ffffffffffffffff811115611c72577f4e487b7100000000000000000000000000000000000000000000000000000000600052604160045260246000fd5b604051908082528060200260200182016040528015611ca05781602001602082028036833780820191505090505b5099508a67ffffffffffffffff811115611ce3577f4e487b7100000000000000000000000000000000000000000000000000000000600052604160045260246000fd5b604051908082528060200260200182016040528015611d115781602001602082028036833780820191505090505b5098508a67ffffffffffffffff811115611d54577f4e487b7100000000000000000000000000000000000000000000000000000000600052604160045260246000fd5b604051908082528060200260200182016040528015611d825781602001602082028036833780820191505090505b5097508a67ffffffffffffffff811115611dc5577f4e487b7100000000000000000000000000000000000000000000000000000000600052604160045260246000fd5b604051908082528060200260200182016040528015611df35781602001602082028036833780820191505090505b5096508a67ffffffffffffffff811115611e36577f4e487b7100000000000000000000000000000000000000000000000000000000600052604160045260246000fd5b604051908082528060200260200182016040528015611e645781602001602082028036833780820191505090505b5095508a67ffffffffffffffff811115611ea7577f4e487b7100000000000000000000000000000000000000000000000000000000600052604160045260246000fd5b604051908082528060200260200182016040528015611ed55781602001602082028036833780820191505090505b5094508a67ffffffffffffffff811115611f18577f4e487b7100000000000000000000000000000000000000000000000000000000600052604160045260246000fd5b604051908082528060200260200182016040528015611f465781602001602082028036833780820191505090505b50935060008b8d611f579190615032565b90505b8b60018e611f689190614fab565b611f729190615032565b81101561231657600260003373ffffffffffffffffffffffffffffffffffffffff1673ffffffffffffffffffffffffffffffffffffffff1681526020019081526020016000208181548110611ff0577f4e487b7100000000000000000000000000000000000000000000000000000000600052603260045260246000fd5b90600052602060002001548b8281518110612034577f4e487b7100000000000000000000000000000000000000000000000000000000600052603260045260246000fd5b6020026020010181815250506000600460008d848151811061207f577f4e487b7100000000000000000000000000000000000000000000000000000000600052603260045260246000fd5b6020026020010151815260200190815260200160002090508060010160009054906101000a900473ffffffffffffffffffffffffffffffffffffffff168b83815181106120f5577f4e487b7100000000000000000000000000000000000000000000000000000000600052603260045260246000fd5b602002602001019073ffffffffffffffffffffffffffffffffffffffff16908173ffffffffffffffffffffffffffffffffffffffff16815250508060020160009054906101000a900473ffffffffffffffffffffffffffffffffffffffff168a838151811061218d577f4e487b7100000000000000000000000000000000000000000000000000000000600052603260045260246000fd5b602002602001019073ffffffffffffffffffffffffffffffffffffffff16908173ffffffffffffffffffffffffffffffffffffffff16815250508060030154898381518110612205577f4e487b7100000000000000000000000000000000000000000000000000000000600052603260045260246000fd5b602002602001018181525050806004015488838151811061224f577f4e487b7100000000000000000000000000000000000000000000000000000000600052603260045260246000fd5b6020026020010181815250508060050154878381518110612299577f4e487b7100000000000000000000000000000000000000000000000000000000600052603260045260246000fd5b6020026020010181815250508060060160009054906101000a900460ff168683815181106122f0577f4e487b7100000000000000000000000000000000000000000000000000000000600052603260045260246000fd5b60200260200101901515908115158152505050808061230e90615120565b915050611f5a565b50612a00565b8067ffffffffffffffff81111561235c577f4e487b7100000000000000000000000000000000000000000000000000000000600052604160045260246000fd5b60405190808252806020026020018201604052801561238a5781602001602082028036833780820191505090505b5099508067ffffffffffffffff8111156123cd577f4e487b7100000000000000000000000000000000000000000000000000000000600052604160045260246000fd5b6040519080825280602002602001820160405280156123fb5781602001602082028036833780820191505090505b5098508067ffffffffffffffff81111561243e577f4e487b7100000000000000000000000000000000000000000000000000000000600052604160045260246000fd5b60405190808252806020026020018201604052801561246c5781602001602082028036833780820191505090505b5097508067ffffffffffffffff8111156124af577f4e487b7100000000000000000000000000000000000000000000000000000000600052604160045260246000fd5b6040519080825280602002602001820160405280156124dd5781602001602082028036833780820191505090505b5096508067ffffffffffffffff811115612520577f4e487b7100000000000000000000000000000000000000000000000000000000600052604160045260246000fd5b60405190808252806020026020018201604052801561254e5781602001602082028036833780820191505090505b5095508067ffffffffffffffff811115612591577f4e487b7100000000000000000000000000000000000000000000000000000000600052604160045260246000fd5b6040519080825280602002602001820160405280156125bf5781602001602082028036833780820191505090505b5094508067ffffffffffffffff811115612602577f4e487b7100000000000000000000000000000000000000000000000000000000600052604160045260246000fd5b6040519080825280602002602001820160405280156126305781602001602082028036833780820191505090505b50935060008b8d6126419190615032565b90505b818c8e6126519190615032565b61265b9190614fab565b81116129fe57600260003373ffffffffffffffffffffffffffffffffffffffff1673ffffffffffffffffffffffffffffffffffffffff16815260200190815260200160002081815481106126d8577f4e487b7100000000000000000000000000000000000000000000000000000000600052603260045260246000fd5b90600052602060002001548b828151811061271c577f4e487b7100000000000000000000000000000000000000000000000000000000600052603260045260246000fd5b6020026020010181815250506000600460008d8481518110612767577f4e487b7100000000000000000000000000000000000000000000000000000000600052603260045260246000fd5b6020026020010151815260200190815260200160002090508060010160009054906101000a900473ffffffffffffffffffffffffffffffffffffffff168b83815181106127dd577f4e487b7100000000000000000000000000000000000000000000000000000000600052603260045260246000fd5b602002602001019073ffffffffffffffffffffffffffffffffffffffff16908173ffffffffffffffffffffffffffffffffffffffff16815250508060020160009054906101000a900473ffffffffffffffffffffffffffffffffffffffff168a8381518110612875577f4e487b7100000000000000000000000000000000000000000000000000000000600052603260045260246000fd5b602002602001019073ffffffffffffffffffffffffffffffffffffffff16908173ffffffffffffffffffffffffffffffffffffffff168152505080600301548983815181106128ed577f4e487b7100000000000000000000000000000000000000000000000000000000600052603260045260246000fd5b6020026020010181815250508060040154888381518110612937577f4e487b7100000000000000000000000000000000000000000000000000000000600052603260045260246000fd5b6020026020010181815250508060050154878381518110612981577f4e487b7100000000000000000000000000000000000000000000000000000000600052603260045260246000fd5b6020026020010181815250508060060160009054906101000a900460ff168683815181106129d8577f4e487b7100000000000000000000000000000000000000000000000000000000600052603260045260246000fd5b6020026020010190151590811515815250505080806129f690615120565b915050612644565b505b50505092959891949750929550565b60026001541415612a55576040517f08c379a0000000000000000000000000000000000000000000000000000000008152600401612a4c90614e35565b60405180910390fd5b6002600181905550600060046000858152602001908152602001600020905060008160000160009054906101000a900473ffffffffffffffffffffffffffffffffffffffff16905060008260010160009054906101000a900473ffffffffffffffffffffffffffffffffffffffff16905060008360020160009054906101000a900473ffffffffffffffffffffffffffffffffffffffff16905060008460030154905060008560040154905060008660050154905060008760060160009054906101000a900460ff1690503373ffffffffffffffffffffffffffffffffffffffff168773ffffffffffffffffffffffffffffffffffffffff161415612b8f576040517f08c379a0000000000000000000000000000000000000000000000000000000008152600401612b8690614cb5565b60405180910390fd5b6000151581151514612bd6576040517f08c379a0000000000000000000000000000000000000000000000000000000008152600401612bcd90614e55565b60405180910390fd5b8184612be2919061508c565b891115612c24576040517f08c379a0000000000000000000000000000000000000000000000000000000008152600401612c1b90614d35565b60405180910390fd5b60008983612c329190614fab565b905080896005018190555084811415612c67576001915060018960060160006101000a81548160ff0219169083151502179055505b600073ffffffffffffffffffffffffffffffffffffffff168773ffffffffffffffffffffffffffffffffffffffff161415612fc75760003414612cdf576040517f08c379a0000000000000000000000000000000000000000000000000000000008152600401612cd690614d95565b60405180910390fd5b60008b1415612d23576040517f08c379a0000000000000000000000000000000000000000000000000000000008152600401612d1a90614d15565b60405180910390fd5b8484612d2f9190615001565b8a8c612d3b9190615001565b1015612d7c576040517f08c379a0000000000000000000000000000000000000000000000000000000008152600401612d7390614cd5565b60405180910390fd5b612710600660149054906101000a900461ffff1661ffff168c612d9f9190615032565b612da99190615001565b600860008873ffffffffffffffffffffffffffffffffffffffff1673ffffffffffffffffffffffffffffffffffffffff1681526020019081526020016000206000828254612df79190614fab565b925050819055508573ffffffffffffffffffffffffffffffffffffffff166323b872dd33308e6040518463ffffffff1660e01b8152600401612e3b939291906149e9565b602060405180830381600087803b158015612e5557600080fd5b505af1158015612e69573d6000803e3d6000fd5b505050506040513d601f19601f82011682018060405250810190612e8d9190614098565b508573ffffffffffffffffffffffffffffffffffffffff1663a9059cbb89600860008a73ffffffffffffffffffffffffffffffffffffffff1673ffffffffffffffffffffffffffffffffffffffff168152602001908152602001600020548e612ef6919061508c565b6040518363ffffffff1660e01b8152600401612f13929190614ac6565b602060405180830381600087803b158015612f2d57600080fd5b505af1158015612f41573d6000803e3d6000fd5b505050506040513d601f19601f82011682018060405250810190612f659190614098565b50612710600660149054906101000a900461ffff1661ffff168b612f899190615032565b612f939190615001565b60076000828254612fa49190614fab565b92505081905550612fc2336007548c612fbd919061508c565b613cbe565b61325e565b60008b1461300a576040517f08c379a000000000000000000000000000000000000000000000000000000000815260040161300190614df5565b60405180910390fd5b600034141561304e576040517f08c379a000000000000000000000000000000000000000000000000000000000815260040161304590614cf5565b60405180910390fd5b848461305a9190615001565b8a346130669190615001565b10156130a7576040517f08c379a000000000000000000000000000000000000000000000000000000000815260040161309e90614cd5565b60405180910390fd5b612710600660149054906101000a900461ffff1661ffff16346130ca9190615032565b6130d49190615001565b600760008282546130e59190614fab565b9250508190555061310388600754346130fe919061508c565b613cbe565b612710600660149054906101000a900461ffff1661ffff168b6131269190615032565b6131309190615001565b600860008973ffffffffffffffffffffffffffffffffffffffff1673ffffffffffffffffffffffffffffffffffffffff168152602001908152602001600020600082825461317e9190614fab565b925050819055508673ffffffffffffffffffffffffffffffffffffffff1663a9059cbb33600860008b73ffffffffffffffffffffffffffffffffffffffff1673ffffffffffffffffffffffffffffffffffffffff168152602001908152602001600020548d6131ed919061508c565b6040518363ffffffff1660e01b815260040161320a929190614ac6565b602060405180830381600087803b15801561322457600080fd5b505af1158015613238573d6000803e3d6000fd5b505050506040513d601f19601f8201168201806040525081019061325c9190614098565b505b3373ffffffffffffffffffffffffffffffffffffffff168c7fb7bff262e9e541441fc8fdbf72da6450a0d238715f6cecce1634def8838dc9f68989898f87896040516132af96959493929190614a65565b60405180910390a350505050505050505060018081905550505050565b600073ffffffffffffffffffffffffffffffffffffffff168273ffffffffffffffffffffffffffffffffffffffff16141561333c576040517f08c379a000000000000000000000000000000000000000000000000000000000815260040161333390614dd5565b60405180910390fd5b6000341415613380576040517f08c379a000000000000000000000000000000000000000000000000000000000815260040161337790614c95565b60405180910390fd5b61338d60008334846139a8565b5050565b6133996139a0565b73ffffffffffffffffffffffffffffffffffffffff166133b761171f565b73ffffffffffffffffffffffffffffffffffffffff161461340d576040517f08c379a000000000000000000000000000000000000000000000000000000000815260040161340490614d55565b60405180910390fd5b600073ffffffffffffffffffffffffffffffffffffffff168173ffffffffffffffffffffffffffffffffffffffff16141561347d576040517f08c379a000000000000000000000000000000000000000000000000000000000815260040161347490614c55565b60405180910390fd5b8073ffffffffffffffffffffffffffffffffffffffff1660008054906101000a900473ffffffffffffffffffffffffffffffffffffffff1673ffffffffffffffffffffffffffffffffffffffff167f8be0079c531659141344cd1fd0a4f28419497f9722a3daafe3b4186f6b6457e060405160405180910390a3806000806101000a81548173ffffffffffffffffffffffffffffffffffffffff021916908373ffffffffffffffffffffffffffffffffffffffff16021790555050565b6000600360008473ffffffffffffffffffffffffffffffffffffffff1673ffffffffffffffffffffffffffffffffffffffff16815260200190815260200160002060008373ffffffffffffffffffffffffffffffffffffffff1673ffffffffffffffffffffffffffffffffffffffff16815260200190815260200160002080549050905092915050565b6135cc6139a0565b73ffffffffffffffffffffffffffffffffffffffff166135ea61171f565b73ffffffffffffffffffffffffffffffffffffffff1614613640576040517f08c379a000000000000000000000000000000000000000000000000000000000815260040161363790614d55565b60405180910390fd5b60026001541415613686576040517f08c379a000000000000000000000000000000000000000000000000000000000815260040161367d90614e35565b60405180910390fd5b6002600181905550600073ffffffffffffffffffffffffffffffffffffffff168273ffffffffffffffffffffffffffffffffffffffff16141561370e5760075481116136f45780600760008282546136de919061508c565b925050819055506136ef3382613cbe565b613709565b600060078190555061370833600754613cbe565b5b613995565b600860008373ffffffffffffffffffffffffffffffffffffffff1673ffffffffffffffffffffffffffffffffffffffff16815260200190815260200160002054811161385f5780600860008473ffffffffffffffffffffffffffffffffffffffff1673ffffffffffffffffffffffffffffffffffffffff16815260200190815260200160002060008282546137a3919061508c565b925050819055508173ffffffffffffffffffffffffffffffffffffffff1663a9059cbb600660009054906101000a900473ffffffffffffffffffffffffffffffffffffffff16836040518363ffffffff1660e01b8152600401613807929190614ac6565b602060405180830381600087803b15801561382157600080fd5b505af1158015613835573d6000803e3d6000fd5b505050506040513d601f19601f820116820180604052508101906138599190614098565b50613994565b6000600860008473ffffffffffffffffffffffffffffffffffffffff1673ffffffffffffffffffffffffffffffffffffffff168152602001908152602001600020819055508173ffffffffffffffffffffffffffffffffffffffff1663a9059cbb600660009054906101000a900473ffffffffffffffffffffffffffffffffffffffff16600860008673ffffffffffffffffffffffffffffffffffffffff1673ffffffffffffffffffffffffffffffffffffffff168152602001908152602001600020546040518363ffffffff1660e01b8152600401613940929190614ac6565b602060405180830381600087803b15801561395a57600080fd5b505af115801561396e573d6000803e3d6000fd5b505050506040513d601f19601f820116820180604052508101906139929190614098565b505b5b600180819055505050565b600033905090565b60006139b5338686613d6f565b90506040518060e001604052803373ffffffffffffffffffffffffffffffffffffffff1681526020018673ffffffffffffffffffffffffffffffffffffffff1681526020018573ffffffffffffffffffffffffffffffffffffffff16815260200184815260200183815260200160008152602001600015158152506004600083815260200190815260200160002060008201518160000160006101000a81548173ffffffffffffffffffffffffffffffffffffffff021916908373ffffffffffffffffffffffffffffffffffffffff16021790555060208201518160010160006101000a81548173ffffffffffffffffffffffffffffffffffffffff021916908373ffffffffffffffffffffffffffffffffffffffff16021790555060408201518160020160006101000a81548173ffffffffffffffffffffffffffffffffffffffff021916908373ffffffffffffffffffffffffffffffffffffffff160217905550606082015181600301556080820151816004015560a0820151816005015560c08201518160060160006101000a81548160ff021916908315150217905550905050600260003373ffffffffffffffffffffffffffffffffffffffff1673ffffffffffffffffffffffffffffffffffffffff168152602001908152602001600020819080600181540180825580915050600190039060005260206000200160009091909190915055600360008673ffffffffffffffffffffffffffffffffffffffff1673ffffffffffffffffffffffffffffffffffffffff16815260200190815260200160002060008573ffffffffffffffffffffffffffffffffffffffff1673ffffffffffffffffffffffffffffffffffffffff1681526020019081526020016000208190806001815401808255809150506001900390600052602060002001600090919091909150553373ffffffffffffffffffffffffffffffffffffffff16817f0a1e03f0018d2d034e06e8c9c3d4578d28bab4a029443fe4f57367555d6e81e787878787604051613caf9493929190614a20565b60405180910390a35050505050565b60008273ffffffffffffffffffffffffffffffffffffffff1682604051613ce4906148eb565b60006040518083038185875af1925050503d8060008114613d21576040519150601f19603f3d011682016040523d82523d6000602084013e613d26565b606091505b5050905080613d6a576040517f08c379a0000000000000000000000000000000000000000000000000000000008152600401613d6190614c75565b60405180910390fd5b505050565b6000600954600a8190555043848484600560008973ffffffffffffffffffffffffffffffffffffffff1673ffffffffffffffffffffffffffffffffffffffff1681526020019081526020016000206000815480929190613dce90615120565b91905055604051602001613de6959493929190614900565b6040516020818303038152906040528051906020012060098190555043848484600560008973ffffffffffffffffffffffffffffffffffffffff1673ffffffffffffffffffffffffffffffffffffffff1681526020019081526020016000206000815480929190613e5690615120565b91905055604051602001613e6e959493929190614900565b6040516020818303038152906040528051906020012090509392505050565b600081359050613e9c81615233565b92915050565b600081519050613eb18161524a565b92915050565b600081359050613ec681615261565b92915050565b600081359050613edb81615278565b92915050565b600081359050613ef08161528f565b92915050565b600060208284031215613f0857600080fd5b6000613f1684828501613e8d565b91505092915050565b60008060408385031215613f3257600080fd5b6000613f4085828601613e8d565b9250506020613f5185828601613e8d565b9150509250929050565b600080600060608486031215613f7057600080fd5b6000613f7e86828701613e8d565b9350506020613f8f86828701613e8d565b9250506040613fa086828701613ee1565b9150509250925092565b60008060008060808587031215613fc057600080fd5b6000613fce87828801613e8d565b9450506020613fdf87828801613e8d565b9350506040613ff087828801613ee1565b925050606061400187828801613ee1565b91505092959194509250565b6000806040838503121561402057600080fd5b600061402e85828601613e8d565b925050602061403f85828601613ee1565b9150509250929050565b60008060006060848603121561405e57600080fd5b600061406c86828701613e8d565b935050602061407d86828701613ee1565b925050604061408e86828701613ee1565b9150509250925092565b6000602082840312156140aa57600080fd5b60006140b884828501613ea2565b91505092915050565b6000602082840312156140d357600080fd5b60006140e184828501613eb7565b91505092915050565b6000806000606084860312156140ff57600080fd5b600061410d86828701613eb7565b935050602061411e86828701613ee1565b925050604061412f86828701613ee1565b9150509250925092565b60006020828403121561414b57600080fd5b600061415984828501613ecc565b91505092915050565b6000806040838503121561417557600080fd5b600061418385828601613ee1565b925050602061419485828601613ee1565b9150509250929050565b60006141aa83836141fe565b60208301905092915050565b60006141c283836143ab565b60208301905092915050565b60006141da83836143c9565b60208301905092915050565b60006141f283836148b6565b60208301905092915050565b614207816150c0565b82525050565b614216816150c0565b82525050565b61422d614228826150c0565b615169565b82525050565b600061423e82614eeb565b6142488185614f4b565b935061425383614eab565b8060005b8381101561428457815161426b888261419e565b975061427683614f17565b925050600181019050614257565b5085935050505092915050565b600061429c82614ef6565b6142a68185614f5c565b93506142b183614ebb565b8060005b838110156142e25781516142c988826141b6565b97506142d483614f24565b9250506001810190506142b5565b5085935050505092915050565b60006142fa82614f01565b6143048185614f6d565b935061430f83614ecb565b8060005b8381101561434057815161432788826141ce565b975061433283614f31565b925050600181019050614313565b5085935050505092915050565b600061435882614f0c565b6143628185614f7e565b935061436d83614edb565b8060005b8381101561439e57815161438588826141e6565b975061439083614f3e565b925050600181019050614371565b5085935050505092915050565b6143b4816150d2565b82525050565b6143c3816150d2565b82525050565b6143d2816150de565b82525050565b6143e1816150de565b82525050565b60006143f4600883614f9a565b91507f4974277320656e640000000000000000000000000000000000000000000000006000830152602082019050919050565b6000614434602683614f9a565b91507f4f776e61626c653a206e6577206f776e657220697320746865207a65726f206160008301527f64647265737300000000000000000000000000000000000000000000000000006020830152604082019050919050565b600061449a600f83614f9a565b91507f5472616e73666572206661696c656400000000000000000000000000000000006000830152602082019050919050565b60006144da600883614f9a565b91507f7a65726f204554480000000000000000000000000000000000000000000000006000830152602082019050919050565b600061451a600a83614f9a565b91507f596f7572206f72646572000000000000000000000000000000000000000000006000830152602082019050919050565b600061455a600a83614f9a565b91507f6c657373207072696365000000000000000000000000000000000000000000006000830152602082019050919050565b600061459a600f83614f9a565b91507f4861766520746f207061792045544800000000000000000000000000000000006000830152602082019050919050565b60006145da601283614f9a565b91507f4861766520746f2070617920546f6b656e7300000000000000000000000000006000830152602082019050919050565b600061461a600f83614f9a565b91507f427579206c65737320616d6f756e7400000000000000000000000000000000006000830152602082019050919050565b600061465a602083614f9a565b91507f4f776e61626c653a2063616c6c6572206973206e6f7420746865206f776e65726000830152602082019050919050565b600061469a600b83614f9a565b91507f7a65726f20546f6b656e730000000000000000000000000000000000000000006000830152602082019050919050565b60006146da601583614f9a565b91507f446f6e2774206e65656420746f207061792045544800000000000000000000006000830152602082019050919050565b600061471a601d83614f9a565b91507f696e7075742076616c7565206973206d6f7265207468616e20313030250000006000830152602082019050919050565b600061475a600b83614f9a565b91507f57726f6e6720546f6b656e0000000000000000000000000000000000000000006000830152602082019050919050565b600061479a600083614f8f565b9150600082019050919050565b60006147b4601883614f9a565b91507f446f6e2774206e65656420746f2070617920546f6b656e7300000000000000006000830152602082019050919050565b60006147f4600d83614f9a565b91507f4163636573732064656e696564000000000000000000000000000000000000006000830152602082019050919050565b6000614834601f83614f9a565b91507f5265656e7472616e637947756172643a207265656e7472616e742063616c6c006000830152602082019050919050565b6000614874600983614f9a565b91507f49742773206f76657200000000000000000000000000000000000000000000006000830152602082019050919050565b6148b0816150e8565b82525050565b6148bf81615116565b82525050565b6148ce81615116565b82525050565b6148e56148e082615116565b61518d565b82525050565b60006148f68261478d565b9150819050919050565b600061490c82886148d4565b60208201915061491c828761421c565b60148201915061492c828661421c565b60148201915061493c828561421c565b60148201915061494c82846148d4565b6020820191508190509695505050505050565b6000602082019050614974600083018461420d565b92915050565b600060e08201905061498f600083018a61420d565b61499c602083018961420d565b6149a9604083018861420d565b6149b660608301876148c5565b6149c360808301866148c5565b6149d060a08301856148c5565b6149dd60c08301846143ba565b98975050505050505050565b60006060820190506149fe600083018661420d565b614a0b602083018561420d565b614a1860408301846148c5565b949350505050565b6000608082019050614a35600083018761420d565b614a42602083018661420d565b614a4f60408301856148c5565b614a5c60608301846148c5565b95945050505050565b600060c082019050614a7a600083018961420d565b614a87602083018861420d565b614a9460408301876148c5565b614aa160608301866148c5565b614aae60808301856148c5565b614abb60a08301846143ba565b979650505050505050565b6000604082019050614adb600083018561420d565b614ae860208301846148c5565b9392505050565b600060e0820190508181036000830152614b09818a6142ef565b90508181036020830152614b1d8189614233565b90508181036040830152614b318188614233565b90508181036060830152614b45818761434d565b90508181036080830152614b59818661434d565b905081810360a0830152614b6d818561434d565b905081810360c0830152614b818184614291565b905098975050505050505050565b600060c0820190508181036000830152614ba981896142ef565b90508181036020830152614bbd8188614233565b90508181036040830152614bd1818761434d565b90508181036060830152614be5818661434d565b90508181036080830152614bf9818561434d565b905081810360a0830152614c0d8184614291565b9050979650505050505050565b6000602082019050614c2f60008301846143d8565b92915050565b60006020820190508181036000830152614c4e816143e7565b9050919050565b60006020820190508181036000830152614c6e81614427565b9050919050565b60006020820190508181036000830152614c8e8161448d565b9050919050565b60006020820190508181036000830152614cae816144cd565b9050919050565b60006020820190508181036000830152614cce8161450d565b9050919050565b60006020820190508181036000830152614cee8161454d565b9050919050565b60006020820190508181036000830152614d0e8161458d565b9050919050565b60006020820190508181036000830152614d2e816145cd565b9050919050565b60006020820190508181036000830152614d4e8161460d565b9050919050565b60006020820190508181036000830152614d6e8161464d565b9050919050565b60006020820190508181036000830152614d8e8161468d565b9050919050565b60006020820190508181036000830152614dae816146cd565b9050919050565b60006020820190508181036000830152614dce8161470d565b9050919050565b60006020820190508181036000830152614dee8161474d565b9050919050565b60006020820190508181036000830152614e0e816147a7565b9050919050565b60006020820190508181036000830152614e2e816147e7565b9050919050565b60006020820190508181036000830152614e4e81614827565b9050919050565b60006020820190508181036000830152614e6e81614867565b9050919050565b6000602082019050614e8a60008301846148a7565b92915050565b6000602082019050614ea560008301846148c5565b92915050565b6000819050602082019050919050565b6000819050602082019050919050565b6000819050602082019050919050565b6000819050602082019050919050565b600081519050919050565b600081519050919050565b600081519050919050565b600081519050919050565b6000602082019050919050565b6000602082019050919050565b6000602082019050919050565b6000602082019050919050565b600082825260208201905092915050565b600082825260208201905092915050565b600082825260208201905092915050565b600082825260208201905092915050565b600081905092915050565b600082825260208201905092915050565b6000614fb682615116565b9150614fc183615116565b9250827fffffffffffffffffffffffffffffffffffffffffffffffffffffffffffffffff03821115614ff657614ff56151c8565b5b828201905092915050565b600061500c82615116565b915061501783615116565b925082615027576150266151f7565b5b828204905092915050565b600061503d82615116565b915061504883615116565b9250817fffffffffffffffffffffffffffffffffffffffffffffffffffffffffffffffff0483118215151615615081576150806151c8565b5b828202905092915050565b600061509782615116565b91506150a283615116565b9250828210156150b5576150b46151c8565b5b828203905092915050565b60006150cb826150f6565b9050919050565b60008115159050919050565b6000819050919050565b600061ffff82169050919050565b600073ffffffffffffffffffffffffffffffffffffffff82169050919050565b6000819050919050565b600061512b82615116565b91507fffffffffffffffffffffffffffffffffffffffffffffffffffffffffffffffff82141561515e5761515d6151c8565b5b600182019050919050565b60006151748261517b565b9050919050565b600061518682615226565b9050919050565b6000819050919050565b60006151a282615116565b91506151ad83615116565b9250826151bd576151bc6151f7565b5b828206905092915050565b7f4e487b7100000000000000000000000000000000000000000000000000000000600052601160045260246000fd5b7f4e487b7100000000000000000000000000000000000000000000000000000000600052601260045260246000fd5b60008160601b9050919050565b61523c816150c0565b811461524757600080fd5b50565b615253816150d2565b811461525e57600080fd5b50565b61526a816150de565b811461527557600080fd5b50565b615281816150e8565b811461528c57600080fd5b50565b61529881615116565b81146152a357600080fd5b5056fea2646970667358221220199d3ebe2623f3a1ef8e23dfeae270672c499518d6a01b079609ddc432a524a364736f6c63430008000033",
  "linkReferences": {},
  "deployedLinkReferences": {}
}