{
  "_format": "hh-sol-artifact-1",
  "contractName": "OBEX",
  "sourceName": "contracts/OBEX.sol",
  "abi": [
    {
      "inputs": [
        {
          "internalType": "uint16",
          "name": "_feePercent",
          "type": "uint16"
        }
      ],
      "stateMutability": "nonpayable",
      "type": "constructor"
    },
    {
      "anonymous": false,
      "inputs": [
        {
          "indexed": true,
          "internalType": "bytes32",
          "name": "orderId",
          "type": "bytes32"
        }
      ],
      "name": "Cancel",
      "type": "event"
    },
    {
      "anonymous": false,
      "inputs": [
        {
          "indexed": true,
          "internalType": "bytes32",
          "name": "orderId",
          "type": "bytes32"
        },
        {
          "indexed": true,
          "internalType": "address",
          "name": "maker",
          "type": "address"
        },
        {
          "indexed": false,
          "internalType": "address",
          "name": "tokenFromMaker",
          "type": "address"
        },
        {
          "indexed": false,
          "internalType": "address",
          "name": "tokenFromTaker",
          "type": "address"
        },
        {
          "indexed": false,
          "internalType": "uint256",
          "name": "amountFromMaker",
          "type": "uint256"
        },
        {
          "indexed": false,
          "internalType": "uint256",
          "name": "amountTokens",
          "type": "uint256"
        }
      ],
      "name": "Make",
      "type": "event"
    },
    {
      "anonymous": false,
      "inputs": [
        {
          "indexed": true,
          "internalType": "address",
          "name": "previousOwner",
          "type": "address"
        },
        {
          "indexed": true,
          "internalType": "address",
          "name": "newOwner",
          "type": "address"
        }
      ],
      "name": "OwnershipTransferred",
      "type": "event"
    },
    {
      "anonymous": false,
      "inputs": [
        {
          "indexed": true,
          "internalType": "bytes32",
          "name": "orderId",
          "type": "bytes32"
        },
        {
          "indexed": true,
          "internalType": "address",
          "name": "taker",
          "type": "address"
        },
        {
          "indexed": false,
          "internalType": "address",
          "name": "tokenFromMaker",
          "type": "address"
        },
        {
          "indexed": false,
          "internalType": "address",
          "name": "tokenFromTaker",
          "type": "address"
        },
        {
          "indexed": false,
          "internalType": "uint256",
          "name": "amountFromMaker",
          "type": "uint256"
        },
        {
          "indexed": false,
          "internalType": "uint256",
          "name": "amountThisTakerGet",
          "type": "uint256"
        },
        {
          "indexed": false,
          "internalType": "uint256",
          "name": "amountSold",
          "type": "uint256"
        },
        {
          "indexed": false,
          "internalType": "bool",
          "name": "isEnd",
          "type": "bool"
        }
      ],
      "name": "Take",
      "type": "event"
    },
    {
      "inputs": [],
      "name": "ETH_ADDRESS",
      "outputs": [
        {
          "internalType": "address",
          "name": "",
          "type": "address"
        }
      ],
      "stateMutability": "view",
      "type": "function"
    },
    {
      "inputs": [
        {
          "internalType": "address",
          "name": "_maker",
          "type": "address"
        }
      ],
      "name": "_ordersByMaker",
      "outputs": [
        {
          "internalType": "bytes32[]",
          "name": "",
          "type": "bytes32[]"
        }
      ],
      "stateMutability": "view",
      "type": "function"
    },
    {
      "inputs": [
        {
          "internalType": "address",
          "name": "_tokenA",
          "type": "address"
        },
        {
          "internalType": "address",
          "name": "_tokenB",
          "type": "address"
        }
      ],
      "name": "_ordersByTokens",
      "outputs": [
        {
          "internalType": "bytes32[]",
          "name": "",
          "type": "bytes32[]"
        }
      ],
      "stateMutability": "view",
      "type": "function"
    },
    {
      "inputs": [
        {
          "internalType": "bytes32",
          "name": "c__0x86c8759b",
          "type": "bytes32"
        }
      ],
      "name": "c_0x86c8759b",
      "outputs": [],
      "stateMutability": "pure",
      "type": "function"
    },
    {
      "inputs": [
        {
          "internalType": "bytes32",
          "name": "_orderId",
          "type": "bytes32"
        }
      ],
      "name": "cancel",
      "outputs": [],
      "stateMutability": "nonpayable",
      "type": "function"
    },
    {
      "inputs": [],
      "name": "feeAddress",
      "outputs": [
        {
          "internalType": "address",
          "name": "",
          "type": "address"
        }
      ],
      "stateMutability": "view",
      "type": "function"
    },
    {
      "inputs": [],
      "name": "feeETHAmounts",
      "outputs": [
        {
          "internalType": "uint256",
          "name": "",
          "type": "uint256"
        }
      ],
      "stateMutability": "view",
      "type": "function"
    },
    {
      "inputs": [],
      "name": "feePercent",
      "outputs": [
        {
          "internalType": "uint16",
          "name": "",
          "type": "uint16"
        }
      ],
      "stateMutability": "view",
      "type": "function"
    },
    {
      "inputs": [
        {
          "internalType": "address",
          "name": "",
          "type": "address"
        }
      ],
      "name": "feeTokenAmounts",
      "outputs": [
        {
          "internalType": "uint256",
          "name": "",
          "type": "uint256"
        }
      ],
      "stateMutability": "view",
      "type": "function"
    },
    {
      "inputs": [
        {
          "internalType": "address",
          "name": "_tokenFromTaker",
          "type": "address"
        },
        {
          "internalType": "uint256",
          "name": "_amountTokens",
          "type": "uint256"
        }
      ],
      "name": "makeOrderFromETHToTokens",
      "outputs": [],
      "stateMutability": "payable",
      "type": "function"
    },
    {
      "inputs": [
        {
          "internalType": "address",
          "name": "_tokenFromMaker",
          "type": "address"
        },
        {
          "internalType": "uint256",
          "name": "_amountFromMaker",
          "type": "uint256"
        },
        {
          "internalType": "uint256",
          "name": "_amountETH",
          "type": "uint256"
        }
      ],
      "name": "makeOrderFromTokensToETH",
      "outputs": [],
      "stateMutability": "nonpayable",
      "type": "function"
    },
    {
      "inputs": [
        {
          "internalType": "address",
          "name": "_maker",
          "type": "address"
        }
      ],
      "name": "makerOrderLength",
      "outputs": [
        {
          "internalType": "uint256",
          "name": "",
          "type": "uint256"
        }
      ],
      "stateMutability": "view",
      "type": "function"
    },
    {
      "inputs": [
        {
          "internalType": "address",
          "name": "",
          "type": "address"
        }
      ],
      "name": "nonces",
      "outputs": [
        {
          "internalType": "uint256",
          "name": "",
          "type": "uint256"
        }
      ],
      "stateMutability": "view",
      "type": "function"
    },
    {
      "inputs": [
        {
          "internalType": "bytes32",
          "name": "",
          "type": "bytes32"
        }
      ],
      "name": "orders",
      "outputs": [
        {
          "internalType": "address",
          "name": "maker",
          "type": "address"
        },
        {
          "internalType": "address",
          "name": "tokenFromMaker",
          "type": "address"
        },
        {
          "internalType": "address",
          "name": "tokenFromTaker",
          "type": "address"
        },
        {
          "internalType": "uint256",
          "name": "amountFromMaker",
          "type": "uint256"
        },
        {
          "internalType": "uint256",
          "name": "amountTokens",
          "type": "uint256"
        },
        {
          "internalType": "uint256",
          "name": "amountSold",
          "type": "uint256"
        },
        {
          "internalType": "bool",
          "name": "isEnd",
          "type": "bool"
        }
      ],
      "stateMutability": "view",
      "type": "function"
    },
    {
      "inputs": [
        {
          "internalType": "address",
          "name": "",
          "type": "address"
        },
        {
          "internalType": "uint256",
          "name": "",
          "type": "uint256"
        }
      ],
      "name": "ordersByMaker",
      "outputs": [
        {
          "internalType": "bytes32",
          "name": "",
          "type": "bytes32"
        }
      ],
      "stateMutability": "view",
      "type": "function"
    },
    {
      "inputs": [
        {
          "internalType": "address",
          "name": "",
          "type": "address"
        },
        {
          "internalType": "address",
          "name": "",
          "type": "address"
        },
        {
          "internalType": "uint256",
          "name": "",
          "type": "uint256"
        }
      ],
      "name": "ordersByTokens",
      "outputs": [
        {
          "internalType": "bytes32",
          "name": "",
          "type": "bytes32"
        }
      ],
      "stateMutability": "view",
      "type": "function"
    },
    {
      "inputs": [],
      "name": "owner",
      "outputs": [
        {
          "internalType": "address",
          "name": "",
          "type": "address"
        }
      ],
      "stateMutability": "view",
      "type": "function"
    },
    {
      "inputs": [],
      "name": "renounceOwnership",
      "outputs": [],
      "stateMutability": "nonpayable",
      "type": "function"
    },
    {
      "inputs": [
        {
          "internalType": "address",
          "name": "_feeAddress",
          "type": "address"
        }
      ],
      "name": "setFeeAddress",
      "outputs": [],
      "stateMutability": "nonpayable",
      "type": "function"
    },
    {
      "inputs": [
        {
          "internalType": "bytes32",
          "name": "_orderId",
          "type": "bytes32"
        },
        {
          "internalType": "uint256",
          "name": "_amountTakerPayTokens",
          "type": "uint256"
        },
        {
          "internalType": "uint256",
          "name": "_amountTakerRcvWOFee",
          "type": "uint256"
        }
      ],
      "name": "takeOrder",
      "outputs": [],
      "stateMutability": "payable",
      "type": "function"
    },
    {
      "inputs": [
        {
          "internalType": "address",
          "name": "_tokenFromMaker",
          "type": "address"
        },
        {
          "internalType": "address",
          "name": "_tokenFromTaker",
          "type": "address"
        }
      ],
      "name": "tokensOrderLength",
      "outputs": [
        {
          "internalType": "uint256",
          "name": "",
          "type": "uint256"
        }
      ],
      "stateMutability": "view",
      "type": "function"
    },
    {
      "inputs": [
        {
          "internalType": "address",
          "name": "newOwner",
          "type": "address"
        }
      ],
      "name": "transferOwnership",
      "outputs": [],
      "stateMutability": "nonpayable",
      "type": "function"
    },
    {
      "inputs": [
        {
          "internalType": "uint16",
          "name": "_percent",
          "type": "uint16"
        }
      ],
      "name": "updateFeePercent",
      "outputs": [],
      "stateMutability": "nonpayable",
      "type": "function"
    },
    {
      "inputs": [
        {
          "internalType": "address",
          "name": "_token",
          "type": "address"
        },
        {
          "internalType": "uint256",
          "name": "amount",
          "type": "uint256"
        }
      ],
      "name": "withdrawFee",
      "outputs": [],
      "stateMutability": "nonpayable",
      "type": "function"
    }
  ],
  "bytecode": "0x60806040523480156200001157600080fd5b506040516200603f3803806200603f833981810160405281019062000037919062000395565b6000620000496200037360201b60201c565b9050806000806101000a81548173ffffffffffffffffffffffffffffffffffffffff021916908373ffffffffffffffffffffffffffffffffffffffff1602179055508073ffffffffffffffffffffffffffffffffffffffff16600073ffffffffffffffffffffffffffffffffffffffff167f8be0079c531659141344cd1fd0a4f28419497f9722a3daafe3b4186f6b6457e060405160405180910390a35060018081905550620001227fb4bdeeba1fcd58ae434616b56361ee09a50d77a82daf3ccd0f4af68df984297d60001b6200037b60201b60201c565b620001567f67ea4825e0a852b4845fe42111c0cc2ce0bf3f455361e1da9b2e648615f31fff60001b6200037b60201b60201c565b6200018a7fe6f13809610072d803588250a5bed7d1579a18f018e2c735d3798f3a5c98b9e960001b6200037b60201b60201c565b620001be7f7401d491c5e842c71d0a3c39bacc74707d5c849bc281319de0dff98084c1115360001b6200037b60201b60201c565b6127108161ffff1611156200020a576040517f08c379a00000000000000000000000000000000000000000000000000000000081526004016200020190620003e8565b60405180910390fd5b6200023e7f72d59bbc148cdf17d6d857d6cabfe5e9f53b7d7eb033c456cb802809013665a060001b6200037b60201b60201c565b620002727fcb58aa0a258b71f9e00c4c5700d1928dd6721f14338df2f623541395a77f9b2f60001b6200037b60201b60201c565b620002a67fb05e6e3cc55024b72db4148ee0bc4dc37f79276d8a7bc163249c551c2063354760001b6200037b60201b60201c565b33600660006101000a81548173ffffffffffffffffffffffffffffffffffffffff021916908373ffffffffffffffffffffffffffffffffffffffff1602179055506200031b7f607df957c700fe39a281ea38283d87e23a2c10e05ceb5b854a9733cf97fdaf3760001b6200037b60201b60201c565b6200034f7f701bf6056a263b85ee33b9e757a5a1bbe86043cb3e941c998fcf46aab58efaab60001b6200037b60201b60201c565b80600660146101000a81548161ffff021916908361ffff160217905550506200046c565b600033905090565b50565b6000815190506200038f8162000452565b92915050565b600060208284031215620003a857600080fd5b6000620003b8848285016200037e565b91505092915050565b6000620003d0601d836200040a565b9150620003dd8262000429565b602082019050919050565b600060208201905081810360008301526200040381620003c1565b9050919050565b600082825260208201905092915050565b600061ffff82169050919050565b7f696e7075742076616c7565206973206d6f7265207468616e2031303025000000600082015250565b6200045d816200041b565b81146200046957600080fd5b50565b615bc3806200047c6000396000f3fe60806040526004361061014b5760003560e01c80638da5cb5b116100b6578063e24d49311161006f578063e24d4931146104bc578063eaba01f0146104d8578063f071620114610515578063f2fde38b14610531578063fd437f041461055a578063fd9be522146105975761014b565b80638da5cb5b146103a65780639c3f1e90146103d1578063a04a86bd14610414578063a734f06e1461043d578063bf59e0f814610468578063c4d252f5146104935761014b565b80634b54b43e116101085780634b54b43e14610298578063715018a6146102d55780637ecebe00146102ec5780637fd6f15c146103295780638705fcd41461035457806388dca5731461037d5761014b565b80630b7034a5146101505780632281f97b1461018d57806325792a4d146101ca57806333580a521461020757806341275358146102445780634a8dd6071461026f575b600080fd5b34801561015c57600080fd5b5061017760048036038101906101729190614bcf565b6105c0565b604051610184919061557f565b60405180910390f35b34801561019957600080fd5b506101b460048036038101906101af9190614c34565b610690565b6040516101c19190615329565b60405180910390f35b3480156101d657600080fd5b506101f160048036038101906101ec9190614bf8565b6106ce565b6040516101fe9190615307565b60405180910390f35b34801561021357600080fd5b5061022e60048036038101906102299190614c83565b610827565b60405161023b9190615329565b60405180910390f35b34801561025057600080fd5b50610259610858565b6040516102669190615177565b60405180910390f35b34801561027b57600080fd5b5061029660048036038101906102919190614d37565b61087e565b005b3480156102a457600080fd5b506102bf60048036038101906102ba9190614bcf565b610881565b6040516102cc919061557f565b60405180910390f35b3480156102e157600080fd5b506102ea610899565b005b3480156102f857600080fd5b50610313600480360381019061030e9190614bcf565b6109d3565b604051610320919061557f565b60405180910390f35b34801561033557600080fd5b5061033e6109eb565b60405161034b9190615564565b60405180910390f35b34801561036057600080fd5b5061037b60048036038101906103769190614bcf565b6109ff565b005b34801561038957600080fd5b506103a4600480360381019061039f9190614cbf565b610b43565b005b3480156103b257600080fd5b506103bb610ed5565b6040516103c89190615177565b60405180910390f35b3480156103dd57600080fd5b506103f860048036038101906103f39190614d37565b610efe565b60405161040b9796959493929190615192565b60405180910390f35b34801561042057600080fd5b5061043b60048036038101906104369190614daf565b610fad565b005b34801561044957600080fd5b506104526111c6565b60405161045f9190615177565b60405180910390f35b34801561047457600080fd5b5061047d6111cb565b60405161048a919061557f565b60405180910390f35b34801561049f57600080fd5b506104ba60048036038101906104b59190614d37565b6111d1565b005b6104d660048036038101906104d19190614d60565b611a8b565b005b3480156104e457600080fd5b506104ff60048036038101906104fa9190614bcf565b613408565b60405161050c9190615307565b60405180910390f35b61052f600480360381019061052a9190614c83565b613523565b005b34801561053d57600080fd5b5061055860048036038101906105539190614bcf565b6137cc565b005b34801561056657600080fd5b50610581600480360381019061057c9190614bf8565b613975565b60405161058e919061557f565b60405180910390f35b3480156105a357600080fd5b506105be60048036038101906105b99190614c83565b613a83565b005b60006105ee7f56d8f8b98ba93db0b1942333ddc5aed4648e4a7b9d69066c1d86cfb45e08fd2560001b61087e565b61061a7fa6aaae1bdf5e6179de7172e8a5e3dccb0422982785745977c0c7cd9e2b1a10ab60001b61087e565b6106467f03adab48c47c5fe8d6e532e55680acf2c4460c424449038c803c5f8e8058c02b60001b61087e565b600260008373ffffffffffffffffffffffffffffffffffffffff1673ffffffffffffffffffffffffffffffffffffffff168152602001908152602001600020805490509050919050565b600360205282600052604060002060205281600052604060002081815481106106b857600080fd5b9060005260206000200160009250925050505481565b60606106fc7f5a04ee226ad8c6d95ad8169de8efa4a85dd0e3ec7edeeac4d16bb5a10c1a8b1760001b61087e565b6107287f6fc0cd88220a9cd1b32b730b9104dc13980663daafb63ab5f88e14ddf50e07e960001b61087e565b6107547fa2687d45102aa9a30b6fe1f274b1f0103fcd3868ce9ad43b88a84b32acb1645c60001b61087e565b600360008473ffffffffffffffffffffffffffffffffffffffff1673ffffffffffffffffffffffffffffffffffffffff16815260200190815260200160002060008373ffffffffffffffffffffffffffffffffffffffff1673ffffffffffffffffffffffffffffffffffffffff16815260200190815260200160002080548060200260200160405190810160405280929190818152602001828054801561081a57602002820191906000526020600020905b815481526020019060010190808311610806575b5050505050905092915050565b6002602052816000526040600020818154811061084357600080fd5b90600052602060002001600091509150505481565b600660009054906101000a900473ffffffffffffffffffffffffffffffffffffffff1681565b50565b60086020528060005260406000206000915090505481565b6108a1614555565b73ffffffffffffffffffffffffffffffffffffffff166108bf610ed5565b73ffffffffffffffffffffffffffffffffffffffff1614610915576040517f08c379a000000000000000000000000000000000000000000000000000000000815260040161090c90615444565b60405180910390fd5b600073ffffffffffffffffffffffffffffffffffffffff1660008054906101000a900473ffffffffffffffffffffffffffffffffffffffff1673ffffffffffffffffffffffffffffffffffffffff167f8be0079c531659141344cd1fd0a4f28419497f9722a3daafe3b4186f6b6457e060405160405180910390a360008060006101000a81548173ffffffffffffffffffffffffffffffffffffffff021916908373ffffffffffffffffffffffffffffffffffffffff160217905550565b60056020528060005260406000206000915090505481565b600660149054906101000a900461ffff1681565b610a07614555565b73ffffffffffffffffffffffffffffffffffffffff16610a25610ed5565b73ffffffffffffffffffffffffffffffffffffffff1614610a7b576040517f08c379a0000000000000000000000000000000000000000000000000000000008152600401610a7290615444565b60405180910390fd5b610aa77f4f719302affcb5f635d0d29d175d2b1b9c4ac1ad4cbb708d27b1aad31fc6317d60001b61087e565b610ad37f36e90ea85d4081ce77287a491f8b8efdddae60210e00d8b991b659313e11e9ff60001b61087e565b610aff7f37d8c1d8ca92dfca06a14f4389c4c9f8f32ba91f1f13f7ca47bc1108aeff8b5860001b61087e565b80600660006101000a81548173ffffffffffffffffffffffffffffffffffffffff021916908373ffffffffffffffffffffffffffffffffffffffff16021790555050565b610b6f7f74bb0316facee686a0b26f941cb3e878f46508a9c5b953f3b524867d0e7c910d60001b61087e565b610b9b7f06d7ae9a9f6ffd08dc5410fc29ed3a9335b06ef9f8e451fa93ece4c9da9c547160001b61087e565b610bc77f7b3e9dd93758c693795fa92329264a3cb728d0ace694a3d2e3e395a270c04a8a60001b61087e565b610bf37f291d5e3a1addb4efbe5d97a57e87b6d3e0c65cece1b918a0be8a57e794ce878760001b61087e565b600073ffffffffffffffffffffffffffffffffffffffff168373ffffffffffffffffffffffffffffffffffffffff161415610c63576040517f08c379a0000000000000000000000000000000000000000000000000000000008152600401610c5a906154c4565b60405180910390fd5b610c8f7f8127780acae2bdf1482b42e82f016427affe2005f02d82f4509a29d0970d988060001b61087e565b610cbb7f4dfcdb91ce9dfef8091152c64c2bb98959646566c3608542b0c61a7005b0e0ee60001b61087e565b610ce77f888d7c0bc0079981c4ea9ff22f7a6fd91028e753009c5bbbe204cc410f96b15660001b61087e565b610d137fbc2beceb6746edcccb96da4c910837492a3dab07532d2bc44d8332754015beff60001b61087e565b6000821415610d57576040517f08c379a0000000000000000000000000000000000000000000000000000000008152600401610d4e90615464565b60405180910390fd5b610d837f2a39a555690e097cac35b5040b0fe52c293151ec8a62385a3adc85df2bcafa3e60001b61087e565b610daf7f8aa03ca0830f848799ab9294b26ae4b8cc72b398111350c159a25a1178e2e58860001b61087e565b610ddb7f20d782ab30adec3f8fa053f561d07967e53673794aec64282daeee44d6e5aabf60001b61087e565b610de8836000848461455d565b610e147faf94e758c35032a30e10ec903524b8c93f0b391902fead30582f404080d1369960001b61087e565b610e407fa37dc03c87735041f89295d874c76b974e6ba2b05efb0e07f574790699698e3360001b61087e565b8273ffffffffffffffffffffffffffffffffffffffff166323b872dd3330856040518463ffffffff1660e01b8152600401610e7d93929190615201565b602060405180830381600087803b158015610e9757600080fd5b505af1158015610eab573d6000803e3d6000fd5b505050506040513d601f19601f82011682018060405250810190610ecf9190614d0e565b50505050565b60008060009054906101000a900473ffffffffffffffffffffffffffffffffffffffff16905090565b60046020528060005260406000206000915090508060000160009054906101000a900473ffffffffffffffffffffffffffffffffffffffff16908060010160009054906101000a900473ffffffffffffffffffffffffffffffffffffffff16908060020160009054906101000a900473ffffffffffffffffffffffffffffffffffffffff16908060030154908060040154908060050154908060060160009054906101000a900460ff16905087565b610fb5614555565b73ffffffffffffffffffffffffffffffffffffffff16610fd3610ed5565b73ffffffffffffffffffffffffffffffffffffffff1614611029576040517f08c379a000000000000000000000000000000000000000000000000000000000815260040161102090615444565b60405180910390fd5b6110557f1442ad5c0df53f2321dae7923b38ab07c84aa578d47a432c43f1d612aff6cd6960001b61087e565b6110817f50dd9f65b61393ba5a2e902acd0ca21fd35cebc7b7822e7ded94705cfe5172ed60001b61087e565b6110ad7fa6adf9393a26df247be6e073eccbb0710d1b3e0ca75f40e07e96168b3dbe953560001b61087e565b6110d97f90eaff6e1ec9cc96f40ca1c353d1cee32e23a503f15e631992b8bb2dbb014e1460001b61087e565b6127108161ffff161115611122576040517f08c379a0000000000000000000000000000000000000000000000000000000008152600401611119906154a4565b60405180910390fd5b61114e7fca844a16e08698c6de8f310ecd6b5060b827f804defeef33fc2e3635d39caa0260001b61087e565b61117a7f5cdf4df6cbc6882336a723322f6fefc6e6b6253db609d1bd51b4d8722145f4bc60001b61087e565b6111a67f2c4e0d080c6a92db69efbd6575126400a083a1ba9bee5e60996c42310f7f0bcc60001b61087e565b80600660146101000a81548161ffff021916908361ffff16021790555050565b600081565b60075481565b60026001541415611217576040517f08c379a000000000000000000000000000000000000000000000000000000000815260040161120e90615524565b60405180910390fd5b600260018190555061124b7f445f5ec1c453bc501f272e49935d242db268ccbc626ecf2c3240ad78b3f7455160001b61087e565b6112777f9e9663cfe997c9aa4651817e0be9c58bb00d2404af9facc426b4a00978d3988d60001b61087e565b6112a37fdede3945db367a256dd2de782384349b0c6a8f107dece72c679eb9928e7d7ef460001b61087e565b60006004600083815260200190815260200160002090506112e67fa2b10bbe2a71f2c5476852b6dcadabafbf36c31e52bdaa4ecf09dbf94b10d86660001b61087e565b6113127f399603cf5a9d80e8b739c4b1b23564f1f5735ad15ca64abd1c209ead9849be5160001b61087e565b60008160000160009054906101000a900473ffffffffffffffffffffffffffffffffffffffff1690506113677f65dc3abe591708aa37558ff31e9a3864bdf9cfc1b0bd315cf92432aa6a31e35f60001b61087e565b6113937fa4d679f1e35f55ce8df411dc3df615b712f6c962bfbafe019a9de5510689cd2a60001b61087e565b60008260010160009054906101000a900473ffffffffffffffffffffffffffffffffffffffff1690506113e87f48dd99543ad936df2407358d0d7b13776fbfd6b63ca914e9f68f539e77bbef2a60001b61087e565b6114147f11e3e9d955b4ae9f714ecaba09b13072e34908a96d69ae1221630a6fafe7801d60001b61087e565b6000836003015490506114497fceb188d0f2433ac24e1fb6d286848d9339d2d67ea3cfb9dedb81ecb48637708d60001b61087e565b6114757faf348204ad5ea80d9dc32556e61d78dbc9e6669f825879e21518247ce64b587c60001b61087e565b6000846005015490506114aa7f2be0d78f2d235d81b7c5a5a39b8593d838ebd89fe380700274acd989af20167360001b61087e565b6114d67f9d3023a4973f5a1d4ec5103819147eb03f436b11aa042862d155403de4d37fbf60001b61087e565b60008560060160009054906101000a900460ff1690506115187fd6117d966ec2c1385ff6f50d460326be9539a0442a926bea55027b419edfff3c60001b61087e565b6115447f0e7fbf7495052c755e9c9fbecc7a0286727b3a8d5195387ba220d5bdb77df41d60001b61087e565b6115707f415f94292d2b60001986794aa98d22a684f4d22d4fec9d72bc0780e68fc7900060001b61087e565b3373ffffffffffffffffffffffffffffffffffffffff168573ffffffffffffffffffffffffffffffffffffffff16146115de576040517f08c379a00000000000000000000000000000000000000000000000000000000081526004016115d590615504565b60405180910390fd5b61160a7f93c85517ecbc7716334be92352bf96eaca77230fa0592fd3be7b65ba3b143ee260001b61087e565b6116367f195a62f95eb9993ad7692c57d8f9eab70c8f9982608cec3c228145f9a28b2edf60001b61087e565b6116627f7b8bb6d2115d7085260a5c4f7b2146e843964da31fc793d9029c1c03da40ffd660001b61087e565b61168e7f0d261ffd3815af43c763d82c98ead0edb0dd7a0aa540638f41f6a9a60e1a0d3660001b61087e565b80156116cf576040517f08c379a00000000000000000000000000000000000000000000000000000000081526004016116c690615344565b60405180910390fd5b6116fb7f63edb1c28df690445c7a47c4a85eae0b429f5dc09f19b53bfb0b89053c29057060001b61087e565b6117277f0d220a6cf5d964cfa88c304778c578e0c696d8350e75b70ed82c128170ce415060001b61087e565b6117537f7fc79e450091fecba630a05cb6b3b241d6f95cdddd5a3d20ca0b525476aa8bb660001b61087e565b60018660060160006101000a81548160ff02191690831515021790555061179c7f7bfc9d3b7dccf0eecf2ef04672b2b418cec68b865227c4ea72d71d7435912dc860001b61087e565b6117c87f23a39fc527ae376c087ba06f8c1fd81c06b7289eff73712ca623a6d29df1932d60001b61087e565b600073ffffffffffffffffffffffffffffffffffffffff168473ffffffffffffffffffffffffffffffffffffffff1614156118d8576118297fe917b7d49a525fdb5c984fd834f1abacd83c4e4a6d3b9c13b119a73cfe94fcda60001b61087e565b6118557f36427bbadf8112ef10cd5d9bcdf99df1c101823961c9583f844a4c5924d10f7460001b61087e565b6118817f96d1c17eb99d6282253ddb6da898c8aaa56aae2f779e0cc24bbf38644fa644a860001b61087e565b3373ffffffffffffffffffffffffffffffffffffffff166108fc83856118a791906156c5565b9081150290604051600060405180830381858888f193505050501580156118d2573d6000803e3d6000fd5b506119f6565b6119047fffc0a1d23735aac3a6363fc42d9276d3e0919edb22ef7c53e9aa80193d083b3660001b61087e565b6119307f940d0f3a09033cdf65374a4f20225782d502da669d1a2945cce1dc7d73b856bf60001b61087e565b61195c7f10d51ab0680a22f3df25394e430661343a33838e92c83d59b6a1f3b887f2ae2360001b61087e565b8373ffffffffffffffffffffffffffffffffffffffff1663a9059cbb33848661198591906156c5565b6040518363ffffffff1660e01b81526004016119a29291906152de565b602060405180830381600087803b1580156119bc57600080fd5b505af11580156119d0573d6000803e3d6000fd5b505050506040513d601f19601f820116820180604052508101906119f49190614d0e565b505b611a227f40ffa2f67f7bcaccdd404ef6aee2c61c79d09260f7c77859dabc0b4066f60fa260001b61087e565b611a4e7f39596069056893d46d785cc18b1816cfcc0142cc4fb1cb85ecbfe911dbef7d9960001b61087e565b867fe8d9861dbc9c663ed3accd261bbe2fe01e0d3d9e5f51fa38523b265c7757a93a60405160405180910390a25050505050506001808190555050565b60026001541415611ad1576040517f08c379a0000000000000000000000000000000000000000000000000000000008152600401611ac890615524565b60405180910390fd5b6002600181905550611b057fa7f09f886b77dda04ed547b846c35aa893043decd47d0ae2766c408b4289de8560001b61087e565b611b317f122bfff317b77a2f4e36521843fd45a1456ae5c18320c6b5af996f1d3562da1b60001b61087e565b611b5d7fe2f7cabcc86ca629a65326264f17c3221b36af6e52bf80576675af693c90652d60001b61087e565b6000600460008581526020019081526020016000209050611ba07f1fba9ed2cb224105df482127a23594bebd0103054b79eae6e1db976c2debbbf260001b61087e565b611bcc7f752f6648b28141f50337a91458454cf67d0204edb691be0cb3f1262cec7934bb60001b61087e565b60008160000160009054906101000a900473ffffffffffffffffffffffffffffffffffffffff169050611c217f205d03ebce08080a181c56fc3ecf8b8bb21febbfc7d9295eb3d326a16775337460001b61087e565b611c4d7f9cd3f5713ce3b7e1be20839dd912cad60bac0f3ddc5443f3283e1ce2761538f660001b61087e565b60008260010160009054906101000a900473ffffffffffffffffffffffffffffffffffffffff169050611ca27f14593dd3b1b2e29723eacc48ff2e6cceaa1df6f44cc8b569dfc82c22c35222a960001b61087e565b611cce7f0fb03d558c7d2297726797dd8b14df5592068758e512c7b0af092bb99182727e60001b61087e565b60008360020160009054906101000a900473ffffffffffffffffffffffffffffffffffffffff169050611d237faabe3a917e73f4653eba62d8eb0f0710aa940eb9891675d21ac1c961355b0f8a60001b61087e565b611d4f7f4241a4d2e5c380ecbec9d71a194adfcc49f02c40db4857c4dae16670063290b060001b61087e565b600084600301549050611d847f06acea652ce926968fc7437f182288c4ff2cb39e0c5b43d3d7f2c04d849c0c5a60001b61087e565b611db07f4df899bcdcca7f795c2502e99c14e423ad1463c79a75f3fe063d7da78c67ede460001b61087e565b600085600401549050611de57f9fed270d11e1e3bbf344bb763b3330dd2f07a1df07181e6155b94ea7c52d741a60001b61087e565b611e117f2ce47905ba75fa866794cfb3e871c24751f15ff28d679196ad6078e9fb37c27460001b61087e565b600086600501549050611e467fecf34372f83336fa3fce532e637140e8579ad8198d6065927f079d115dd1e0eb60001b61087e565b611e727f35ef68fd61416c77ba72a5ace7835c22371d86dc67cbc9084bfebb373a6bad9460001b61087e565b60008760060160009054906101000a900460ff169050611eb47ffff751d0db975cbf74ef6fabf40641a0ad166f73fb7a1df9e592c71018e11a9360001b61087e565b611ee07fb3af0293c787b46c1184936e7cb132201e4422b13f1b9551a597bbdedd10984360001b61087e565b611f0c7ff5f202575b1186d0cb395dafbf931319c2107a2b4b9d82446897d316a438c35e60001b61087e565b3373ffffffffffffffffffffffffffffffffffffffff168773ffffffffffffffffffffffffffffffffffffffff161415611f7b576040517f08c379a0000000000000000000000000000000000000000000000000000000008152600401611f72906153a4565b60405180910390fd5b611fa77fbfb41d59492acd0f318438c298b8f003baf726d804e23be827be581bcb120de660001b61087e565b611fd37f69336bb3b5caa75a373411d6dafdde5187a990285e1eb1a96a4323de41a3e3dc60001b61087e565b611fff7fd3db393cbba873ed6b751f557eb89bda1e42d1f04247f9e6974e6b63a04c852a60001b61087e565b61202b7f8bf787a9a62e9b42b50971de1e65969595ba870c5f52f11aae96acb41ad5024e60001b61087e565b6000151581151514612072576040517f08c379a000000000000000000000000000000000000000000000000000000000815260040161206990615544565b60405180910390fd5b61209e7f94245b87dc169daf0d77e6f17e09d6d972028ce5dae7cd1c42da4dc06d25659f60001b61087e565b6120c97e9ab82a11bf2ab4be6eb309df17c0b0701f90e361bc7bac9a16bb660146c3f060001b61087e565b6120f57f237d4bf9d4df21534b9d176de57eeb24bf30ffd2b81304718c2fa69a8631bcd360001b61087e565b6121217fba352f0b15834344b1d0f02dbb988e788d4f5aa1c9d9593c8ff7e1b3e544ed7660001b61087e565b818461212d91906156c5565b89111561216f576040517f08c379a000000000000000000000000000000000000000000000000000000000815260040161216690615424565b60405180910390fd5b61219b7fb8bd76691c39d39752357f0b96ce55102e7471113d1890bc8ce6a34c3b6d518d60001b61087e565b6121c77f5108acde8ee6d6b6c166ba309a54e169f6f3520691cc559be385c7413191d19760001b61087e565b6121f37f858969fa063245e497fb6515b8efd56877395bc44519c214b2e295fd91798d3360001b61087e565b6000898361220191906155e4565b905061222f7fbfa5094331f96adf1a3efaa3a771dcc888137ba92c4d19132ab3bda18d845beb60001b61087e565b61225b7f60747dbb5f73605553b74911c95d405b5589a6b13e5d19efee66d8804bc4134b60001b61087e565b8089600501819055506122907f3f5feadc08430eb7c64d4b84c47af9e6ce2e5f0faeadceb78eb9344e2a62135b60001b61087e565b6122bc7f14f46031d3cf86c0dd761c48aa8d4500c9e2039ec50d6862a2065bc66d03b23760001b61087e565b848114156123c6576122f07faebacb18a73634238fbf4758e3d1cb219792acd8463ba7f8cb95277301509d1860001b61087e565b61231c7ffc476ed29f6da36db1b9940997778892da392f27866b79b201d8f2118252d18c60001b61087e565b6123487f148a5bc37ce1f863bc0c9416acb36efedd1966b86a05ab6501c3633dd810bf1660001b61087e565b600191506123787f01a6b0815127a01b8cadb340888e584d2c8d04fbc189140611cc3a83d4a0df2d60001b61087e565b6123a47faaf8bb981dc2d885251ce0b129b11de1014325cfd4b89bfbfcfed1d2e90ed12260001b61087e565b60018960060160006101000a81548160ff0219169083151502179055506123f3565b6123f27f92b3379afef77d29f3a3486b14b52bacff9be0a267ee24c1d6868d49fa8ee3ee60001b61087e565b5b61241f7ffcbfc74d58464f806e31a0c5b7230c10416d4986c7eb88a5209cb907fbd6ac6160001b61087e565b61244b7fd9470bda1b4be5b4baa4f50307f4d51aaf15b025f3a2f791b2dcf1680d0a779d60001b61087e565b600073ffffffffffffffffffffffffffffffffffffffff168773ffffffffffffffffffffffffffffffffffffffff161415612c57576124ac7f29cde075a4542fbd636de0d211032454c1e9b1076b4d305214c0e1e4d8e2c3bf60001b61087e565b6124d87fcd9921146cbc07561ccf2abe15f11cffe9577697448698369faddbac30c4eed760001b61087e565b6125047fb6f27f90fcaeb480bf560c3122194e8a865412586148da72709f8f5598afe6b360001b61087e565b6125307fe1ddaa5691f5e1e444ec408d9f0acf74a5be263a42ef1bcc762dfc7fc9174af360001b61087e565b60003414612573576040517f08c379a000000000000000000000000000000000000000000000000000000000815260040161256a90615484565b60405180910390fd5b61259f7f80557a0640b06d8c171861e7f572ef9177fd852aa440ef93e50eb389e2917b1160001b61087e565b6125cb7f316bebdce05e760ca6d9333ce4e141365d263e2701b90d48c009f10391e14a4f60001b61087e565b6125f77f28b3f9a0c63bff546cfa27e02518636ae8ba1d6edd3c00ec5b0d616d8d7c82e860001b61087e565b6126237f0a77ac6791c04b1e881b98eae0b056cf58f21ad29cd38fc9e1fe5cd8a4ab823a60001b61087e565b60008b1415612667576040517f08c379a000000000000000000000000000000000000000000000000000000000815260040161265e90615404565b60405180910390fd5b6126937fdf3f6b452c87341d2e218fd5962841e75fa252966fb577ea7fd8b196a222213e60001b61087e565b6126bf7f5114704bf141f87ee480850a44f4ac9832146fbe196fbb8ea0fc48403f9f5f6a60001b61087e565b6126eb7faa2e0b28bf3005909105b1da3ad04eb1a4422cff8ff1e4a4fa9ceea696e3cd7460001b61087e565b6127177f56a04cc642a62b8530203780f2b5a9ef40c7f0e1b3122612fa1eb8573177dfbc60001b61087e565b8984612723919061566b565b858c61272f919061566b565b1015612770576040517f08c379a0000000000000000000000000000000000000000000000000000000008152600401612767906153c4565b60405180910390fd5b61279c7f3f1feea675ccc65564b61fefa17c280845ba3822c6ad2a12a4ae85f79b3cf90560001b61087e565b6127c87f3e94f8f889f9ba368893ea2f56e5c4bc1e019fb9a4cb21b2a2d7b1e5e12d850460001b61087e565b6127f47f574285740384f8024c26360e22bd5bb9a379474af8b7bf104109f7183fec8b5360001b61087e565b6000612710600660149054906101000a900461ffff1661ffff168d612819919061566b565b612823919061563a565b90506128517fd8fad5b5bc3388bcd678a49344ea9a797736b760316eacd57a392097b5c944de60001b61087e565b61287d7f3148109f53df9f87a83c72a177cdf30ac7fb37f3a0367759cb9a2ef06feb694160001b61087e565b80600860008973ffffffffffffffffffffffffffffffffffffffff1673ffffffffffffffffffffffffffffffffffffffff16815260200190815260200160002060008282546128cc91906155e4565b925050819055506128ff7f420b006fec9e965ac4ac61f365ad62df34963ced74422ef6d7fa5dd31805e98d60001b61087e565b61292b7fc8133e9f7eddf687b25eb1faa3fa5cd6839aedfae6437f9ef5f7aae66b5e584460001b61087e565b8673ffffffffffffffffffffffffffffffffffffffff166323b872dd33308f6040518463ffffffff1660e01b815260040161296893929190615201565b602060405180830381600087803b15801561298257600080fd5b505af1158015612996573d6000803e3d6000fd5b505050506040513d601f19601f820116820180604052508101906129ba9190614d0e565b506129e77fd46d857b3492e653e83337442828c40e7916c106b01b6c41eaa11e296a07084960001b61087e565b612a137f1c3425f9e3a9bdd82bcd583ef49f1ddf24db92f21624b616d51b10d0b3fe58a760001b61087e565b8673ffffffffffffffffffffffffffffffffffffffff1663a9059cbb8a838f612a3c91906156c5565b6040518363ffffffff1660e01b8152600401612a599291906152de565b602060405180830381600087803b158015612a7357600080fd5b505af1158015612a87573d6000803e3d6000fd5b505050506040513d601f19601f82011682018060405250810190612aab9190614d0e565b50612ad87f1d850fac9767d060f7a8932264bf1a596b184daa29c987bf2aba241618b4ad3360001b61087e565b612b047fa28607438958d8ff2d4e8faab1aee9703ec77a4af03894203bd790a9fba0cdb560001b61087e565b6000612710600660149054906101000a900461ffff1661ffff168d612b29919061566b565b612b33919061563a565b9050612b617f0aaa142947bb9423049d26ee611baa00237ce4745eca38e675f4a2d50377df0960001b61087e565b612b8d7f8b837b538f580bc213e14386962c0e70bf39cc27e7cd93f18640ac96adf7354a60001b61087e565b8060076000828254612b9f91906155e4565b92505081905550612bd27f27c3e743392186e8463f47ab6ecf6fc9a1c949f16f29f3360683a54df5fb2cb360001b61087e565b612bfe7fa85efef82e6bdb2bce74e636b22d779f91cbc71271b078f12b09adfc588cf47e60001b61087e565b3373ffffffffffffffffffffffffffffffffffffffff166108fc828e612c2491906156c5565b9081150290604051600060405180830381858888f19350505050158015612c4f573d6000803e3d6000fd5b505050613342565b612c837fbbb2a3c63191159c20a2086dde5c35f12cb90347413b7214982dd85fedd9624660001b61087e565b612caf7fd459e1dc25d9eb0779d9f2d913afcfb8bbec78eac10630b9f5905d8d1ec2506760001b61087e565b612cdb7f8469b1d1c4b2c48fab204c771e178948ca424c7e2ca1641a030dfb1cad1902a260001b61087e565b612d077fbf975625c766d0673e96dd75176b244914017844f9cb601d99471d287759b88f60001b61087e565b60008b14612d4a576040517f08c379a0000000000000000000000000000000000000000000000000000000008152600401612d41906154e4565b60405180910390fd5b612d767ff82963b9ae6fa337a8dd12f6410c774ee5c802f61ba8271045a481098c94c56060001b61087e565b612da27fe887402e2ddb72ca1a859cedd031953544535208421f164d021e362e09e5d61160001b61087e565b612dce7f3076e310fbe832ff8907c1a0a88e3306bcded3a486e28b2c2d04e5d009eb448760001b61087e565b612dfa7f1ecd37f8e54f53940537f4734c18e15227c13b2acfe96bf10d6709d38c461ae460001b61087e565b6000341415612e3e576040517f08c379a0000000000000000000000000000000000000000000000000000000008152600401612e35906153e4565b60405180910390fd5b612e6a7f89ffcbde06a766fe643cfe5a2f6b32a4cfa60c38b8e18b86f26a5ca21545402e60001b61087e565b612e967f8dc4291b660e8f20c594508e38c951a7771c2a81c7b935f62c25dadb6fbd8f9c60001b61087e565b612ec27f32f931272093725284b3016b2e97937288208ad7d8180b7a0ca16d41f8d763ad60001b61087e565b612eee7f0cd94e52ec13d954b9cb58bdea99ed5302148915833b3721036865e60eb414c860001b61087e565b8984612efa919061566b565b8534612f06919061566b565b1015612f47576040517f08c379a0000000000000000000000000000000000000000000000000000000008152600401612f3e906153c4565b60405180910390fd5b612f737f699868fc30e6e7b02d42e4f8bc2cc65dfd14b459316fba315bba7218934b566860001b61087e565b612f9f7f74e7d62329a7cd982164366550faf431fd01c98ad148818495a7407d329df92360001b61087e565b612fcb7f235dffc382789021461f6b35b5e0418da109daf431c539c193267ef6d6f62d9360001b61087e565b6000612710600660149054906101000a900461ffff1661ffff1634612ff0919061566b565b612ffa919061563a565b90506130287f5a8919700b754ad8704caee597df4a49d6ab5974f720cf235dce7e61b0539d0d60001b61087e565b6130547f63dc19a010eb81aceee11c4220e1f3f855613cfc32777e0060ecb5f6baf8c68260001b61087e565b806007600082825461306691906155e4565b925050819055506130997f897780fb8322d4f3f35ed854a3f77f955946ac365e853309c102afeb51dd0e5560001b61087e565b6130c57f76a636f29f8e67dc69eeaf3cfa001ff2340b0d4c964d3b89c67472a53600218560001b61087e565b8873ffffffffffffffffffffffffffffffffffffffff166108fc82346130eb91906156c5565b9081150290604051600060405180830381858888f19350505050158015613116573d6000803e3d6000fd5b506131437ff558cd012f6ace390e5203b9436ea2aae2b95538d9cb7351a07c0c2286cd0b6d60001b61087e565b61316f7f04f069c9ed6e49e85191217c8a18a2941c2974d46293caa4b33dc7bb3b822c0960001b61087e565b6000612710600660149054906101000a900461ffff1661ffff168d613194919061566b565b61319e919061563a565b90506131cc7f4d6ae00a0ba98b94c6d2c54a98470b347eb92397320d4dbab540c829a96162a260001b61087e565b6131f87fe28702b87099a1c7b05c8eb45fa0f323e64562b5dc5324e593a33ee01148c32460001b61087e565b80600860008b73ffffffffffffffffffffffffffffffffffffffff1673ffffffffffffffffffffffffffffffffffffffff168152602001908152602001600020600082825461324791906155e4565b9250508190555061327a7f4a1b1284b5a01d508322358ea2eb8694cea8f156ccd1b94ddfdefc1572bde40760001b61087e565b6132a67f2033d5001f24db612cd8913589b758f8db9c826b4cd95d8b4152a4f9dae0e16b60001b61087e565b8873ffffffffffffffffffffffffffffffffffffffff1663a9059cbb33838f6132cf91906156c5565b6040518363ffffffff1660e01b81526004016132ec9291906152de565b602060405180830381600087803b15801561330657600080fd5b505af115801561331a573d6000803e3d6000fd5b505050506040513d601f19601f8201168201806040525081019061333e9190614d0e565b5050505b61336e7fc1123ecda10b4377c6e9c8bc037caf43039aea99e41a1a4a399528d2dd602a8860001b61087e565b61339a7f95cbbd5f5cec0d578a0c8e0a2560940b4498f8724de029ce2fae99b7d2d708a360001b61087e565b3373ffffffffffffffffffffffffffffffffffffffff168c7fb7bff262e9e541441fc8fdbf72da6450a0d238715f6cecce1634def8838dc9f68989898f87896040516133eb9695949392919061527d565b60405180910390a350505050505050505060018081905550505050565b60606134367f0a0699aa6b6199d9766ed9e3626117394c5275a58bbc5330245681e13eb74ca260001b61087e565b6134627fc7dccff567e303e93c7b6b26e822118bb6ed88b5aea3173c078543c8301f389460001b61087e565b61348e7fb90abb11151eb8c98dcbfd1c903a3a006d3f929fa43ee51c496050721ce7d64260001b61087e565b600260008373ffffffffffffffffffffffffffffffffffffffff1673ffffffffffffffffffffffffffffffffffffffff16815260200190815260200160002080548060200260200160405190810160405280929190818152602001828054801561351757602002820191906000526020600020905b815481526020019060010190808311613503575b50505050509050919050565b61354f7f29f4a4ae684611db60d87b118a33887330992d65e750134818bfac10b9e34d8a60001b61087e565b61357b7f9c1879f6c2c5d96a0752f453381103a8686fa22784332cb7240f40a8456f6beb60001b61087e565b6135a77feb5725f330fd947fd12793f24fcfcba4ecc8cdba751be27d23e83433a4630f3f60001b61087e565b6135d37fad977297c79820ac48198959c4db6cbb1bf0cce090f99b830e9b055052c048c960001b61087e565b600073ffffffffffffffffffffffffffffffffffffffff168273ffffffffffffffffffffffffffffffffffffffff161415613643576040517f08c379a000000000000000000000000000000000000000000000000000000000815260040161363a906154c4565b60405180910390fd5b61366f7f4a6b625014df966cadf315777459df64f1cf4490a08155a4b168629d8e6a50f860001b61087e565b61369b7f13785eaf77df68c93b034344f16b7c46387bab61091c937dac3437f6622a262e60001b61087e565b6136c77fa332a7f20500b0685c66dbf398d7a5c78c02ca9e8be51ebc820cbfe815da8f6760001b61087e565b6136f37f65953924c29a3be10f4ef10c5bf6b3a90907ba610e5ed05d65c760746d8d28d360001b61087e565b6000341415613737576040517f08c379a000000000000000000000000000000000000000000000000000000000815260040161372e90615384565b60405180910390fd5b6137637fb59779e1f77880f744e530d843ad31422b714303f343425c83f4e4c8c411709a60001b61087e565b61378f7f958814d1970a4bffadf510b293330106bc2c08f85716106f399503ad36b168b960001b61087e565b6137bb7f7adf45ed72b2b47efeb9757cf8bc9002ec8103689588eb89bdbe8d090248917f60001b61087e565b6137c8600083348461455d565b5050565b6137d4614555565b73ffffffffffffffffffffffffffffffffffffffff166137f2610ed5565b73ffffffffffffffffffffffffffffffffffffffff1614613848576040517f08c379a000000000000000000000000000000000000000000000000000000000815260040161383f90615444565b60405180910390fd5b600073ffffffffffffffffffffffffffffffffffffffff168173ffffffffffffffffffffffffffffffffffffffff1614156138b8576040517f08c379a00000000000000000000000000000000000000000000000000000000081526004016138af90615364565b60405180910390fd5b8073ffffffffffffffffffffffffffffffffffffffff1660008054906101000a900473ffffffffffffffffffffffffffffffffffffffff1673ffffffffffffffffffffffffffffffffffffffff167f8be0079c531659141344cd1fd0a4f28419497f9722a3daafe3b4186f6b6457e060405160405180910390a3806000806101000a81548173ffffffffffffffffffffffffffffffffffffffff021916908373ffffffffffffffffffffffffffffffffffffffff16021790555050565b60006139a37fff3c1b34262b481e7ba6443b423b507e7af067fad0de5301c05ee0188036097460001b61087e565b6139cf7f86e7f3b8e0b88f1886f013422bfc4ef52fe38a390de557cd4fadbf2d039db49660001b61087e565b6139fb7fda3b0fd5f83d327a310536b3d8806634f6216c4b9144e8a237c9dc6c9dba9fa660001b61087e565b600360008473ffffffffffffffffffffffffffffffffffffffff1673ffffffffffffffffffffffffffffffffffffffff16815260200190815260200160002060008373ffffffffffffffffffffffffffffffffffffffff1673ffffffffffffffffffffffffffffffffffffffff16815260200190815260200160002080549050905092915050565b60026001541415613ac9576040517f08c379a0000000000000000000000000000000000000000000000000000000008152600401613ac090615524565b60405180910390fd5b6002600181905550613afd7fab1a75085a0caf7de1cbcf129ff6e04ce16ee67324c4e84b6d3242339baab17d60001b61087e565b613b297fae80446378ffbb895e871084e7ec20e3d5d5dd22cf3db3a33faf2c31ab874ae860001b61087e565b613b557f93db0a55f9112cf156bc34b050b4cfc36b5006db45bd13a4c9f3b1a8ec90046d60001b61087e565b613b817ff4320d29553a6512f57300d684fe8635694fae341ef9075d8fc9c8998d7fad8a60001b61087e565b600660009054906101000a900473ffffffffffffffffffffffffffffffffffffffff1673ffffffffffffffffffffffffffffffffffffffff163373ffffffffffffffffffffffffffffffffffffffff1614613c11576040517f08c379a0000000000000000000000000000000000000000000000000000000008152600401613c0890615504565b60405180910390fd5b613c3d7f288539fcc1b054a7a8aa09660850af9d76de8fa2c36cfb52038a1838d8de313f60001b61087e565b613c697f5cea3d8e18e4b348115c5aa401f7dd613ef8e50b129caea999a97290992ac49c60001b61087e565b613c957fc3fbf1a7475deddc72540898b72cb5ccebdd52077246a7df72d03f8f4c57349d60001b61087e565b600073ffffffffffffffffffffffffffffffffffffffff168273ffffffffffffffffffffffffffffffffffffffff16141561402957613cf67f84e2f3218ad5507049ebe41f93cf3b5e3d3b6f97f8955bec68b3fdb3580876e360001b61087e565b613d227f885f26cc377805bcf2fa720035c9c55b5c41f2a80ec0be6d9495061b7985b79260001b61087e565b613d4e7f683ffeffb1f505ba2d40bcdc81043286503ce1c6df9cda170aab042b38ad470560001b61087e565b6007548111613e9857613d837f77985cc5bc7f44438333ef2860beb0b5b1ef097ddb488fbc86f2892a9342069d60001b61087e565b613daf7feb4597d76194631e6bcef5577997ec43bbe838fa2606bf78d8054418d29d396860001b61087e565b613ddb7f7468257f545dc00cccd2b0f663119e7ae4b01c18ecfbc73da9a50f5d6397c8d560001b61087e565b8060076000828254613ded91906156c5565b92505081905550613e207f09d98ca7b75b2b3b6072c14e3143984b236e256684ff8f478acfd47304af620e60001b61087e565b613e4c7fdfb75340046428dce5ff3c5b223132855528e40afec3c49a66bc3e6098fdd3b060001b61087e565b3373ffffffffffffffffffffffffffffffffffffffff166108fc829081150290604051600060405180830381858888f19350505050158015613e92573d6000803e3d6000fd5b50614024565b613ec47fbc36656d2e8267dcdfc9c8c92bb08c5d2e7ea7b6d21781a8f5d42ee15e05ea6e60001b61087e565b613ef07f41190eb9512f47cae3dfd40917b14b4a814dd1e7079e64a50360a22961667f1c60001b61087e565b613f1c7ff403fd7421adacd7c4a4eddd8f4b692ac6db1baf2494f1e9f333ea4bd984275260001b61087e565b60006007549050613f4f7fb0968038937a739f17b38add8e0e3ee197732de4f91702b6f8192165d45ce5d260001b61087e565b613f7b7fc271fe6e06cac0a28180edb0a842f1e958147ff9957016831123e400ac14dad360001b61087e565b6000600781905550613faf7fe6a195dc8ef9f79c9f0ffb6748fc94d0020b56277b3ebb13f663b56ebc5bd5cb60001b61087e565b613fdb7fcdfbf5c11829d9d73cfb66b5bcffb4ba7f123ee7631987710c43ef9df0ba0f2b60001b61087e565b3373ffffffffffffffffffffffffffffffffffffffff166108fc829081150290604051600060405180830381858888f19350505050158015614021573d6000803e3d6000fd5b50505b61454a565b6140557fe1d1256d02e6521e8baa6fd9ee68b91df258f477054863f4283527d181acfd4660001b61087e565b6140817fb7e84d7bb382bc257867d5706ada1041deba46ea58249995bfdc8ea3e6361a1d60001b61087e565b6140ad7f266f3c01add01e064306dd62197118643ab0449c03526c4fa0dbfab15f7c9fed60001b61087e565b600860008373ffffffffffffffffffffffffffffffffffffffff1673ffffffffffffffffffffffffffffffffffffffff1681526020019081526020016000205481116142da5761411f7f1140d12722ee3fb407e8b5dd74d6cf7d49fb26ca753a386a33283e3abb3e155760001b61087e565b61414b7f72780752b49798d789ef3dd6363ba64ce8177d19296619010ff676748b73f17160001b61087e565b6141777f471c22198461a8e51fb04fe08c5df06b2c91303bab1e201b2eff32abe5ad163560001b61087e565b80600860008473ffffffffffffffffffffffffffffffffffffffff1673ffffffffffffffffffffffffffffffffffffffff16815260200190815260200160002060008282546141c691906156c5565b925050819055506141f97fb2652ef2c467dbafad1673468806de80a47af0e0f520e3b79f896574c7a7906b60001b61087e565b6142257fe3ec7c7bc773c399b4aae55c352bb19fafdffcd944922306de243f79221b61ef60001b61087e565b8173ffffffffffffffffffffffffffffffffffffffff1663a9059cbb600660009054906101000a900473ffffffffffffffffffffffffffffffffffffffff16836040518363ffffffff1660e01b81526004016142829291906152de565b602060405180830381600087803b15801561429c57600080fd5b505af11580156142b0573d6000803e3d6000fd5b505050506040513d601f19601f820116820180604052508101906142d49190614d0e565b50614549565b6143067f34f049b918429779f2271947a0eaf537242a636a98cb6c1aeeaf94a6821f03f060001b61087e565b6143327fe5e0442741f145f38772998f78b204a0f7a764afe403f90f3d22609a92e6825d60001b61087e565b61435e7f3bd5561cbc98a326b133f34681e8ab7f912ecac84d43ccf603239c90112dd97260001b61087e565b6000600860008473ffffffffffffffffffffffffffffffffffffffff1673ffffffffffffffffffffffffffffffffffffffff1681526020019081526020016000205490506143ce7ff46553c582805e65b971e5bb0145fffd06a57df10ecde9ff478e05af9e2b58ec60001b61087e565b6143fa7f8fb5ebbeccca3c0ca956f3bf4cc27f55e0b56ddf037b36944c0fce70c987cda460001b61087e565b6000600860008573ffffffffffffffffffffffffffffffffffffffff1673ffffffffffffffffffffffffffffffffffffffff1681526020019081526020016000208190555061446b7f170f03e2eceb7cd1128b706615d9c0d683e5b1fde4d5f84c7c635e2585795a2060001b61087e565b6144977f8f5f643eb4dd9e811545d25c57c77e9234ba4836b6899dcb1fa518376430810760001b61087e565b8273ffffffffffffffffffffffffffffffffffffffff1663a9059cbb600660009054906101000a900473ffffffffffffffffffffffffffffffffffffffff16836040518363ffffffff1660e01b81526004016144f49291906152de565b602060405180830381600087803b15801561450e57600080fd5b505af1158015614522573d6000803e3d6000fd5b505050506040513d601f19601f820116820180604052508101906145469190614d0e565b50505b5b600180819055505050565b600033905090565b6145897fbfdaaefd731195516ba746ffd107131107087049e259708c7b7a8f8ecc389ac760001b61087e565b6145b57f4a32da20571b338ad90e4efabccc458e42a34fa237a93ac74606ac53ce8c0aea60001b61087e565b6145e17f5e7836470be9b460fcf1c8e55b414434ac26cd4d92ac01c83c66fa5418afa3fb60001b61087e565b60006145ee338686614a57565b905061461c7fc0aeb1b02e4035901995b3a7a53ffeb6c57198a8185aaf64bac24ff4ca59fe1260001b61087e565b6146487f7aa838ecb4ad89d24aff87e446f3b6ba0855692be3af19c68f9d2cda8125699a60001b61087e565b6040518060e001604052803373ffffffffffffffffffffffffffffffffffffffff1681526020018673ffffffffffffffffffffffffffffffffffffffff1681526020018573ffffffffffffffffffffffffffffffffffffffff16815260200184815260200183815260200160008152602001600015158152506004600083815260200190815260200160002060008201518160000160006101000a81548173ffffffffffffffffffffffffffffffffffffffff021916908373ffffffffffffffffffffffffffffffffffffffff16021790555060208201518160010160006101000a81548173ffffffffffffffffffffffffffffffffffffffff021916908373ffffffffffffffffffffffffffffffffffffffff16021790555060408201518160020160006101000a81548173ffffffffffffffffffffffffffffffffffffffff021916908373ffffffffffffffffffffffffffffffffffffffff160217905550606082015181600301556080820151816004015560a0820151816005015560c08201518160060160006101000a81548160ff0219169083151502179055509050506148167fc8410092251171460da23fc48f8317e118c6efab6caa31902404e385349816d760001b61087e565b6148427fef03f85207a0217698969978f4dcf7bd8fabbb1bc1926fbf991156b3ef1326de60001b61087e565b600260003373ffffffffffffffffffffffffffffffffffffffff1673ffffffffffffffffffffffffffffffffffffffff1681526020019081526020016000208190806001815401808255809150506001900390600052602060002001600090919091909150556148d47f44f943b83a609bedc473eb91d226fc101dfdb083bab94837c13ca92d1970217a60001b61087e565b6149007f08a29c544ede3998d2d2bfda0052d3a47a0f3c744552c914a19fe854528a0a2b60001b61087e565b600360008673ffffffffffffffffffffffffffffffffffffffff1673ffffffffffffffffffffffffffffffffffffffff16815260200190815260200160002060008573ffffffffffffffffffffffffffffffffffffffff1673ffffffffffffffffffffffffffffffffffffffff1681526020019081526020016000208190806001815401808255809150506001900390600052602060002001600090919091909150556149cf7f4968645273982a488f056fcc562ad477ab63128204194754cafb0fa143fb4a7360001b61087e565b6149fb7fa06447a1ef4642bf15899c3b9a7b765f9d54286b3c2e533cb2e3ebab9a2a5c5060001b61087e565b3373ffffffffffffffffffffffffffffffffffffffff16817f0a1e03f0018d2d034e06e8c9c3d4578d28bab4a029443fe4f57367555d6e81e787878787604051614a489493929190615238565b60405180910390a35050505050565b6000614a857f5a785c2f1124357a7f298c4e6df42c7cf0e6b90950349d5efddc3b8d8d2c2c3960001b61087e565b614ab17f87cc99faca88d0dc0babb6b13854000ccc4702fa996b46a8464132fcbfdef42060001b61087e565b614add7f5c257b00b4913053f37e20bb75d994675af907547773ed01a9574a15377d5e3860001b61087e565b838383600560008873ffffffffffffffffffffffffffffffffffffffff1673ffffffffffffffffffffffffffffffffffffffff1681526020019081526020016000206000815480929190614b3090615759565b91905055604051602001614b479493929190615129565b6040516020818303038152906040528051906020012090509392505050565b600081359050614b7581615b1a565b92915050565b600081519050614b8a81615b31565b92915050565b600081359050614b9f81615b48565b92915050565b600081359050614bb481615b5f565b92915050565b600081359050614bc981615b76565b92915050565b600060208284031215614be157600080fd5b6000614bef84828501614b66565b91505092915050565b60008060408385031215614c0b57600080fd5b6000614c1985828601614b66565b9250506020614c2a85828601614b66565b9150509250929050565b600080600060608486031215614c4957600080fd5b6000614c5786828701614b66565b9350506020614c6886828701614b66565b9250506040614c7986828701614bba565b9150509250925092565b60008060408385031215614c9657600080fd5b6000614ca485828601614b66565b9250506020614cb585828601614bba565b9150509250929050565b600080600060608486031215614cd457600080fd5b6000614ce286828701614b66565b9350506020614cf386828701614bba565b9250506040614d0486828701614bba565b9150509250925092565b600060208284031215614d2057600080fd5b6000614d2e84828501614b7b565b91505092915050565b600060208284031215614d4957600080fd5b6000614d5784828501614b90565b91505092915050565b600080600060608486031215614d7557600080fd5b6000614d8386828701614b90565b9350506020614d9486828701614bba565b9250506040614da586828701614bba565b9150509250925092565b600060208284031215614dc157600080fd5b6000614dcf84828501614ba5565b91505092915050565b6000614de48383614e83565b60208301905092915050565b614df9816156f9565b82525050565b614e10614e0b826156f9565b6157a2565b82525050565b6000614e21826155aa565b614e2b81856155c2565b9350614e368361559a565b8060005b83811015614e67578151614e4e8882614dd8565b9750614e59836155b5565b925050600181019050614e3a565b5085935050505092915050565b614e7d8161570b565b82525050565b614e8c81615717565b82525050565b614e9b81615717565b82525050565b6000614eae6008836155d3565b9150614eb98261583b565b602082019050919050565b6000614ed16026836155d3565b9150614edc82615864565b604082019050919050565b6000614ef46008836155d3565b9150614eff826158b3565b602082019050919050565b6000614f17600a836155d3565b9150614f22826158dc565b602082019050919050565b6000614f3a600a836155d3565b9150614f4582615905565b602082019050919050565b6000614f5d600f836155d3565b9150614f688261592e565b602082019050919050565b6000614f806012836155d3565b9150614f8b82615957565b602082019050919050565b6000614fa3600f836155d3565b9150614fae82615980565b602082019050919050565b6000614fc66020836155d3565b9150614fd1826159a9565b602082019050919050565b6000614fe9600b836155d3565b9150614ff4826159d2565b602082019050919050565b600061500c6015836155d3565b9150615017826159fb565b602082019050919050565b600061502f601d836155d3565b915061503a82615a24565b602082019050919050565b6000615052600b836155d3565b915061505d82615a4d565b602082019050919050565b60006150756018836155d3565b915061508082615a76565b602082019050919050565b6000615098600d836155d3565b91506150a382615a9f565b602082019050919050565b60006150bb601f836155d3565b91506150c682615ac8565b602082019050919050565b60006150de6009836155d3565b91506150e982615af1565b602082019050919050565b6150fd81615721565b82525050565b61510c8161574f565b82525050565b61512361511e8261574f565b6157c6565b82525050565b60006151358287614dff565b6014820191506151458286614dff565b6014820191506151558285614dff565b6014820191506151658284615112565b60208201915081905095945050505050565b600060208201905061518c6000830184614df0565b92915050565b600060e0820190506151a7600083018a614df0565b6151b46020830189614df0565b6151c16040830188614df0565b6151ce6060830187615103565b6151db6080830186615103565b6151e860a0830185615103565b6151f560c0830184614e74565b98975050505050505050565b60006060820190506152166000830186614df0565b6152236020830185614df0565b6152306040830184615103565b949350505050565b600060808201905061524d6000830187614df0565b61525a6020830186614df0565b6152676040830185615103565b6152746060830184615103565b95945050505050565b600060c0820190506152926000830189614df0565b61529f6020830188614df0565b6152ac6040830187615103565b6152b96060830186615103565b6152c66080830185615103565b6152d360a0830184614e74565b979650505050505050565b60006040820190506152f36000830185614df0565b6153006020830184615103565b9392505050565b600060208201905081810360008301526153218184614e16565b905092915050565b600060208201905061533e6000830184614e92565b92915050565b6000602082019050818103600083015261535d81614ea1565b9050919050565b6000602082019050818103600083015261537d81614ec4565b9050919050565b6000602082019050818103600083015261539d81614ee7565b9050919050565b600060208201905081810360008301526153bd81614f0a565b9050919050565b600060208201905081810360008301526153dd81614f2d565b9050919050565b600060208201905081810360008301526153fd81614f50565b9050919050565b6000602082019050818103600083015261541d81614f73565b9050919050565b6000602082019050818103600083015261543d81614f96565b9050919050565b6000602082019050818103600083015261545d81614fb9565b9050919050565b6000602082019050818103600083015261547d81614fdc565b9050919050565b6000602082019050818103600083015261549d81614fff565b9050919050565b600060208201905081810360008301526154bd81615022565b9050919050565b600060208201905081810360008301526154dd81615045565b9050919050565b600060208201905081810360008301526154fd81615068565b9050919050565b6000602082019050818103600083015261551d8161508b565b9050919050565b6000602082019050818103600083015261553d816150ae565b9050919050565b6000602082019050818103600083015261555d816150d1565b9050919050565b600060208201905061557960008301846150f4565b92915050565b60006020820190506155946000830184615103565b92915050565b6000819050602082019050919050565b600081519050919050565b6000602082019050919050565b600082825260208201905092915050565b600082825260208201905092915050565b60006155ef8261574f565b91506155fa8361574f565b9250827fffffffffffffffffffffffffffffffffffffffffffffffffffffffffffffffff0382111561562f5761562e6157d0565b5b828201905092915050565b60006156458261574f565b91506156508361574f565b9250826156605761565f6157ff565b5b828204905092915050565b60006156768261574f565b91506156818361574f565b9250817fffffffffffffffffffffffffffffffffffffffffffffffffffffffffffffffff04831182151516156156ba576156b96157d0565b5b828202905092915050565b60006156d08261574f565b91506156db8361574f565b9250828210156156ee576156ed6157d0565b5b828203905092915050565b60006157048261572f565b9050919050565b60008115159050919050565b6000819050919050565b600061ffff82169050919050565b600073ffffffffffffffffffffffffffffffffffffffff82169050919050565b6000819050919050565b60006157648261574f565b91507fffffffffffffffffffffffffffffffffffffffffffffffffffffffffffffffff821415615797576157966157d0565b5b600182019050919050565b60006157ad826157b4565b9050919050565b60006157bf8261582e565b9050919050565b6000819050919050565b7f4e487b7100000000000000000000000000000000000000000000000000000000600052601160045260246000fd5b7f4e487b7100000000000000000000000000000000000000000000000000000000600052601260045260246000fd5b60008160601b9050919050565b7f4974277320656e64000000000000000000000000000000000000000000000000600082015250565b7f4f776e61626c653a206e6577206f776e657220697320746865207a65726f206160008201527f6464726573730000000000000000000000000000000000000000000000000000602082015250565b7f7a65726f20455448000000000000000000000000000000000000000000000000600082015250565b7f596f7572206f7264657200000000000000000000000000000000000000000000600082015250565b7f6c65737320707269636500000000000000000000000000000000000000000000600082015250565b7f4861766520746f20706179204554480000000000000000000000000000000000600082015250565b7f4861766520746f2070617920546f6b656e730000000000000000000000000000600082015250565b7f427579206c65737320616d6f756e740000000000000000000000000000000000600082015250565b7f4f776e61626c653a2063616c6c6572206973206e6f7420746865206f776e6572600082015250565b7f7a65726f20546f6b656e73000000000000000000000000000000000000000000600082015250565b7f446f6e2774206e65656420746f20706179204554480000000000000000000000600082015250565b7f696e7075742076616c7565206973206d6f7265207468616e2031303025000000600082015250565b7f57726f6e6720546f6b656e000000000000000000000000000000000000000000600082015250565b7f446f6e2774206e65656420746f2070617920546f6b656e730000000000000000600082015250565b7f4163636573732064656e69656400000000000000000000000000000000000000600082015250565b7f5265656e7472616e637947756172643a207265656e7472616e742063616c6c00600082015250565b7f49742773206f7665720000000000000000000000000000000000000000000000600082015250565b615b23816156f9565b8114615b2e57600080fd5b50565b615b3a8161570b565b8114615b4557600080fd5b50565b615b5181615717565b8114615b5c57600080fd5b50565b615b6881615721565b8114615b7357600080fd5b50565b615b7f8161574f565b8114615b8a57600080fd5b5056fea264697066735822122099b02998797cec41a468ffe973a143ca5ea0a9db337b653d85c1fa7fc935947364736f6c63430008030033",
  "linkReferences": {},
  "deployedLinkReferences": {}
}