{
  "_format": "hh-sol-artifact-1",
  "contractName": "OBEX",
  "sourceName": "contracts/OBEX.sol",
  "abi": [
    {
      "inputs": [
        {
          "internalType": "uint16",
          "name": "_feePercent",
          "type": "uint16"
        }
      ],
      "stateMutability": "nonpayable",
      "type": "constructor"
    },
    {
      "anonymous": false,
      "inputs": [
        {
          "indexed": true,
          "internalType": "bytes32",
          "name": "orderId",
          "type": "bytes32"
        }
      ],
      "name": "Cancel",
      "type": "event"
    },
    {
      "anonymous": false,
      "inputs": [
        {
          "indexed": true,
          "internalType": "bytes32",
          "name": "orderId",
          "type": "bytes32"
        },
        {
          "indexed": true,
          "internalType": "address",
          "name": "maker",
          "type": "address"
        },
        {
          "indexed": false,
          "internalType": "address",
          "name": "tokenFromMaker",
          "type": "address"
        },
        {
          "indexed": false,
          "internalType": "address",
          "name": "tokenFromTaker",
          "type": "address"
        },
        {
          "indexed": false,
          "internalType": "uint256",
          "name": "amountFromMaker",
          "type": "uint256"
        },
        {
          "indexed": false,
          "internalType": "uint256",
          "name": "amountTokens",
          "type": "uint256"
        }
      ],
      "name": "Make",
      "type": "event"
    },
    {
      "anonymous": false,
      "inputs": [
        {
          "indexed": true,
          "internalType": "address",
          "name": "previousOwner",
          "type": "address"
        },
        {
          "indexed": true,
          "internalType": "address",
          "name": "newOwner",
          "type": "address"
        }
      ],
      "name": "OwnershipTransferred",
      "type": "event"
    },
    {
      "anonymous": false,
      "inputs": [
        {
          "indexed": true,
          "internalType": "bytes32",
          "name": "orderId",
          "type": "bytes32"
        },
        {
          "indexed": true,
          "internalType": "address",
          "name": "taker",
          "type": "address"
        },
        {
          "indexed": false,
          "internalType": "address",
          "name": "tokenFromMaker",
          "type": "address"
        },
        {
          "indexed": false,
          "internalType": "address",
          "name": "tokenFromTaker",
          "type": "address"
        },
        {
          "indexed": false,
          "internalType": "uint256",
          "name": "amountFromMaker",
          "type": "uint256"
        },
        {
          "indexed": false,
          "internalType": "uint256",
          "name": "amountThisTakerGet",
          "type": "uint256"
        },
        {
          "indexed": false,
          "internalType": "uint256",
          "name": "amountSold",
          "type": "uint256"
        },
        {
          "indexed": false,
          "internalType": "bool",
          "name": "isEnd",
          "type": "bool"
        }
      ],
      "name": "Take",
      "type": "event"
    },
    {
      "inputs": [],
      "name": "ETH_ADDRESS",
      "outputs": [
        {
          "internalType": "address",
          "name": "",
          "type": "address"
        }
      ],
      "stateMutability": "view",
      "type": "function"
    },
    {
      "inputs": [
        {
          "internalType": "address",
          "name": "_maker",
          "type": "address"
        }
      ],
      "name": "_ordersByMaker",
      "outputs": [
        {
          "internalType": "bytes32[]",
          "name": "",
          "type": "bytes32[]"
        }
      ],
      "stateMutability": "view",
      "type": "function"
    },
    {
      "inputs": [
        {
          "internalType": "address",
          "name": "_tokenA",
          "type": "address"
        },
        {
          "internalType": "address",
          "name": "_tokenB",
          "type": "address"
        }
      ],
      "name": "_ordersByTokens",
      "outputs": [
        {
          "internalType": "bytes32[]",
          "name": "",
          "type": "bytes32[]"
        }
      ],
      "stateMutability": "view",
      "type": "function"
    },
    {
      "inputs": [
        {
          "internalType": "bytes32",
          "name": "c__0xc751cbe3",
          "type": "bytes32"
        }
      ],
      "name": "c_0xc751cbe3",
      "outputs": [],
      "stateMutability": "pure",
      "type": "function"
    },
    {
      "inputs": [
        {
          "internalType": "bytes32",
          "name": "_orderId",
          "type": "bytes32"
        }
      ],
      "name": "cancel",
      "outputs": [],
      "stateMutability": "nonpayable",
      "type": "function"
    },
    {
      "inputs": [],
      "name": "feeAddress",
      "outputs": [
        {
          "internalType": "address",
          "name": "",
          "type": "address"
        }
      ],
      "stateMutability": "view",
      "type": "function"
    },
    {
      "inputs": [],
      "name": "feeETHAmounts",
      "outputs": [
        {
          "internalType": "uint256",
          "name": "",
          "type": "uint256"
        }
      ],
      "stateMutability": "view",
      "type": "function"
    },
    {
      "inputs": [],
      "name": "feePercent",
      "outputs": [
        {
          "internalType": "uint16",
          "name": "",
          "type": "uint16"
        }
      ],
      "stateMutability": "view",
      "type": "function"
    },
    {
      "inputs": [
        {
          "internalType": "address",
          "name": "",
          "type": "address"
        }
      ],
      "name": "feeTokenAmounts",
      "outputs": [
        {
          "internalType": "uint256",
          "name": "",
          "type": "uint256"
        }
      ],
      "stateMutability": "view",
      "type": "function"
    },
    {
      "inputs": [
        {
          "internalType": "address",
          "name": "_tokenFromTaker",
          "type": "address"
        },
        {
          "internalType": "uint256",
          "name": "_amountTokens",
          "type": "uint256"
        }
      ],
      "name": "makeOrderFromETHToTokens",
      "outputs": [],
      "stateMutability": "payable",
      "type": "function"
    },
    {
      "inputs": [
        {
          "internalType": "address",
          "name": "_tokenFromMaker",
          "type": "address"
        },
        {
          "internalType": "uint256",
          "name": "_amountFromMaker",
          "type": "uint256"
        },
        {
          "internalType": "uint256",
          "name": "_amountETH",
          "type": "uint256"
        }
      ],
      "name": "makeOrderFromTokensToETH",
      "outputs": [],
      "stateMutability": "nonpayable",
      "type": "function"
    },
    {
      "inputs": [
        {
          "internalType": "address",
          "name": "_maker",
          "type": "address"
        }
      ],
      "name": "makerOrderLength",
      "outputs": [
        {
          "internalType": "uint256",
          "name": "",
          "type": "uint256"
        }
      ],
      "stateMutability": "view",
      "type": "function"
    },
    {
      "inputs": [
        {
          "internalType": "address",
          "name": "",
          "type": "address"
        }
      ],
      "name": "nonces",
      "outputs": [
        {
          "internalType": "uint256",
          "name": "",
          "type": "uint256"
        }
      ],
      "stateMutability": "view",
      "type": "function"
    },
    {
      "inputs": [
        {
          "internalType": "bytes32",
          "name": "",
          "type": "bytes32"
        }
      ],
      "name": "orders",
      "outputs": [
        {
          "internalType": "address",
          "name": "maker",
          "type": "address"
        },
        {
          "internalType": "address",
          "name": "tokenFromMaker",
          "type": "address"
        },
        {
          "internalType": "address",
          "name": "tokenFromTaker",
          "type": "address"
        },
        {
          "internalType": "uint256",
          "name": "amountFromMaker",
          "type": "uint256"
        },
        {
          "internalType": "uint256",
          "name": "amountTokens",
          "type": "uint256"
        },
        {
          "internalType": "uint256",
          "name": "amountSold",
          "type": "uint256"
        },
        {
          "internalType": "bool",
          "name": "isEnd",
          "type": "bool"
        }
      ],
      "stateMutability": "view",
      "type": "function"
    },
    {
      "inputs": [
        {
          "internalType": "address",
          "name": "",
          "type": "address"
        },
        {
          "internalType": "uint256",
          "name": "",
          "type": "uint256"
        }
      ],
      "name": "ordersByMaker",
      "outputs": [
        {
          "internalType": "bytes32",
          "name": "",
          "type": "bytes32"
        }
      ],
      "stateMutability": "view",
      "type": "function"
    },
    {
      "inputs": [
        {
          "internalType": "address",
          "name": "",
          "type": "address"
        },
        {
          "internalType": "address",
          "name": "",
          "type": "address"
        },
        {
          "internalType": "uint256",
          "name": "",
          "type": "uint256"
        }
      ],
      "name": "ordersByTokens",
      "outputs": [
        {
          "internalType": "bytes32",
          "name": "",
          "type": "bytes32"
        }
      ],
      "stateMutability": "view",
      "type": "function"
    },
    {
      "inputs": [],
      "name": "owner",
      "outputs": [
        {
          "internalType": "address",
          "name": "",
          "type": "address"
        }
      ],
      "stateMutability": "view",
      "type": "function"
    },
    {
      "inputs": [],
      "name": "renounceOwnership",
      "outputs": [],
      "stateMutability": "nonpayable",
      "type": "function"
    },
    {
      "inputs": [
        {
          "internalType": "address",
          "name": "_feeAddress",
          "type": "address"
        }
      ],
      "name": "setFeeAddress",
      "outputs": [],
      "stateMutability": "nonpayable",
      "type": "function"
    },
    {
      "inputs": [
        {
          "internalType": "bytes32",
          "name": "_orderId",
          "type": "bytes32"
        },
        {
          "internalType": "uint256",
          "name": "_amountTakerPayTokens",
          "type": "uint256"
        },
        {
          "internalType": "uint256",
          "name": "_amountTakerRcvWOFee",
          "type": "uint256"
        }
      ],
      "name": "takeOrder",
      "outputs": [],
      "stateMutability": "payable",
      "type": "function"
    },
    {
      "inputs": [
        {
          "internalType": "address",
          "name": "_tokenFromMaker",
          "type": "address"
        },
        {
          "internalType": "address",
          "name": "_tokenFromTaker",
          "type": "address"
        }
      ],
      "name": "tokensOrderLength",
      "outputs": [
        {
          "internalType": "uint256",
          "name": "",
          "type": "uint256"
        }
      ],
      "stateMutability": "view",
      "type": "function"
    },
    {
      "inputs": [
        {
          "internalType": "address",
          "name": "newOwner",
          "type": "address"
        }
      ],
      "name": "transferOwnership",
      "outputs": [],
      "stateMutability": "nonpayable",
      "type": "function"
    },
    {
      "inputs": [
        {
          "internalType": "uint16",
          "name": "_percent",
          "type": "uint16"
        }
      ],
      "name": "updateFeePercent",
      "outputs": [],
      "stateMutability": "nonpayable",
      "type": "function"
    },
    {
      "inputs": [
        {
          "internalType": "address",
          "name": "_token",
          "type": "address"
        },
        {
          "internalType": "uint256",
          "name": "amount",
          "type": "uint256"
        }
      ],
      "name": "withdrawFee",
      "outputs": [],
      "stateMutability": "nonpayable",
      "type": "function"
    }
  ],
  "bytecode": "0x60806040523480156200001157600080fd5b506040516200603f3803806200603f833981810160405281019062000037919062000395565b6000620000496200037360201b60201c565b9050806000806101000a81548173ffffffffffffffffffffffffffffffffffffffff021916908373ffffffffffffffffffffffffffffffffffffffff1602179055508073ffffffffffffffffffffffffffffffffffffffff16600073ffffffffffffffffffffffffffffffffffffffff167f8be0079c531659141344cd1fd0a4f28419497f9722a3daafe3b4186f6b6457e060405160405180910390a35060018081905550620001227ffaf58e8b941b7ceec4a8ff8d01fb79fe143078391ed328dd3d2deba19e35630860001b6200037b60201b60201c565b620001567fe1d058428cb3fdbf38d5ddcb471b0e2193fb0e01c17b7256142d411d8bd00c2e60001b6200037b60201b60201c565b6200018a7fbd3766d3202a43b23f6c1acb284f7416e881f19b5b1a2daff3f5eb973c85ac0060001b6200037b60201b60201c565b620001be7f192c5d0e83d803e9567e7c092835e154c6468c3e92a90d0a88cbfddb51f58e1d60001b6200037b60201b60201c565b6127108161ffff1611156200020a576040517f08c379a00000000000000000000000000000000000000000000000000000000081526004016200020190620003e8565b60405180910390fd5b6200023e7fed49572f39b0867e30dc55828e6ec64f26b4abe205e76a0f04011e16ff2ac83360001b6200037b60201b60201c565b620002727f97f27b50b93f546d8c0da807c77e94dee66bb734f150653137f735cfd55dd6fe60001b6200037b60201b60201c565b620002a67fa1e1002b1ed57ac3b93ac394acfce15e84532a5264fcce4cb3df85e0479527e160001b6200037b60201b60201c565b33600660006101000a81548173ffffffffffffffffffffffffffffffffffffffff021916908373ffffffffffffffffffffffffffffffffffffffff1602179055506200031b7f51ca7a1d09a905862e19d6ce074bf45cb457b8dfc8ed4c716911d33d05176f1960001b6200037b60201b60201c565b6200034f7f8844f7a0fd9b08d6d0be73664ba4700e3bb654918b7bc3b83e24fe7134446d5860001b6200037b60201b60201c565b80600660146101000a81548161ffff021916908361ffff160217905550506200046c565b600033905090565b50565b6000815190506200038f8162000452565b92915050565b600060208284031215620003a857600080fd5b6000620003b8848285016200037e565b91505092915050565b6000620003d0601d836200040a565b9150620003dd8262000429565b602082019050919050565b600060208201905081810360008301526200040381620003c1565b9050919050565b600082825260208201905092915050565b600061ffff82169050919050565b7f696e7075742076616c7565206973206d6f7265207468616e2031303025000000600082015250565b6200045d816200041b565b81146200046957600080fd5b50565b615bc3806200047c6000396000f3fe60806040526004361061014b5760003560e01c80638da5cb5b116100b6578063e24d49311161006f578063e24d4931146104bc578063eaba01f0146104d8578063f071620114610515578063f2fde38b14610531578063fd437f041461055a578063fd9be522146105975761014b565b80638da5cb5b146103a65780639c3f1e90146103d1578063a04a86bd14610414578063a734f06e1461043d578063bf59e0f814610468578063c4d252f5146104935761014b565b80634b54b43e116101085780634b54b43e14610298578063715018a6146102d55780637ecebe00146102ec5780637fd6f15c146103295780638705fcd41461035457806388dca5731461037d5761014b565b80630b7034a5146101505780632281f97b1461018d57806325792a4d146101ca57806333580a52146102075780634127535814610244578063447e50321461026f575b600080fd5b34801561015c57600080fd5b5061017760048036038101906101729190614bcf565b6105c0565b604051610184919061557f565b60405180910390f35b34801561019957600080fd5b506101b460048036038101906101af9190614c34565b610690565b6040516101c19190615329565b60405180910390f35b3480156101d657600080fd5b506101f160048036038101906101ec9190614bf8565b6106ce565b6040516101fe9190615307565b60405180910390f35b34801561021357600080fd5b5061022e60048036038101906102299190614c83565b610827565b60405161023b9190615329565b60405180910390f35b34801561025057600080fd5b50610259610858565b6040516102669190615177565b60405180910390f35b34801561027b57600080fd5b5061029660048036038101906102919190614d37565b61087e565b005b3480156102a457600080fd5b506102bf60048036038101906102ba9190614bcf565b610881565b6040516102cc919061557f565b60405180910390f35b3480156102e157600080fd5b506102ea610899565b005b3480156102f857600080fd5b50610313600480360381019061030e9190614bcf565b6109d3565b604051610320919061557f565b60405180910390f35b34801561033557600080fd5b5061033e6109eb565b60405161034b9190615564565b60405180910390f35b34801561036057600080fd5b5061037b60048036038101906103769190614bcf565b6109ff565b005b34801561038957600080fd5b506103a4600480360381019061039f9190614cbf565b610b43565b005b3480156103b257600080fd5b506103bb610ed5565b6040516103c89190615177565b60405180910390f35b3480156103dd57600080fd5b506103f860048036038101906103f39190614d37565b610efe565b60405161040b9796959493929190615192565b60405180910390f35b34801561042057600080fd5b5061043b60048036038101906104369190614daf565b610fad565b005b34801561044957600080fd5b506104526111c6565b60405161045f9190615177565b60405180910390f35b34801561047457600080fd5b5061047d6111cb565b60405161048a919061557f565b60405180910390f35b34801561049f57600080fd5b506104ba60048036038101906104b59190614d37565b6111d1565b005b6104d660048036038101906104d19190614d60565b611a8b565b005b3480156104e457600080fd5b506104ff60048036038101906104fa9190614bcf565b613408565b60405161050c9190615307565b60405180910390f35b61052f600480360381019061052a9190614c83565b613523565b005b34801561053d57600080fd5b5061055860048036038101906105539190614bcf565b6137cc565b005b34801561056657600080fd5b50610581600480360381019061057c9190614bf8565b613975565b60405161058e919061557f565b60405180910390f35b3480156105a357600080fd5b506105be60048036038101906105b99190614c83565b613a83565b005b60006105ee7f3ca88f20cfe091ebeffdd744deee4c6ec0175dbaa828ea077ec6dfc1cc5c1fcc60001b61087e565b61061a7ff0cacc966c0d0aadc809852c0f8651039771a95ecaf9e0bb4f671964fa2d446360001b61087e565b6106467f8e7c6a9e65a0c60dfcb300d4137dba595c5cccb16fe766156331cf087afc9bcd60001b61087e565b600260008373ffffffffffffffffffffffffffffffffffffffff1673ffffffffffffffffffffffffffffffffffffffff168152602001908152602001600020805490509050919050565b600360205282600052604060002060205281600052604060002081815481106106b857600080fd5b9060005260206000200160009250925050505481565b60606106fc7f42bc12dba3f6146efc24fbcbc3a44411fe759812927ff801388b3c8f3a625ce960001b61087e565b6107287f2e0887aad2011f3a0d394bf654e5e8328a88ce20ca261fde91863f07f6f2a96d60001b61087e565b6107547ffcbf95a37cb505526e29ee1a510926fe69b4862b36e9b6557159d9524cfcd2a860001b61087e565b600360008473ffffffffffffffffffffffffffffffffffffffff1673ffffffffffffffffffffffffffffffffffffffff16815260200190815260200160002060008373ffffffffffffffffffffffffffffffffffffffff1673ffffffffffffffffffffffffffffffffffffffff16815260200190815260200160002080548060200260200160405190810160405280929190818152602001828054801561081a57602002820191906000526020600020905b815481526020019060010190808311610806575b5050505050905092915050565b6002602052816000526040600020818154811061084357600080fd5b90600052602060002001600091509150505481565b600660009054906101000a900473ffffffffffffffffffffffffffffffffffffffff1681565b50565b60086020528060005260406000206000915090505481565b6108a1614555565b73ffffffffffffffffffffffffffffffffffffffff166108bf610ed5565b73ffffffffffffffffffffffffffffffffffffffff1614610915576040517f08c379a000000000000000000000000000000000000000000000000000000000815260040161090c90615444565b60405180910390fd5b600073ffffffffffffffffffffffffffffffffffffffff1660008054906101000a900473ffffffffffffffffffffffffffffffffffffffff1673ffffffffffffffffffffffffffffffffffffffff167f8be0079c531659141344cd1fd0a4f28419497f9722a3daafe3b4186f6b6457e060405160405180910390a360008060006101000a81548173ffffffffffffffffffffffffffffffffffffffff021916908373ffffffffffffffffffffffffffffffffffffffff160217905550565b60056020528060005260406000206000915090505481565b600660149054906101000a900461ffff1681565b610a07614555565b73ffffffffffffffffffffffffffffffffffffffff16610a25610ed5565b73ffffffffffffffffffffffffffffffffffffffff1614610a7b576040517f08c379a0000000000000000000000000000000000000000000000000000000008152600401610a7290615444565b60405180910390fd5b610aa77f2ff71bdc09af235d5667321e8b9b0a56ec7bae8326ecbf033236f9e2bf9d6d6060001b61087e565b610ad37f453ff131c1ba25bf682fb3ba77d59561d069e6797118ea1ea49630c6b1b2278360001b61087e565b610aff7fb5c3849ca10275743ae4662a9b1e6f02aea5adcd5ec08bc060411a54d631a4b360001b61087e565b80600660006101000a81548173ffffffffffffffffffffffffffffffffffffffff021916908373ffffffffffffffffffffffffffffffffffffffff16021790555050565b610b6f7ffebd94d4b3df8108bf9462aeb8cd411102adc3e48df9d0b49c0e2892ca00784660001b61087e565b610b9b7fcf5ddc289237515de8b43b81eabc1a868785bd33047655ed8ac109c6f579065760001b61087e565b610bc77f52cd50f158bb3454523ef8eb2cb228fee80c4ed2fdd9edc407e2ea56ba2173dd60001b61087e565b610bf37fa7ca87837d254ca0b859dd004e9a8b68da0595f3d95bc4020baa83606c2d4e7d60001b61087e565b600073ffffffffffffffffffffffffffffffffffffffff168373ffffffffffffffffffffffffffffffffffffffff161415610c63576040517f08c379a0000000000000000000000000000000000000000000000000000000008152600401610c5a906154c4565b60405180910390fd5b610c8f7f8f6a1df079ed3e8fa641fefec0025d7a38dfbd75027daca1627dd6a68e57407d60001b61087e565b610cbb7f0d8350ccc0f16786c47e96fd66ee16a84ff6f4cf821123e345598f40397daf7a60001b61087e565b610ce77f443ca97d18c4f36a01463c061d32f777324d5eb348ee279036130bca93810f1b60001b61087e565b610d137fbb6b91f4d8543dcb734ddba4e22e6a5489d10190b96904ba00b9346742a4868d60001b61087e565b6000821415610d57576040517f08c379a0000000000000000000000000000000000000000000000000000000008152600401610d4e90615464565b60405180910390fd5b610d837f33fd762a6556398b64792775476fc4b6eaf9618a292a6771ad93f35d327103f560001b61087e565b610daf7f07075703cdb39600b8552e1367262dbe6d500778987874a08423eb447136f7e860001b61087e565b610ddb7fa704649f4c663b3a0a44aad5f579f41070c3b17a7b743fcdd0be80eb2ee9d4a660001b61087e565b610de8836000848461455d565b610e147f86bc237e9cdb70efc736946c92349ed3019d521b41299b0328318ee9e8d8c43160001b61087e565b610e407fd48c2eecaba9ae5354d4fa9f783c449304078d4db0fe58682c0de31acd88272b60001b61087e565b8273ffffffffffffffffffffffffffffffffffffffff166323b872dd3330856040518463ffffffff1660e01b8152600401610e7d93929190615201565b602060405180830381600087803b158015610e9757600080fd5b505af1158015610eab573d6000803e3d6000fd5b505050506040513d601f19601f82011682018060405250810190610ecf9190614d0e565b50505050565b60008060009054906101000a900473ffffffffffffffffffffffffffffffffffffffff16905090565b60046020528060005260406000206000915090508060000160009054906101000a900473ffffffffffffffffffffffffffffffffffffffff16908060010160009054906101000a900473ffffffffffffffffffffffffffffffffffffffff16908060020160009054906101000a900473ffffffffffffffffffffffffffffffffffffffff16908060030154908060040154908060050154908060060160009054906101000a900460ff16905087565b610fb5614555565b73ffffffffffffffffffffffffffffffffffffffff16610fd3610ed5565b73ffffffffffffffffffffffffffffffffffffffff1614611029576040517f08c379a000000000000000000000000000000000000000000000000000000000815260040161102090615444565b60405180910390fd5b6110557f2ff487249f7800e1de66fcc5c68759dc79c8937c5d7b91791472d88a93e9601760001b61087e565b6110817f8c702535a1f403122d1d60266bfbef75b031a9f9188f8079af3eca2a2201528b60001b61087e565b6110ad7fcdbb8966f081fcaf58a2aab2ad118eb097d0190eab1a64a340134d454ec8a00d60001b61087e565b6110d97fcac69083b1c73a69f0b0a2e9ac39e03f4cc1acead09e1ae6ea41884f4fbf261a60001b61087e565b6127108161ffff161115611122576040517f08c379a0000000000000000000000000000000000000000000000000000000008152600401611119906154a4565b60405180910390fd5b61114e7f712072e8e0c56b7752c7d09a358fd19c424f213e490aa162c6dea65a10f3148260001b61087e565b61117a7f54c201912288351366d96f2e5a0049f0f0ce752ef12c288270a6d1df176228f360001b61087e565b6111a67feecf20af78c027aa7ceb730995b3cb29c9dadac2f7785b20a68cf28d3b986dad60001b61087e565b80600660146101000a81548161ffff021916908361ffff16021790555050565b600081565b60075481565b60026001541415611217576040517f08c379a000000000000000000000000000000000000000000000000000000000815260040161120e90615524565b60405180910390fd5b600260018190555061124b7ffafb7be8623469283eb6d1413d7ecbb8cb3324e6fa184b87482bbf14131c7f0060001b61087e565b6112777fa3759e8e88068d1201c82e60ad5ed531e4f76a0b626c07806bc2b2fa6abd307a60001b61087e565b6112a37f1ba5a380cdbb23b582295ba894fdfbf467f74d04366389518fe899e28c94efda60001b61087e565b60006004600083815260200190815260200160002090506112e67fc2a5a3006baebfdc2f9b147aa93d46b050582cdbcd11d15a0ca2b61f40a66ee260001b61087e565b6113127f81289f040da25925f6f1c138593f81a045acfa87a3e471ad34174b95b047168a60001b61087e565b60008160000160009054906101000a900473ffffffffffffffffffffffffffffffffffffffff1690506113677fb9570ccc6924f9c11899c7f86f1fbafe33f0f9682d67cb992da50cd6b2c211ec60001b61087e565b6113937fdfef4f0595e2ed9cb0e34fca62d478b3d67b1c8e919b1573c27724cd8237a28f60001b61087e565b60008260010160009054906101000a900473ffffffffffffffffffffffffffffffffffffffff1690506113e87f76fdacd88faa5343cc2eac2db13b107f5b286424fda58bfb2d331bdee162092260001b61087e565b6114147f8dee0e25e280755d1dbf9abfd4e5ce5f5641687abe2ab15b3f664f17eb58e89860001b61087e565b6000836003015490506114497fd80d170890a4196f48f8649de95bba5341810d802a6f69d42e8908aeb7193bcb60001b61087e565b6114757fcf47ac2b378e030f9cea2fbe00bdbf37db8a6f6255ca0b39e6b3fca4957343ae60001b61087e565b6000846005015490506114aa7fa64b317b51db244d879daef1228e09cdf26cc51d7b5babbc061267232f61259e60001b61087e565b6114d67f64651fb90f9cf20a5074704d14fa524d9f9e3a0751eae7515a03ef6405bae07a60001b61087e565b60008560060160009054906101000a900460ff1690506115187fcddedfd0e586e255e60ce7260b6b7afe392857e8ab70faf4bef2f0ce6380a19e60001b61087e565b6115447fb78d427ace54ba670e947e7080054ce18d5340729dd2191e5b8e2f3b68182e1660001b61087e565b6115707fc34b10aedb1ae0939fd85c1c486fc8eb6edfdd9f7ca0f97b84bc3d9da77f703660001b61087e565b3373ffffffffffffffffffffffffffffffffffffffff168573ffffffffffffffffffffffffffffffffffffffff16146115de576040517f08c379a00000000000000000000000000000000000000000000000000000000081526004016115d590615504565b60405180910390fd5b61160a7f299f7c5d0311c2ed33f897f59b7830822d409bd84fe96b582b203416956d86ee60001b61087e565b6116367f3cefef74955310b4948c749a2eeaad01cc8d3fb935e5877f2a92d3da7bc8531160001b61087e565b6116627ff446a24a4e01e2075d0c64acf43eeaa96ee084448ab76d7d5acc243418698f8360001b61087e565b61168e7f75df32a2226805d5939fa64000adc7b6a5ec4477b93fdef23cd793bb9efc439e60001b61087e565b80156116cf576040517f08c379a00000000000000000000000000000000000000000000000000000000081526004016116c690615344565b60405180910390fd5b6116fb7f73eb6563d96f6da4b8e87a315461da566280bcb3f1d85df3895b4b95cd0cfd4c60001b61087e565b6117277f95100347d30dc6b9464329968486aff88da0db71903a9b0d92f5c54c1aa4e1b660001b61087e565b6117537f14c08f4e727bbc757cc14f2da573a340be26fd4cd8db1e63a2bf1c7b94aff19f60001b61087e565b60018660060160006101000a81548160ff02191690831515021790555061179c7ff568b7c46a5442872ef1c25986c74cbc83dcbc4fd2920870267a7ddab50e2c0160001b61087e565b6117c87f34abd9038c839e17e757c5ce1ad8052c4dd8225a1a416b97962d79bb81e9c55960001b61087e565b600073ffffffffffffffffffffffffffffffffffffffff168473ffffffffffffffffffffffffffffffffffffffff1614156118d8576118297f900b494d1ac87a215842d33fee566c770b1be8a438e81eee9a72081c613f8fb360001b61087e565b6118557fdb9da3e0b1022d7905bc2e707f37785631bdf1d51642a8cb05754e0386d2844060001b61087e565b6118817f0cc87916c7e70cc9a579687e2f018d0757df58cb6043ab751be32744d15d97d360001b61087e565b3373ffffffffffffffffffffffffffffffffffffffff166108fc83856118a791906156c5565b9081150290604051600060405180830381858888f193505050501580156118d2573d6000803e3d6000fd5b506119f6565b6119047f61a2ee5518f1803ee9c6ed3061195e3ad01f4fdbfd02553eb7e1f899c0ccc50860001b61087e565b6119307f99e2b595f532d2409d1f3ad3bdf76b86a3b315f9e7a1a6a1526a8f5bd1661bd660001b61087e565b61195c7ff91394f852bf3c4a014b480bea460eba8851c6c84f88ee0824ecdb06f7a6662160001b61087e565b8373ffffffffffffffffffffffffffffffffffffffff1663a9059cbb33848661198591906156c5565b6040518363ffffffff1660e01b81526004016119a29291906152de565b602060405180830381600087803b1580156119bc57600080fd5b505af11580156119d0573d6000803e3d6000fd5b505050506040513d601f19601f820116820180604052508101906119f49190614d0e565b505b611a227f0dd49f558c9f98c1367e2e32ffd5f13a49a375f1090d6c8a731f358f075c3ce660001b61087e565b611a4e7fe139d96a0ff7541d9f38d282ded4fa638d2b0bf9ba5bf8d5d4acf1187383a0d560001b61087e565b867fe8d9861dbc9c663ed3accd261bbe2fe01e0d3d9e5f51fa38523b265c7757a93a60405160405180910390a25050505050506001808190555050565b60026001541415611ad1576040517f08c379a0000000000000000000000000000000000000000000000000000000008152600401611ac890615524565b60405180910390fd5b6002600181905550611b057f61e6d384cd692854fefdbfaf80717dc6e9cfdf214e136e3fb4e73e4a471ed59960001b61087e565b611b317f016228746d4edc53355eb317d83418d217d5c873f945f60f35252fc6982f957860001b61087e565b611b5d7f8a4b12fcceb828b10c97365d43267eb7b21e004cc2d53c59a971c813d245954060001b61087e565b6000600460008581526020019081526020016000209050611ba07f5ffbe5bfb528b12018883a893756b36f7787b2790322b24de03d2428ca129af660001b61087e565b611bcc7f72fa47c12c0b0b4ebae5f8f08070bedb7a747a97374bee04115ce342f6fbe72c60001b61087e565b60008160000160009054906101000a900473ffffffffffffffffffffffffffffffffffffffff169050611c217f736079c48be55b04fea3eede8fb2b9ff6e8beb122169e4cdebfe9a3814f1f39360001b61087e565b611c4d7f5af4ff59e52241c71049cadf19b519d772a53ccd8b3d51c4e23dbbf3edc2aa4e60001b61087e565b60008260010160009054906101000a900473ffffffffffffffffffffffffffffffffffffffff169050611ca27fa9896a29f73a632c2ab7dd9da600a33123fff837bac0512169fc2b54b3a5659660001b61087e565b611cce7f01d4d3e670c01dbc03920ac892d18a0aa1d2d8c081a02f740c8fa54188e5e23860001b61087e565b60008360020160009054906101000a900473ffffffffffffffffffffffffffffffffffffffff169050611d237f9335872052f5f4f7108632c03ed0b8b4108588f6fc5b8a3b083c0bdd9388294e60001b61087e565b611d4e7ec45142bb5d7de206786e3a941a2c3023dee36dd67f77ac6e315ff06ef246f660001b61087e565b600084600301549050611d837f252789553a52576eb03335b4430414e949784857eff75abf02c06c2b0a277e1260001b61087e565b611daf7f2046dac952e0a8719d6adc17546707725b81eabaaf08131b4875cde837cdfe2360001b61087e565b600085600401549050611de47fddc9fc614709e5a2fb6d77a5974e6b586864b06778da8a977317f40c85da05b860001b61087e565b611e107f3fec96337b86bf290c78986c352ad975089fa41497a03bed73ee203f580a116360001b61087e565b600086600501549050611e457f7eb2b4d771fa371e1be0a6c31600db13e529bb9e5979130ac2fe7b49a0b72c2a60001b61087e565b611e717f66b7e4d58488c4e3c9f7625042ee9d8fe141d10226e7f6dee6856e818738459960001b61087e565b60008760060160009054906101000a900460ff169050611eb37f7e3ffa317e74d01d1b7227370a61e5bfce31a394b2946e213fe5b5c233e1544a60001b61087e565b611edf7f7e145d90b70be6581435a147e53588798e32e9192115accd797fbbb2ba4c23a760001b61087e565b611f0b7f15d5f74d5d0659951d0a4791fa2159b27ee444e92847ee5fade97c3ac6fdda8960001b61087e565b3373ffffffffffffffffffffffffffffffffffffffff168773ffffffffffffffffffffffffffffffffffffffff161415611f7a576040517f08c379a0000000000000000000000000000000000000000000000000000000008152600401611f71906153a4565b60405180910390fd5b611fa67fd88855b1f736fb7aa0be02588f03628cd7a79869a260fd5017cd2ac58020943260001b61087e565b611fd27f4d1413a1d94056f9426e85997c045651180a6ff85d667cbea233d3812c9059cd60001b61087e565b611ffe7f76bcb0344316d6cdcf73060a3458016a6d57d40c098e80c63f73cee4e8a4dfa660001b61087e565b61202a7f235a49a1de01198cce3ad14809a8de9db16f8622bccd77b4125d833104bbc4c860001b61087e565b6000151581151514612071576040517f08c379a000000000000000000000000000000000000000000000000000000000815260040161206890615544565b60405180910390fd5b61209d7f16003a78daec96785b43038f3c4b27810336a4eaa4a2b65bd9fe8e4e18e2a57c60001b61087e565b6120c97fe9460fa92b0fc295cc5afacc439645c211d98cd697e00adc2ef2a168621c13fe60001b61087e565b6120f57f893f3b3f4e29e581ce509f4364a6cc4a0ceac95ed511659918ed515b2a5dde1860001b61087e565b6121217f241f27e97963d7bae26a421f824f5c67dcc22a9c6979e4c6c5fb1dd9819f165660001b61087e565b818461212d91906156c5565b89111561216f576040517f08c379a000000000000000000000000000000000000000000000000000000000815260040161216690615424565b60405180910390fd5b61219b7f7b3568891ecf83a7d2993f7404d51fba23be3c01c19c06b3fcec6ca8e65fc63a60001b61087e565b6121c77fec9e9ac86128df5a94b184a67604504489aad38a51f937fadc0c27e6f17e674160001b61087e565b6121f37fd7f8271d0631ed22f4f50ab7742d92baec7a387eeb60ea5add6c09bffddb44cb60001b61087e565b6000898361220191906155e4565b905061222f7f4f5c27b48dd2301b89f49feb0bd35905aa404434f21de2d20c36e6725def338760001b61087e565b61225b7f8b093d8e560993606d64838b3ab8a64f7a5a8e27efcba5e11ec70274eb55a44260001b61087e565b8089600501819055506122907f346fd4dad9b42716834b531d8b0d687329d515770f40b7ef56e3013a45bf849360001b61087e565b6122bc7fb7b079941ac3df9c92a1f1168223ccab6bc52383de3573146fa5753bb801442c60001b61087e565b848114156123c6576122f07f5fd80f233ae77d0216b91a90579418c4ba165978dee034b2483a209f3b15639160001b61087e565b61231c7f09d19d6770471234aa7b79a4a4ffc5e4bd132115db187710cbc764fa3898a4bb60001b61087e565b6123487f67c599fd8bc0192ed4d6397c07e8087e93518e4f0120d0a9404568438e0c229460001b61087e565b600191506123787f23c562121ed25f832e1eccc83c034fd7fdb91aa3db2e4e0ff094baf0ddb32ee560001b61087e565b6123a47fb32f4d7d5873f3cf5ea4f86ddad92e73cf47844b1863bcccce9d4235a7a7b28f60001b61087e565b60018960060160006101000a81548160ff0219169083151502179055506123f3565b6123f27f64bfe499813f6b33dd76e0e37ebf3dcebcdc692735efcce44603f049b976596060001b61087e565b5b61241f7fe3edbd089dab64a505d713d595bd5e87fd398a0839704ed56a849dd5bf92779760001b61087e565b61244b7f505e6c96fdb0b3a04422ea780867ed5ba3de93c02e990fc7a450bca5dfe998bd60001b61087e565b600073ffffffffffffffffffffffffffffffffffffffff168773ffffffffffffffffffffffffffffffffffffffff161415612c57576124ac7f515ede6fb2ab893b7c906255b058158934b967354de932f63575259f9012a2bf60001b61087e565b6124d87f0dead644c3852e5ee12d7f841a74646c0ab3493cae7d3d7e8dfc64e5a8ec54df60001b61087e565b6125047f090906d0d246665f6f1d4bd6479bd4b41b6cc5b9a55ce3f6e2fb0e6a11f9ecfe60001b61087e565b6125307faf844ebbc78551b79a5d7c8de37d4d47542381e00753c9cd266083894776373760001b61087e565b60003414612573576040517f08c379a000000000000000000000000000000000000000000000000000000000815260040161256a90615484565b60405180910390fd5b61259f7faa963c95254ab88aaf268d0705c95e8b63c6da54df5c072f3daf137a5b722a7560001b61087e565b6125cb7fdecf901b7bb04f1e78ce17e446b45ea58dbc18bffbbe1e1d4ddb0d272236092960001b61087e565b6125f77fb4e42fdd02c819ee754e31c494a4822982b6b1000c58ea9cfa1cbfe99b76a3e760001b61087e565b6126237f8f39ce966c1a4733c5c4cc7cf7eb0ae0b30743876e94576a7c088392329f657560001b61087e565b60008b1415612667576040517f08c379a000000000000000000000000000000000000000000000000000000000815260040161265e90615404565b60405180910390fd5b6126937f4133a13d4bd1e90231d7f546135d5960eb88822966208edee5edc4fe286c0bd060001b61087e565b6126bf7f93bf19c678176994cf3fc7f763aaa82cf677d2549a9a9792863be1a61c58445860001b61087e565b6126eb7fb1cb8d241e3fd5a4a4dc1f911d7a39fff68648fa21b4e188b07fc55c5e269c2660001b61087e565b6127177f38cd94d3c43a00b0a3fa4c9f8472be33a61e3562a3b2af0efe913977fcbf878260001b61087e565b8984612723919061566b565b858c61272f919061566b565b1015612770576040517f08c379a0000000000000000000000000000000000000000000000000000000008152600401612767906153c4565b60405180910390fd5b61279c7fa6cbb6f6bf53ecf5d7d80db00f828ba44c63c6aec76c6fdf55add69d7fad7b2260001b61087e565b6127c87f41525652e21c59008fadded88f85551a9e0395e1848f82970305d29b9e9e6ce260001b61087e565b6127f47fe14a3f97f022c21a7a1820c04607eaeb34918227f8d7d60eac5598994c737fcf60001b61087e565b6000612710600660149054906101000a900461ffff1661ffff168d612819919061566b565b612823919061563a565b90506128517fff6026321e7b976ef00073b8de9e8d167f478a341a0581e76e51b7d10573e1f560001b61087e565b61287d7f9d0a68397017b42be4cdc9b558ee1cfbe656bdd323975736979e6f303acf026460001b61087e565b80600860008973ffffffffffffffffffffffffffffffffffffffff1673ffffffffffffffffffffffffffffffffffffffff16815260200190815260200160002060008282546128cc91906155e4565b925050819055506128ff7fdb4060328d30d1d277a24b2e0d72cae7a8cc905e39fd070a7ae64f7a3829414060001b61087e565b61292b7fa064f0d134ae2aa164eab7abfe15310d5dcad92af1964f3dcb39ca51b60b600060001b61087e565b8673ffffffffffffffffffffffffffffffffffffffff166323b872dd33308f6040518463ffffffff1660e01b815260040161296893929190615201565b602060405180830381600087803b15801561298257600080fd5b505af1158015612996573d6000803e3d6000fd5b505050506040513d601f19601f820116820180604052508101906129ba9190614d0e565b506129e77fe7f6a1995531f974b77ebc626e4de5d345aa5b74946548f12c09557f06aff1fa60001b61087e565b612a137fe07aac2c6f812f817db920d62cac09e283d74990e5a227e897da792984a9c7ab60001b61087e565b8673ffffffffffffffffffffffffffffffffffffffff1663a9059cbb8a838f612a3c91906156c5565b6040518363ffffffff1660e01b8152600401612a599291906152de565b602060405180830381600087803b158015612a7357600080fd5b505af1158015612a87573d6000803e3d6000fd5b505050506040513d601f19601f82011682018060405250810190612aab9190614d0e565b50612ad87f7d02adefb8ee25fd6952062530ec388b50b2b967f8cf4c52164aa4b9ba1795f160001b61087e565b612b047fefd65c4f2293c3308c566b791b5c16f71b682b2b4d55ddbbcef19e1fa179230360001b61087e565b6000612710600660149054906101000a900461ffff1661ffff168d612b29919061566b565b612b33919061563a565b9050612b617f0d1a2945c4e1fac00f023769c8cb1d32ccbace69971aac8fa7fc39e88460114a60001b61087e565b612b8d7f183fa34c7b01033a7e41fb587421ab6dc2c7880f3c754bde388097768b825b8060001b61087e565b8060076000828254612b9f91906155e4565b92505081905550612bd27f3c56099011860af24e0da29d176ab2211758ecd847ebd3ff2ec21c5f74bc16b460001b61087e565b612bfe7fed1becef50c2fa0bea6fe78778348f42c00a49daa6dd4c42cfdab0a6a7e548e160001b61087e565b3373ffffffffffffffffffffffffffffffffffffffff166108fc828e612c2491906156c5565b9081150290604051600060405180830381858888f19350505050158015612c4f573d6000803e3d6000fd5b505050613342565b612c837f097bed3569ae4c4dad9843505b19132a09e6711e37e157b99544e55b0c59b30560001b61087e565b612caf7f591391f19b05b8feab38743bab70b2c14238d06e861fd6c8d7cbd456d43ee75f60001b61087e565b612cdb7fb68b6628e8bfb788e769ddaed89aaf891182135aee4d986f23a26c1465cf7f3460001b61087e565b612d077f5f2ae825f0d4610ee6fb92660ddf95dd03bca68eed8dbc85ed52f934d0b7739160001b61087e565b60008b14612d4a576040517f08c379a0000000000000000000000000000000000000000000000000000000008152600401612d41906154e4565b60405180910390fd5b612d767fe431c9f623c1823c45d80f807b287266be820673ae7b311184fb3252c428f70260001b61087e565b612da27fbf08ae1b4c2e7945824776c4bd373ea53041b26046cb413f50d265ce2fb5bba260001b61087e565b612dce7fec6349b443c06f042580891de32d0d35a38e190e690460f3b205ef44c0c5a51a60001b61087e565b612dfa7f8207abd75fbc6219f7623cd152a1aae86779860c336822235c59e016daff6c3760001b61087e565b6000341415612e3e576040517f08c379a0000000000000000000000000000000000000000000000000000000008152600401612e35906153e4565b60405180910390fd5b612e6a7fda8469bb4c59db430930dafee8d03f5bcf0bb97d0ed510cf24845f9fd37b15ca60001b61087e565b612e967f558e67137163f4e0a753d2e57f96073890c7604c08b881b5beabc676a611df3460001b61087e565b612ec27f434e258c25efaa48268fb85fdf51c56701be2b1b6b28e8f62a6afbe99bf4e42d60001b61087e565b612eee7fb9b0d90cd553033c01509a2d6b6eb47406de3b2d60509ad36773fed90ab8ad5460001b61087e565b8984612efa919061566b565b8534612f06919061566b565b1015612f47576040517f08c379a0000000000000000000000000000000000000000000000000000000008152600401612f3e906153c4565b60405180910390fd5b612f737f6faf9d4ed139d6a40a7528572ded6398fa7c09b788e74f0533223e8d85b40aac60001b61087e565b612f9f7f8e6d0cdbf88ce05e509ebdea0661f06a080b9400c4363ca273c5b666e0662c4d60001b61087e565b612fcb7f73d36d86354de60633925f533a13fae0d52cca03197435d2259987fedd3fe73260001b61087e565b6000612710600660149054906101000a900461ffff1661ffff1634612ff0919061566b565b612ffa919061563a565b90506130287fc0f83877328b8b5a7b2b4945263b3fc40c422583bbea07b25275680c967a626360001b61087e565b6130547f55f8c56513a033789a954026cffd97883269bb2085b7345490d2f6a45631009f60001b61087e565b806007600082825461306691906155e4565b925050819055506130997f3e60b99a4a1aea79cf8eb5150604a16cec16bfdd9cf6b159e188459fa90d579460001b61087e565b6130c57f583fdb01a4e1c56ab18d1e2e48834f727b7f1357aab805d64ca8a6f35e1fd22460001b61087e565b8873ffffffffffffffffffffffffffffffffffffffff166108fc82346130eb91906156c5565b9081150290604051600060405180830381858888f19350505050158015613116573d6000803e3d6000fd5b506131437fc8817b59da2a467822c12633897ab40b75a386ed7dd4b81f3d647afac192125a60001b61087e565b61316f7f43d88bc0913b2112f0fe225c3856b28053bfd43c95ea65e6a3d551aea037470a60001b61087e565b6000612710600660149054906101000a900461ffff1661ffff168d613194919061566b565b61319e919061563a565b90506131cc7f7c9809cf2271273f31bef5ad685045d3a1f17d3e8b6ba20bcb1425d83374d5e260001b61087e565b6131f87f454679d318f6edaa3cba8b080b09e0db252a1cbd24a0321e4e8734fbc9bc5d4660001b61087e565b80600860008b73ffffffffffffffffffffffffffffffffffffffff1673ffffffffffffffffffffffffffffffffffffffff168152602001908152602001600020600082825461324791906155e4565b9250508190555061327a7f6dd48f0a4e3d449c387371dbbe56bf6bb71db2656f0ffe282044a31a75aa63b560001b61087e565b6132a67f4914b4badf29412bf8f8fb8a9d9bb4cbb1d5d036c4513e9852b751218d736eac60001b61087e565b8873ffffffffffffffffffffffffffffffffffffffff1663a9059cbb33838f6132cf91906156c5565b6040518363ffffffff1660e01b81526004016132ec9291906152de565b602060405180830381600087803b15801561330657600080fd5b505af115801561331a573d6000803e3d6000fd5b505050506040513d601f19601f8201168201806040525081019061333e9190614d0e565b5050505b61336e7f0fcfe3810fa6272afbaab6ef562c920934608344990da1f1549f881e0b9778a960001b61087e565b61339a7f3c07c3c925f0297b4f8bafde8a0cd49ced14cb10a6734e262dbf30d81be14f5e60001b61087e565b3373ffffffffffffffffffffffffffffffffffffffff168c7fb7bff262e9e541441fc8fdbf72da6450a0d238715f6cecce1634def8838dc9f68989898f87896040516133eb9695949392919061527d565b60405180910390a350505050505050505060018081905550505050565b60606134367f25eeef5af5af598d47d5d13eeacfafa3ca0cc3a77fd4eb693e068162e9d35a9a60001b61087e565b6134627f5380b0c1f7d7d15b63270bccc9454c9a935b15e12c9b2c8cf5b57328b8e3a01760001b61087e565b61348e7fab4cb0930627805c1743cbfd7535325d697984a698d35ce75420b36d439df34760001b61087e565b600260008373ffffffffffffffffffffffffffffffffffffffff1673ffffffffffffffffffffffffffffffffffffffff16815260200190815260200160002080548060200260200160405190810160405280929190818152602001828054801561351757602002820191906000526020600020905b815481526020019060010190808311613503575b50505050509050919050565b61354f7f4130d751033491326aebca972f3e4a1c28a665a848e5c413e1d52607e1ffe70160001b61087e565b61357b7f9bf7dd5c57382de85e31640f429559093503b55b7a0d5953669518c7e3c2c2f260001b61087e565b6135a77fc4a7f038758aae09f58f01a1d4b5b1134f668208d636af6e624dc512c3df566d60001b61087e565b6135d37fe546095ed12592c8719aa31faae2d6f47acc7a8e702d5e65545de3e0ecd72dd660001b61087e565b600073ffffffffffffffffffffffffffffffffffffffff168273ffffffffffffffffffffffffffffffffffffffff161415613643576040517f08c379a000000000000000000000000000000000000000000000000000000000815260040161363a906154c4565b60405180910390fd5b61366f7ff6fb5191dd2c55a844b81331bed8a7a3b09b992b45bfe8ef7588d1ac81e4f47660001b61087e565b61369b7f8d1a7c16a3a098039e241e1824bbf1c28c42af3b955146bb9e180264bc0acbff60001b61087e565b6136c77f1164545692ee1ee07aa379bca9296dcba34a45a27d8493cdab2159954441408260001b61087e565b6136f37f31f84a5b126796845a6154bb4d445c76401f048af8e4fc4dbec660df0b4e16c260001b61087e565b6000341415613737576040517f08c379a000000000000000000000000000000000000000000000000000000000815260040161372e90615384565b60405180910390fd5b6137637f82dfcd47597c7c4268ec93444acdbd95e472a6078d81a8cc0be2c2e56c2ffba460001b61087e565b61378f7ff538ab358fe704d184d429f5e99d0b34e5feacb8b503a05fac2a97a9550eb8e860001b61087e565b6137bb7f2dbf0f18a2268c1987ae011908f5fb3b21337222c85cf22fed279ffb69bb695c60001b61087e565b6137c8600083348461455d565b5050565b6137d4614555565b73ffffffffffffffffffffffffffffffffffffffff166137f2610ed5565b73ffffffffffffffffffffffffffffffffffffffff1614613848576040517f08c379a000000000000000000000000000000000000000000000000000000000815260040161383f90615444565b60405180910390fd5b600073ffffffffffffffffffffffffffffffffffffffff168173ffffffffffffffffffffffffffffffffffffffff1614156138b8576040517f08c379a00000000000000000000000000000000000000000000000000000000081526004016138af90615364565b60405180910390fd5b8073ffffffffffffffffffffffffffffffffffffffff1660008054906101000a900473ffffffffffffffffffffffffffffffffffffffff1673ffffffffffffffffffffffffffffffffffffffff167f8be0079c531659141344cd1fd0a4f28419497f9722a3daafe3b4186f6b6457e060405160405180910390a3806000806101000a81548173ffffffffffffffffffffffffffffffffffffffff021916908373ffffffffffffffffffffffffffffffffffffffff16021790555050565b60006139a37f7d6ee6c5db2ce9fbf4610aad112d6e353b7568f8880297c7e5efb52417c9654260001b61087e565b6139cf7faf7b0b58e042d16251bbce3369f61e6f8408bd526fee5ed7b6c1c4f966e6ba8d60001b61087e565b6139fb7fc117acff6bbca026ee56cf1ab52777894c454f6821550ef53bd439217e97a9cb60001b61087e565b600360008473ffffffffffffffffffffffffffffffffffffffff1673ffffffffffffffffffffffffffffffffffffffff16815260200190815260200160002060008373ffffffffffffffffffffffffffffffffffffffff1673ffffffffffffffffffffffffffffffffffffffff16815260200190815260200160002080549050905092915050565b60026001541415613ac9576040517f08c379a0000000000000000000000000000000000000000000000000000000008152600401613ac090615524565b60405180910390fd5b6002600181905550613afd7f9ac85865706675e0c54aed9eef75dce2bfb54b15edd3d49604453c8d98f0411a60001b61087e565b613b297f23c3869a61a35ed4f4e11a5378f61fc1b4fe40676c8090627ae7e6ec8b164d8560001b61087e565b613b557f56469041fba646354a7cda3c7499a5c911f772520165ca317185b4a821c76af260001b61087e565b613b817f68832cd59540a798cfaef0d3bd31bfe5981f75df249cb916b267d0c821bc868260001b61087e565b600660009054906101000a900473ffffffffffffffffffffffffffffffffffffffff1673ffffffffffffffffffffffffffffffffffffffff163373ffffffffffffffffffffffffffffffffffffffff1614613c11576040517f08c379a0000000000000000000000000000000000000000000000000000000008152600401613c0890615504565b60405180910390fd5b613c3d7f2210abcb123f63f05410834f6dc604ea8b6a56c89f3e224f0386d7aa16d1a4d860001b61087e565b613c697feab61e540796a3d8ef31751d5792a215ce6f102011a681140255d875e26d416660001b61087e565b613c957f355fb5f3978738f590b298086c7b690fd0cd16b92a6b286675c8905485c7d4b660001b61087e565b600073ffffffffffffffffffffffffffffffffffffffff168273ffffffffffffffffffffffffffffffffffffffff16141561402957613cf67f85fd0f7a26bcc6f97bbac3244cbbd0a644302b0bd5c568bb402fab6054c9287260001b61087e565b613d227f9d5d9be294026ee645c847a076b791f4d7131968a209bed1a21e5aafbbbf8df360001b61087e565b613d4e7ff2a461ecdb451e1f60cbd45da28b406b44f776435f31e9ca480a3a2d52bed2c460001b61087e565b6007548111613e9857613d837fa115ea6854b4fe9876850f363938f5d1c5d7123ec59a635b60826a4d7ed1a59460001b61087e565b613daf7f3769ae904b8f23e3edc078ed64ba415b3151c9157992b541813aab56ca6f003560001b61087e565b613ddb7f70ae444f07482d9a776edf6e7efe39948f504a9401740f39e5e9a7778b607d4460001b61087e565b8060076000828254613ded91906156c5565b92505081905550613e207f503feda86295e289cacfff648f5a531d3aeddb48f920b42716bae98e202d948060001b61087e565b613e4c7f691187446758a187b3275e074ee160602488166183c96c2abe8e06104da2a05260001b61087e565b3373ffffffffffffffffffffffffffffffffffffffff166108fc829081150290604051600060405180830381858888f19350505050158015613e92573d6000803e3d6000fd5b50614024565b613ec47f1aa6f31de97d3cff853f340c7726ac53d1ca648848b8b7b6286615ff51956c6760001b61087e565b613ef07f73a9a641c0bcae1269be6fba202eb6b4a6ed12c51062421d892271e7c8b58e4660001b61087e565b613f1c7f7ddae4cfc1872fa6e21619207c21502a329c11b0d6d1680b2f879122ee83b4ae60001b61087e565b60006007549050613f4f7f7732674f0b9f03a6678540f85a4348b08162e34e05a42758d1e09acc861fc3d160001b61087e565b613f7b7f5bb3ea56b17672dc2081a2f16de4a1a0a284184aa7f7e3a27be3481cf6e0c9d160001b61087e565b6000600781905550613faf7f1ce1f9208482d609c32fd731e0d6d239fc9193c2f3d2211efe37da617942c28960001b61087e565b613fdb7fdcf32f94e76bcbc266ad2173effda9da1c9a5f976c888e9219ddabdab3875f2d60001b61087e565b3373ffffffffffffffffffffffffffffffffffffffff166108fc829081150290604051600060405180830381858888f19350505050158015614021573d6000803e3d6000fd5b50505b61454a565b6140557f8b07b2a993637aa7e88154d218b7ee1172359e74418f9f8cc6c722e2cf2f5c3960001b61087e565b6140817fa98f4ed56066c44ede9e50ce694823461034742f2722bbfa7b01eaa1fc2c63d460001b61087e565b6140ad7f3af02b2555d61d9591c8066f2f7079d2224788866c2d367c58c00cc68b35c87b60001b61087e565b600860008373ffffffffffffffffffffffffffffffffffffffff1673ffffffffffffffffffffffffffffffffffffffff1681526020019081526020016000205481116142da5761411f7ffe57702fe846853b976e68f4b2e8ab1609485065969f1e587d5148890d54947760001b61087e565b61414b7f1b36e5a5910c017b27f7842ae58ef81caff36ddbf583521017745777129a18e660001b61087e565b6141777f68b14d4dc949322a848b7b9af38044ad4f2ebc9ea1a4365d44c8f3888c7c388660001b61087e565b80600860008473ffffffffffffffffffffffffffffffffffffffff1673ffffffffffffffffffffffffffffffffffffffff16815260200190815260200160002060008282546141c691906156c5565b925050819055506141f97f0258a6be8152b2463e55b56708327019ceee00082aba214746a0307b14753f9860001b61087e565b6142257f3f30dc1967ab61818fb65ac6c1bd07f6c174bc44bc2f2bc53e91987c1cf1f41d60001b61087e565b8173ffffffffffffffffffffffffffffffffffffffff1663a9059cbb600660009054906101000a900473ffffffffffffffffffffffffffffffffffffffff16836040518363ffffffff1660e01b81526004016142829291906152de565b602060405180830381600087803b15801561429c57600080fd5b505af11580156142b0573d6000803e3d6000fd5b505050506040513d601f19601f820116820180604052508101906142d49190614d0e565b50614549565b6143067fbe18eb4a452be2e4517c0f0916766c18de240b4092b3b0543893f652d85bf45b60001b61087e565b6143327f68508a760367ada25c8a660a45f9242f6427792366b625a1f6f9b15f9eb9cb5360001b61087e565b61435e7f3e5637fa856c266500a3399d032a15e7b9e5c48b9493923c22455131c37cd51560001b61087e565b6000600860008473ffffffffffffffffffffffffffffffffffffffff1673ffffffffffffffffffffffffffffffffffffffff1681526020019081526020016000205490506143ce7f8a2efa0bde6f019d43e31c4f2847cdddfc10022c8b8097af3ec1847d6235e14f60001b61087e565b6143fa7f9b0d316f88c143c227865e1ca1817a71f835b35e7cdd7ba6757257f893c2a5e160001b61087e565b6000600860008573ffffffffffffffffffffffffffffffffffffffff1673ffffffffffffffffffffffffffffffffffffffff1681526020019081526020016000208190555061446b7f6ae3c73dc00ae25868bf07fdb936dc16e4893049593e5698c42bb177056802bf60001b61087e565b6144977fbf345672de64483a4b2f689d36d314cd4ff18ab3db7bb4c8278ed6a26c797c8b60001b61087e565b8273ffffffffffffffffffffffffffffffffffffffff1663a9059cbb600660009054906101000a900473ffffffffffffffffffffffffffffffffffffffff16836040518363ffffffff1660e01b81526004016144f49291906152de565b602060405180830381600087803b15801561450e57600080fd5b505af1158015614522573d6000803e3d6000fd5b505050506040513d601f19601f820116820180604052508101906145469190614d0e565b50505b5b600180819055505050565b600033905090565b6145897f81ee35e5aeda39c292d5620f5b7edc1d15d817fa2ca4a38ed061747eb3e56cad60001b61087e565b6145b57f557732876acb4795933edc02813b15c925b02f25f3f31001b92668dea8ebd51560001b61087e565b6145e17f5919bd345c8a19e1f9e709682e74949693507cec0cfa094486fe9d958c1aa89c60001b61087e565b60006145ee338686614a57565b905061461c7f8ee71f0da4200abe957f64c07a18065f074fac65e4410c061bbcb626b3c9feab60001b61087e565b6146487ff884eaefb07e428c611aacad66c58dd8fd9005b5bc9a0956fc95033542ce0a7360001b61087e565b6040518060e001604052803373ffffffffffffffffffffffffffffffffffffffff1681526020018673ffffffffffffffffffffffffffffffffffffffff1681526020018573ffffffffffffffffffffffffffffffffffffffff16815260200184815260200183815260200160008152602001600015158152506004600083815260200190815260200160002060008201518160000160006101000a81548173ffffffffffffffffffffffffffffffffffffffff021916908373ffffffffffffffffffffffffffffffffffffffff16021790555060208201518160010160006101000a81548173ffffffffffffffffffffffffffffffffffffffff021916908373ffffffffffffffffffffffffffffffffffffffff16021790555060408201518160020160006101000a81548173ffffffffffffffffffffffffffffffffffffffff021916908373ffffffffffffffffffffffffffffffffffffffff160217905550606082015181600301556080820151816004015560a0820151816005015560c08201518160060160006101000a81548160ff0219169083151502179055509050506148167f5df5ee48933b50206d8fb551a8b21138f36511aad7324d51bca6838db2f8d85060001b61087e565b6148427f359c4775b42352db930481bdb13c0cdd5adf7ee9c3d4bb035d6816e8b197542960001b61087e565b600260003373ffffffffffffffffffffffffffffffffffffffff1673ffffffffffffffffffffffffffffffffffffffff1681526020019081526020016000208190806001815401808255809150506001900390600052602060002001600090919091909150556148d47f31e1a678aabc6e834c86a22b5d3faf3cf1462b919571ac31c182c2e2097dcc7660001b61087e565b6149007f3df5c71534e82baa9251710da25543d94eda05f0216b0446bf595b8a146d4f3b60001b61087e565b600360008673ffffffffffffffffffffffffffffffffffffffff1673ffffffffffffffffffffffffffffffffffffffff16815260200190815260200160002060008573ffffffffffffffffffffffffffffffffffffffff1673ffffffffffffffffffffffffffffffffffffffff1681526020019081526020016000208190806001815401808255809150506001900390600052602060002001600090919091909150556149cf7fe993a5aec751c196219d3fe0b92cd7dc6c21fe338dea4e497fc28abcc2fee6da60001b61087e565b6149fb7ff64991b5542ee57b7bf94eb95b1d7a49ced0b2600923c6c653425010a42f64a260001b61087e565b3373ffffffffffffffffffffffffffffffffffffffff16817f0a1e03f0018d2d034e06e8c9c3d4578d28bab4a029443fe4f57367555d6e81e787878787604051614a489493929190615238565b60405180910390a35050505050565b6000614a857fc73cde1c8a2a2280919775221d8c89a84a59d4debc0fbd05bff335bb5c1019d960001b61087e565b614ab17fa97b9c5219fa9b2afc1fbe2d0a9f3daf4379f8b4ad0f255e07e3fd108881d82a60001b61087e565b614add7ffab108c19c8c563de5144ee88303d624a27485cd7fe5bd54c63dfc00febe218660001b61087e565b838383600560008873ffffffffffffffffffffffffffffffffffffffff1673ffffffffffffffffffffffffffffffffffffffff1681526020019081526020016000206000815480929190614b3090615759565b91905055604051602001614b479493929190615129565b6040516020818303038152906040528051906020012090509392505050565b600081359050614b7581615b1a565b92915050565b600081519050614b8a81615b31565b92915050565b600081359050614b9f81615b48565b92915050565b600081359050614bb481615b5f565b92915050565b600081359050614bc981615b76565b92915050565b600060208284031215614be157600080fd5b6000614bef84828501614b66565b91505092915050565b60008060408385031215614c0b57600080fd5b6000614c1985828601614b66565b9250506020614c2a85828601614b66565b9150509250929050565b600080600060608486031215614c4957600080fd5b6000614c5786828701614b66565b9350506020614c6886828701614b66565b9250506040614c7986828701614bba565b9150509250925092565b60008060408385031215614c9657600080fd5b6000614ca485828601614b66565b9250506020614cb585828601614bba565b9150509250929050565b600080600060608486031215614cd457600080fd5b6000614ce286828701614b66565b9350506020614cf386828701614bba565b9250506040614d0486828701614bba565b9150509250925092565b600060208284031215614d2057600080fd5b6000614d2e84828501614b7b565b91505092915050565b600060208284031215614d4957600080fd5b6000614d5784828501614b90565b91505092915050565b600080600060608486031215614d7557600080fd5b6000614d8386828701614b90565b9350506020614d9486828701614bba565b9250506040614da586828701614bba565b9150509250925092565b600060208284031215614dc157600080fd5b6000614dcf84828501614ba5565b91505092915050565b6000614de48383614e83565b60208301905092915050565b614df9816156f9565b82525050565b614e10614e0b826156f9565b6157a2565b82525050565b6000614e21826155aa565b614e2b81856155c2565b9350614e368361559a565b8060005b83811015614e67578151614e4e8882614dd8565b9750614e59836155b5565b925050600181019050614e3a565b5085935050505092915050565b614e7d8161570b565b82525050565b614e8c81615717565b82525050565b614e9b81615717565b82525050565b6000614eae6008836155d3565b9150614eb98261583b565b602082019050919050565b6000614ed16026836155d3565b9150614edc82615864565b604082019050919050565b6000614ef46008836155d3565b9150614eff826158b3565b602082019050919050565b6000614f17600a836155d3565b9150614f22826158dc565b602082019050919050565b6000614f3a600a836155d3565b9150614f4582615905565b602082019050919050565b6000614f5d600f836155d3565b9150614f688261592e565b602082019050919050565b6000614f806012836155d3565b9150614f8b82615957565b602082019050919050565b6000614fa3600f836155d3565b9150614fae82615980565b602082019050919050565b6000614fc66020836155d3565b9150614fd1826159a9565b602082019050919050565b6000614fe9600b836155d3565b9150614ff4826159d2565b602082019050919050565b600061500c6015836155d3565b9150615017826159fb565b602082019050919050565b600061502f601d836155d3565b915061503a82615a24565b602082019050919050565b6000615052600b836155d3565b915061505d82615a4d565b602082019050919050565b60006150756018836155d3565b915061508082615a76565b602082019050919050565b6000615098600d836155d3565b91506150a382615a9f565b602082019050919050565b60006150bb601f836155d3565b91506150c682615ac8565b602082019050919050565b60006150de6009836155d3565b91506150e982615af1565b602082019050919050565b6150fd81615721565b82525050565b61510c8161574f565b82525050565b61512361511e8261574f565b6157c6565b82525050565b60006151358287614dff565b6014820191506151458286614dff565b6014820191506151558285614dff565b6014820191506151658284615112565b60208201915081905095945050505050565b600060208201905061518c6000830184614df0565b92915050565b600060e0820190506151a7600083018a614df0565b6151b46020830189614df0565b6151c16040830188614df0565b6151ce6060830187615103565b6151db6080830186615103565b6151e860a0830185615103565b6151f560c0830184614e74565b98975050505050505050565b60006060820190506152166000830186614df0565b6152236020830185614df0565b6152306040830184615103565b949350505050565b600060808201905061524d6000830187614df0565b61525a6020830186614df0565b6152676040830185615103565b6152746060830184615103565b95945050505050565b600060c0820190506152926000830189614df0565b61529f6020830188614df0565b6152ac6040830187615103565b6152b96060830186615103565b6152c66080830185615103565b6152d360a0830184614e74565b979650505050505050565b60006040820190506152f36000830185614df0565b6153006020830184615103565b9392505050565b600060208201905081810360008301526153218184614e16565b905092915050565b600060208201905061533e6000830184614e92565b92915050565b6000602082019050818103600083015261535d81614ea1565b9050919050565b6000602082019050818103600083015261537d81614ec4565b9050919050565b6000602082019050818103600083015261539d81614ee7565b9050919050565b600060208201905081810360008301526153bd81614f0a565b9050919050565b600060208201905081810360008301526153dd81614f2d565b9050919050565b600060208201905081810360008301526153fd81614f50565b9050919050565b6000602082019050818103600083015261541d81614f73565b9050919050565b6000602082019050818103600083015261543d81614f96565b9050919050565b6000602082019050818103600083015261545d81614fb9565b9050919050565b6000602082019050818103600083015261547d81614fdc565b9050919050565b6000602082019050818103600083015261549d81614fff565b9050919050565b600060208201905081810360008301526154bd81615022565b9050919050565b600060208201905081810360008301526154dd81615045565b9050919050565b600060208201905081810360008301526154fd81615068565b9050919050565b6000602082019050818103600083015261551d8161508b565b9050919050565b6000602082019050818103600083015261553d816150ae565b9050919050565b6000602082019050818103600083015261555d816150d1565b9050919050565b600060208201905061557960008301846150f4565b92915050565b60006020820190506155946000830184615103565b92915050565b6000819050602082019050919050565b600081519050919050565b6000602082019050919050565b600082825260208201905092915050565b600082825260208201905092915050565b60006155ef8261574f565b91506155fa8361574f565b9250827fffffffffffffffffffffffffffffffffffffffffffffffffffffffffffffffff0382111561562f5761562e6157d0565b5b828201905092915050565b60006156458261574f565b91506156508361574f565b9250826156605761565f6157ff565b5b828204905092915050565b60006156768261574f565b91506156818361574f565b9250817fffffffffffffffffffffffffffffffffffffffffffffffffffffffffffffffff04831182151516156156ba576156b96157d0565b5b828202905092915050565b60006156d08261574f565b91506156db8361574f565b9250828210156156ee576156ed6157d0565b5b828203905092915050565b60006157048261572f565b9050919050565b60008115159050919050565b6000819050919050565b600061ffff82169050919050565b600073ffffffffffffffffffffffffffffffffffffffff82169050919050565b6000819050919050565b60006157648261574f565b91507fffffffffffffffffffffffffffffffffffffffffffffffffffffffffffffffff821415615797576157966157d0565b5b600182019050919050565b60006157ad826157b4565b9050919050565b60006157bf8261582e565b9050919050565b6000819050919050565b7f4e487b7100000000000000000000000000000000000000000000000000000000600052601160045260246000fd5b7f4e487b7100000000000000000000000000000000000000000000000000000000600052601260045260246000fd5b60008160601b9050919050565b7f4974277320656e64000000000000000000000000000000000000000000000000600082015250565b7f4f776e61626c653a206e6577206f776e657220697320746865207a65726f206160008201527f6464726573730000000000000000000000000000000000000000000000000000602082015250565b7f7a65726f20455448000000000000000000000000000000000000000000000000600082015250565b7f596f7572206f7264657200000000000000000000000000000000000000000000600082015250565b7f6c65737320707269636500000000000000000000000000000000000000000000600082015250565b7f4861766520746f20706179204554480000000000000000000000000000000000600082015250565b7f4861766520746f2070617920546f6b656e730000000000000000000000000000600082015250565b7f427579206c65737320616d6f756e740000000000000000000000000000000000600082015250565b7f4f776e61626c653a2063616c6c6572206973206e6f7420746865206f776e6572600082015250565b7f7a65726f20546f6b656e73000000000000000000000000000000000000000000600082015250565b7f446f6e2774206e65656420746f20706179204554480000000000000000000000600082015250565b7f696e7075742076616c7565206973206d6f7265207468616e2031303025000000600082015250565b7f57726f6e6720546f6b656e000000000000000000000000000000000000000000600082015250565b7f446f6e2774206e65656420746f2070617920546f6b656e730000000000000000600082015250565b7f4163636573732064656e69656400000000000000000000000000000000000000600082015250565b7f5265656e7472616e637947756172643a207265656e7472616e742063616c6c00600082015250565b7f49742773206f7665720000000000000000000000000000000000000000000000600082015250565b615b23816156f9565b8114615b2e57600080fd5b50565b615b3a8161570b565b8114615b4557600080fd5b50565b615b5181615717565b8114615b5c57600080fd5b50565b615b6881615721565b8114615b7357600080fd5b50565b615b7f8161574f565b8114615b8a57600080fd5b5056fea26469706673582212201258fe0cd9d9117fd367bc1af3e95332c3edec844f5eb782b67ebdc2079d2f9d64736f6c63430008030033",
  "linkReferences": {},
  "deployedLinkReferences": {}
}